{
	"contracts/Lab5.sol": {
		"Demo5": {
			"abi": [
				{
					"inputs": [],
					"name": "getCourse",
					"outputs": [
						{
							"components": [
								{
									"internalType": "string",
									"name": "id",
									"type": "string"
								},
								{
									"internalType": "string",
									"name": "name",
									"type": "string"
								},
								{
									"internalType": "uint256",
									"name": "duration",
									"type": "uint256"
								}
							],
							"internalType": "struct Demo5.Course",
							"name": "",
							"type": "tuple"
						}
					],
					"stateMutability": "view",
					"type": "function"
				},
				{
					"inputs": [],
					"name": "getCourseId",
					"outputs": [
						{
							"internalType": "string",
							"name": "",
							"type": "string"
						}
					],
					"stateMutability": "view",
					"type": "function"
				},
				{
					"inputs": [],
					"name": "setDefaultCourse",
					"outputs": [],
					"stateMutability": "nonpayable",
					"type": "function"
				},
				{
					"inputs": [
						{
							"internalType": "string",
							"name": "newId",
							"type": "string"
						},
						{
							"internalType": "string",
							"name": "newName",
							"type": "string"
						},
						{
							"internalType": "uint256",
							"name": "newDuration",
							"type": "uint256"
						}
					],
					"name": "setNewCourse",
					"outputs": [],
					"stateMutability": "nonpayable",
					"type": "function"
				}
			],
			"devdoc": {
				"kind": "dev",
				"methods": {},
				"version": 1
			},
			"evm": {
				"assembly": "    /* \"contracts/Lab5.sol\":95:733  contract Demo5 {\r... */\n  mstore(0x40, 0x80)\n  callvalue\n  dup1\n  iszero\n  tag_1\n  jumpi\n  0x00\n  dup1\n  revert\ntag_1:\n  pop\n  dataSize(sub_0)\n  dup1\n  dataOffset(sub_0)\n  0x00\n  codecopy\n  0x00\n  return\nstop\n\nsub_0: assembly {\n        /* \"contracts/Lab5.sol\":95:733  contract Demo5 {\r... */\n      mstore(0x40, 0x80)\n      callvalue\n      dup1\n      iszero\n      tag_1\n      jumpi\n      0x00\n      dup1\n      revert\n    tag_1:\n      pop\n      jumpi(tag_2, lt(calldatasize, 0x04))\n      shr(0xe0, calldataload(0x00))\n      dup1\n      0x50808e8b\n      eq\n      tag_3\n      jumpi\n      dup1\n      0x8c14acd5\n      eq\n      tag_4\n      jumpi\n      dup1\n      0xb87d81ae\n      eq\n      tag_5\n      jumpi\n      dup1\n      0xfb85742a\n      eq\n      tag_6\n      jumpi\n    tag_2:\n      0x00\n      dup1\n      revert\n        /* \"contracts/Lab5.sol\":526:626  function getCourseId() public view returns(string memory) {\r... */\n    tag_3:\n      tag_7\n      tag_8\n      jump\t// in\n    tag_7:\n      mload(0x40)\n      tag_9\n      swap2\n      swap1\n      tag_10\n      jump\t// in\n    tag_9:\n      mload(0x40)\n      dup1\n      swap2\n      sub\n      swap1\n      return\n        /* \"contracts/Lab5.sol\":634:730  function getCourse() public view returns (Course memory) {\r... */\n    tag_4:\n      tag_11\n      tag_12\n      jump\t// in\n    tag_11:\n      mload(0x40)\n      tag_13\n      swap2\n      swap1\n      tag_14\n      jump\t// in\n    tag_13:\n      mload(0x40)\n      dup1\n      swap2\n      sub\n      swap1\n      return\n        /* \"contracts/Lab5.sol\":243:345  function setDefaultCourse() public {\r... */\n    tag_5:\n      tag_15\n      tag_16\n      jump\t// in\n    tag_15:\n      stop\n        /* \"contracts/Lab5.sol\":354:518  function setNewCourse(string memory newId, string memory newName, uint256 newDuration) public {\r... */\n    tag_6:\n      tag_17\n      0x04\n      dup1\n      calldatasize\n      sub\n      dup2\n      add\n      swap1\n      tag_18\n      swap2\n      swap1\n      tag_19\n      jump\t// in\n    tag_18:\n      tag_20\n      jump\t// in\n    tag_17:\n      stop\n        /* \"contracts/Lab5.sol\":526:626  function getCourseId() public view returns(string memory) {\r... */\n    tag_8:\n        /* \"contracts/Lab5.sol\":569:582  string memory */\n      0x60\n        /* \"contracts/Lab5.sol\":602:615  currentCourse */\n      0x00\n        /* \"contracts/Lab5.sol\":602:618  currentCourse.id */\n      dup1\n      add\n        /* \"contracts/Lab5.sol\":595:618  return currentCourse.id */\n      dup1\n      sload\n      0x01\n      dup2\n      0x01\n      and\n      iszero\n      0x0100\n      mul\n      sub\n      and\n      0x02\n      swap1\n      div\n      dup1\n      0x1f\n      add\n      0x20\n      dup1\n      swap2\n      div\n      mul\n      0x20\n      add\n      mload(0x40)\n      swap1\n      dup2\n      add\n      0x40\n      mstore\n      dup1\n      swap3\n      swap2\n      swap1\n      dup2\n      dup2\n      mstore\n      0x20\n      add\n      dup3\n      dup1\n      sload\n      0x01\n      dup2\n      0x01\n      and\n      iszero\n      0x0100\n      mul\n      sub\n      and\n      0x02\n      swap1\n      div\n      dup1\n      iszero\n      tag_22\n      jumpi\n      dup1\n      0x1f\n      lt\n      tag_23\n      jumpi\n      0x0100\n      dup1\n      dup4\n      sload\n      div\n      mul\n      dup4\n      mstore\n      swap2\n      0x20\n      add\n      swap2\n      jump(tag_22)\n    tag_23:\n      dup3\n      add\n      swap2\n      swap1\n      0x00\n      mstore\n      keccak256(0x00, 0x20)\n      swap1\n    tag_24:\n      dup2\n      sload\n      dup2\n      mstore\n      swap1\n      0x01\n      add\n      swap1\n      0x20\n      add\n      dup1\n      dup4\n      gt\n      tag_24\n      jumpi\n      dup3\n      swap1\n      sub\n      0x1f\n      and\n      dup3\n      add\n      swap2\n    tag_22:\n      pop\n      pop\n      pop\n      pop\n      pop\n      swap1\n      pop\n        /* \"contracts/Lab5.sol\":526:626  function getCourseId() public view returns(string memory) {\r... */\n      swap1\n      jump\t// out\n        /* \"contracts/Lab5.sol\":634:730  function getCourse() public view returns (Course memory) {\r... */\n    tag_12:\n        /* \"contracts/Lab5.sol\":676:689  Course memory */\n      tag_25\n      tag_26\n      jump\t// in\n    tag_25:\n        /* \"contracts/Lab5.sol\":709:722  currentCourse */\n      0x00\n        /* \"contracts/Lab5.sol\":702:722  return currentCourse */\n      mload(0x40)\n      dup1\n      0x60\n      add\n      0x40\n      mstore\n      swap1\n      dup2\n      0x00\n      dup3\n      add\n      dup1\n      sload\n      0x01\n      dup2\n      0x01\n      and\n      iszero\n      0x0100\n      mul\n      sub\n      and\n      0x02\n      swap1\n      div\n      dup1\n      0x1f\n      add\n      0x20\n      dup1\n      swap2\n      div\n      mul\n      0x20\n      add\n      mload(0x40)\n      swap1\n      dup2\n      add\n      0x40\n      mstore\n      dup1\n      swap3\n      swap2\n      swap1\n      dup2\n      dup2\n      mstore\n      0x20\n      add\n      dup3\n      dup1\n      sload\n      0x01\n      dup2\n      0x01\n      and\n      iszero\n      0x0100\n      mul\n      sub\n      and\n      0x02\n      swap1\n      div\n      dup1\n      iszero\n      tag_28\n      jumpi\n      dup1\n      0x1f\n      lt\n      tag_29\n      jumpi\n      0x0100\n      dup1\n      dup4\n      sload\n      div\n      mul\n      dup4\n      mstore\n      swap2\n      0x20\n      add\n      swap2\n      jump(tag_28)\n    tag_29:\n      dup3\n      add\n      swap2\n      swap1\n      0x00\n      mstore\n      keccak256(0x00, 0x20)\n      swap1\n    tag_30:\n      dup2\n      sload\n      dup2\n      mstore\n      swap1\n      0x01\n      add\n      swap1\n      0x20\n      add\n      dup1\n      dup4\n      gt\n      tag_30\n      jumpi\n      dup3\n      swap1\n      sub\n      0x1f\n      and\n      dup3\n      add\n      swap2\n    tag_28:\n      pop\n      pop\n      pop\n      pop\n      pop\n      dup2\n      mstore\n      0x20\n      add\n      0x01\n      dup3\n      add\n      dup1\n      sload\n      0x01\n      dup2\n      0x01\n      and\n      iszero\n      0x0100\n      mul\n      sub\n      and\n      0x02\n      swap1\n      div\n      dup1\n      0x1f\n      add\n      0x20\n      dup1\n      swap2\n      div\n      mul\n      0x20\n      add\n      mload(0x40)\n      swap1\n      dup2\n      add\n      0x40\n      mstore\n      dup1\n      swap3\n      swap2\n      swap1\n      dup2\n      dup2\n      mstore\n      0x20\n      add\n      dup3\n      dup1\n      sload\n      0x01\n      dup2\n      0x01\n      and\n      iszero\n      0x0100\n      mul\n      sub\n      and\n      0x02\n      swap1\n      div\n      dup1\n      iszero\n      tag_31\n      jumpi\n      dup1\n      0x1f\n      lt\n      tag_32\n      jumpi\n      0x0100\n      dup1\n      dup4\n      sload\n      div\n      mul\n      dup4\n      mstore\n      swap2\n      0x20\n      add\n      swap2\n      jump(tag_31)\n    tag_32:\n      dup3\n      add\n      swap2\n      swap1\n      0x00\n      mstore\n      keccak256(0x00, 0x20)\n      swap1\n    tag_33:\n      dup2\n      sload\n      dup2\n      mstore\n      swap1\n      0x01\n      add\n      swap1\n      0x20\n      add\n      dup1\n      dup4\n      gt\n      tag_33\n      jumpi\n      dup3\n      swap1\n      sub\n      0x1f\n      and\n      dup3\n      add\n      swap2\n    tag_31:\n      pop\n      pop\n      pop\n      pop\n      pop\n      dup2\n      mstore\n      0x20\n      add\n      0x02\n      dup3\n      add\n      sload\n      dup2\n      mstore\n      pop\n      pop\n      swap1\n      pop\n        /* \"contracts/Lab5.sol\":634:730  function getCourse() public view returns (Course memory) {\r... */\n      swap1\n      jump\t// out\n        /* \"contracts/Lab5.sol\":243:345  function setDefaultCourse() public {\r... */\n    tag_16:\n        /* \"contracts/Lab5.sol\":305:337  Course(\"POOP\", \"Python OCP\", 35) */\n      mload(0x40)\n      dup1\n      0x60\n      add\n      0x40\n      mstore\n      dup1\n      mload(0x40)\n      dup1\n      0x40\n      add\n      0x40\n      mstore\n      dup1\n      0x04\n      dup2\n      mstore\n      0x20\n      add\n      0x504f4f5000000000000000000000000000000000000000000000000000000000\n      dup2\n      mstore\n      pop\n      dup2\n      mstore\n      0x20\n      add\n      mload(0x40)\n      dup1\n      0x40\n      add\n      0x40\n      mstore\n      dup1\n      0x0a\n      dup2\n      mstore\n      0x20\n      add\n      0x507974686f6e204f435000000000000000000000000000000000000000000000\n      dup2\n      mstore\n      pop\n      dup2\n      mstore\n      0x20\n      add\n        /* \"contracts/Lab5.sol\":334:336  35 */\n      0x23\n        /* \"contracts/Lab5.sol\":305:337  Course(\"POOP\", \"Python OCP\", 35) */\n      dup2\n      mstore\n      pop\n        /* \"contracts/Lab5.sol\":289:302  currentCourse */\n      0x00\n        /* \"contracts/Lab5.sol\":289:337  currentCourse = Course(\"POOP\", \"Python OCP\", 35) */\n      dup1\n      dup3\n      add\n      mload\n      dup2\n      0x00\n      add\n      swap1\n      dup1\n      mload\n      swap1\n      0x20\n      add\n      swap1\n      tag_35\n      swap3\n      swap2\n      swap1\n      tag_36\n      jump\t// in\n    tag_35:\n      pop\n      0x20\n      dup3\n      add\n      mload\n      dup2\n      0x01\n      add\n      swap1\n      dup1\n      mload\n      swap1\n      0x20\n      add\n      swap1\n      tag_37\n      swap3\n      swap2\n      swap1\n      tag_36\n      jump\t// in\n    tag_37:\n      pop\n      0x40\n      dup3\n      add\n      mload\n      dup2\n      0x02\n      add\n      sstore\n      swap1\n      pop\n      pop\n        /* \"contracts/Lab5.sol\":243:345  function setDefaultCourse() public {\r... */\n      jump\t// out\n        /* \"contracts/Lab5.sol\":354:518  function setNewCourse(string memory newId, string memory newName, uint256 newDuration) public {\r... */\n    tag_20:\n        /* \"contracts/Lab5.sol\":475:510  Course(newId, newName, newDuration) */\n      mload(0x40)\n      dup1\n      0x60\n      add\n      0x40\n      mstore\n      dup1\n        /* \"contracts/Lab5.sol\":482:487  newId */\n      dup5\n        /* \"contracts/Lab5.sol\":475:510  Course(newId, newName, newDuration) */\n      dup2\n      mstore\n      0x20\n      add\n        /* \"contracts/Lab5.sol\":489:496  newName */\n      dup4\n        /* \"contracts/Lab5.sol\":475:510  Course(newId, newName, newDuration) */\n      dup2\n      mstore\n      0x20\n      add\n        /* \"contracts/Lab5.sol\":498:509  newDuration */\n      dup3\n        /* \"contracts/Lab5.sol\":475:510  Course(newId, newName, newDuration) */\n      dup2\n      mstore\n      pop\n        /* \"contracts/Lab5.sol\":459:472  currentCourse */\n      0x00\n        /* \"contracts/Lab5.sol\":459:510  currentCourse = Course(newId, newName, newDuration) */\n      dup1\n      dup3\n      add\n      mload\n      dup2\n      0x00\n      add\n      swap1\n      dup1\n      mload\n      swap1\n      0x20\n      add\n      swap1\n      tag_39\n      swap3\n      swap2\n      swap1\n      tag_36\n      jump\t// in\n    tag_39:\n      pop\n      0x20\n      dup3\n      add\n      mload\n      dup2\n      0x01\n      add\n      swap1\n      dup1\n      mload\n      swap1\n      0x20\n      add\n      swap1\n      tag_40\n      swap3\n      swap2\n      swap1\n      tag_36\n      jump\t// in\n    tag_40:\n      pop\n      0x40\n      dup3\n      add\n      mload\n      dup2\n      0x02\n      add\n      sstore\n      swap1\n      pop\n      pop\n        /* \"contracts/Lab5.sol\":354:518  function setNewCourse(string memory newId, string memory newName, uint256 newDuration) public {\r... */\n      pop\n      pop\n      pop\n      jump\t// out\n    tag_26:\n      mload(0x40)\n      dup1\n      0x60\n      add\n      0x40\n      mstore\n      dup1\n      0x60\n      dup2\n      mstore\n      0x20\n      add\n      0x60\n      dup2\n      mstore\n      0x20\n      add\n      0x00\n      dup2\n      mstore\n      pop\n      swap1\n      jump\t// out\n    tag_36:\n      dup3\n      dup1\n      sload\n      0x01\n      dup2\n      0x01\n      and\n      iszero\n      0x0100\n      mul\n      sub\n      and\n      0x02\n      swap1\n      div\n      swap1\n      0x00\n      mstore\n      keccak256(0x00, 0x20)\n      swap1\n      0x1f\n      add\n      0x20\n      swap1\n      div\n      dup2\n      add\n      swap3\n      dup3\n      tag_42\n      jumpi\n      0x00\n      dup6\n      sstore\n      jump(tag_41)\n    tag_42:\n      dup3\n      0x1f\n      lt\n      tag_43\n      jumpi\n      dup1\n      mload\n      not(0xff)\n      and\n      dup4\n      dup1\n      add\n      or\n      dup6\n      sstore\n      jump(tag_41)\n    tag_43:\n      dup3\n      dup1\n      add\n      0x01\n      add\n      dup6\n      sstore\n      dup3\n      iszero\n      tag_41\n      jumpi\n      swap2\n      dup3\n      add\n    tag_44:\n      dup3\n      dup2\n      gt\n      iszero\n      tag_45\n      jumpi\n      dup3\n      mload\n      dup3\n      sstore\n      swap2\n      0x20\n      add\n      swap2\n      swap1\n      0x01\n      add\n      swap1\n      jump(tag_44)\n    tag_45:\n    tag_41:\n      pop\n      swap1\n      pop\n      tag_46\n      swap2\n      swap1\n      tag_47\n      jump\t// in\n    tag_46:\n      pop\n      swap1\n      jump\t// out\n    tag_47:\n    tag_48:\n      dup1\n      dup3\n      gt\n      iszero\n      tag_49\n      jumpi\n      0x00\n      dup2\n      0x00\n      swap1\n      sstore\n      pop\n      0x01\n      add\n      jump(tag_48)\n    tag_49:\n      pop\n      swap1\n      jump\t// out\n        /* \"#utility.yul\":7:351   */\n    tag_51:\n      0x00\n        /* \"#utility.yul\":110:175   */\n      tag_53\n        /* \"#utility.yul\":125:174   */\n      tag_54\n        /* \"#utility.yul\":167:173   */\n      dup5\n        /* \"#utility.yul\":125:174   */\n      tag_55\n      jump\t// in\n    tag_54:\n        /* \"#utility.yul\":110:175   */\n      tag_56\n      jump\t// in\n    tag_53:\n        /* \"#utility.yul\":101:175   */\n      swap1\n      pop\n        /* \"#utility.yul\":198:204   */\n      dup3\n        /* \"#utility.yul\":191:196   */\n      dup2\n        /* \"#utility.yul\":184:205   */\n      mstore\n        /* \"#utility.yul\":236:240   */\n      0x20\n        /* \"#utility.yul\":229:234   */\n      dup2\n        /* \"#utility.yul\":225:241   */\n      add\n        /* \"#utility.yul\":274:277   */\n      dup5\n        /* \"#utility.yul\":265:271   */\n      dup5\n        /* \"#utility.yul\":260:263   */\n      dup5\n        /* \"#utility.yul\":256:272   */\n      add\n        /* \"#utility.yul\":253:278   */\n      gt\n        /* \"#utility.yul\":250:252   */\n      iszero\n      tag_57\n      jumpi\n        /* \"#utility.yul\":291:292   */\n      0x00\n        /* \"#utility.yul\":288:289   */\n      dup1\n        /* \"#utility.yul\":281:293   */\n      revert\n        /* \"#utility.yul\":250:252   */\n    tag_57:\n        /* \"#utility.yul\":304:345   */\n      tag_58\n        /* \"#utility.yul\":338:344   */\n      dup5\n        /* \"#utility.yul\":333:336   */\n      dup3\n        /* \"#utility.yul\":328:331   */\n      dup6\n        /* \"#utility.yul\":304:345   */\n      tag_59\n      jump\t// in\n    tag_58:\n        /* \"#utility.yul\":91:351   */\n      pop\n      swap4\n      swap3\n      pop\n      pop\n      pop\n      jump\t// out\n        /* \"#utility.yul\":371:644   */\n    tag_60:\n      0x00\n        /* \"#utility.yul\":476:479   */\n      dup3\n        /* \"#utility.yul\":469:473   */\n      0x1f\n        /* \"#utility.yul\":461:467   */\n      dup4\n        /* \"#utility.yul\":457:474   */\n      add\n        /* \"#utility.yul\":453:480   */\n      slt\n        /* \"#utility.yul\":443:445   */\n      tag_62\n      jumpi\n        /* \"#utility.yul\":494:495   */\n      0x00\n        /* \"#utility.yul\":491:492   */\n      dup1\n        /* \"#utility.yul\":484:496   */\n      revert\n        /* \"#utility.yul\":443:445   */\n    tag_62:\n        /* \"#utility.yul\":534:540   */\n      dup2\n        /* \"#utility.yul\":521:541   */\n      calldataload\n        /* \"#utility.yul\":559:638   */\n      tag_63\n        /* \"#utility.yul\":634:637   */\n      dup5\n        /* \"#utility.yul\":626:632   */\n      dup3\n        /* \"#utility.yul\":619:623   */\n      0x20\n        /* \"#utility.yul\":611:617   */\n      dup7\n        /* \"#utility.yul\":607:624   */\n      add\n        /* \"#utility.yul\":559:638   */\n      tag_51\n      jump\t// in\n    tag_63:\n        /* \"#utility.yul\":550:638   */\n      swap2\n      pop\n        /* \"#utility.yul\":433:644   */\n      pop\n      swap3\n      swap2\n      pop\n      pop\n      jump\t// out\n        /* \"#utility.yul\":650:789   */\n    tag_64:\n      0x00\n        /* \"#utility.yul\":734:740   */\n      dup2\n        /* \"#utility.yul\":721:741   */\n      calldataload\n        /* \"#utility.yul\":712:741   */\n      swap1\n      pop\n        /* \"#utility.yul\":750:783   */\n      tag_66\n        /* \"#utility.yul\":777:782   */\n      dup2\n        /* \"#utility.yul\":750:783   */\n      tag_67\n      jump\t// in\n    tag_66:\n        /* \"#utility.yul\":702:789   */\n      swap3\n      swap2\n      pop\n      pop\n      jump\t// out\n        /* \"#utility.yul\":795:1573   */\n    tag_19:\n      0x00\n      dup1\n      0x00\n        /* \"#utility.yul\":957:959   */\n      0x60\n        /* \"#utility.yul\":945:954   */\n      dup5\n        /* \"#utility.yul\":936:943   */\n      dup7\n        /* \"#utility.yul\":932:955   */\n      sub\n        /* \"#utility.yul\":928:960   */\n      slt\n        /* \"#utility.yul\":925:927   */\n      iszero\n      tag_69\n      jumpi\n        /* \"#utility.yul\":973:974   */\n      0x00\n        /* \"#utility.yul\":970:971   */\n      dup1\n        /* \"#utility.yul\":963:975   */\n      revert\n        /* \"#utility.yul\":925:927   */\n    tag_69:\n        /* \"#utility.yul\":1044:1045   */\n      0x00\n        /* \"#utility.yul\":1033:1042   */\n      dup5\n        /* \"#utility.yul\":1029:1046   */\n      add\n        /* \"#utility.yul\":1016:1047   */\n      calldataload\n        /* \"#utility.yul\":1074:1092   */\n      0xffffffffffffffff\n        /* \"#utility.yul\":1066:1072   */\n      dup2\n        /* \"#utility.yul\":1063:1093   */\n      gt\n        /* \"#utility.yul\":1060:1062   */\n      iszero\n      tag_70\n      jumpi\n        /* \"#utility.yul\":1106:1107   */\n      0x00\n        /* \"#utility.yul\":1103:1104   */\n      dup1\n        /* \"#utility.yul\":1096:1108   */\n      revert\n        /* \"#utility.yul\":1060:1062   */\n    tag_70:\n        /* \"#utility.yul\":1134:1197   */\n      tag_71\n        /* \"#utility.yul\":1189:1196   */\n      dup7\n        /* \"#utility.yul\":1180:1186   */\n      dup3\n        /* \"#utility.yul\":1169:1178   */\n      dup8\n        /* \"#utility.yul\":1165:1187   */\n      add\n        /* \"#utility.yul\":1134:1197   */\n      tag_60\n      jump\t// in\n    tag_71:\n        /* \"#utility.yul\":1124:1197   */\n      swap4\n      pop\n        /* \"#utility.yul\":987:1207   */\n      pop\n        /* \"#utility.yul\":1274:1276   */\n      0x20\n        /* \"#utility.yul\":1263:1272   */\n      dup5\n        /* \"#utility.yul\":1259:1277   */\n      add\n        /* \"#utility.yul\":1246:1278   */\n      calldataload\n        /* \"#utility.yul\":1305:1323   */\n      0xffffffffffffffff\n        /* \"#utility.yul\":1297:1303   */\n      dup2\n        /* \"#utility.yul\":1294:1324   */\n      gt\n        /* \"#utility.yul\":1291:1293   */\n      iszero\n      tag_72\n      jumpi\n        /* \"#utility.yul\":1337:1338   */\n      0x00\n        /* \"#utility.yul\":1334:1335   */\n      dup1\n        /* \"#utility.yul\":1327:1339   */\n      revert\n        /* \"#utility.yul\":1291:1293   */\n    tag_72:\n        /* \"#utility.yul\":1365:1428   */\n      tag_73\n        /* \"#utility.yul\":1420:1427   */\n      dup7\n        /* \"#utility.yul\":1411:1417   */\n      dup3\n        /* \"#utility.yul\":1400:1409   */\n      dup8\n        /* \"#utility.yul\":1396:1418   */\n      add\n        /* \"#utility.yul\":1365:1428   */\n      tag_60\n      jump\t// in\n    tag_73:\n        /* \"#utility.yul\":1355:1428   */\n      swap3\n      pop\n        /* \"#utility.yul\":1217:1438   */\n      pop\n        /* \"#utility.yul\":1477:1479   */\n      0x40\n        /* \"#utility.yul\":1503:1556   */\n      tag_74\n        /* \"#utility.yul\":1548:1555   */\n      dup7\n        /* \"#utility.yul\":1539:1545   */\n      dup3\n        /* \"#utility.yul\":1528:1537   */\n      dup8\n        /* \"#utility.yul\":1524:1546   */\n      add\n        /* \"#utility.yul\":1503:1556   */\n      tag_64\n      jump\t// in\n    tag_74:\n        /* \"#utility.yul\":1493:1556   */\n      swap2\n      pop\n        /* \"#utility.yul\":1448:1566   */\n      pop\n        /* \"#utility.yul\":915:1573   */\n      swap3\n      pop\n      swap3\n      pop\n      swap3\n      jump\t// out\n        /* \"#utility.yul\":1579:1923   */\n    tag_75:\n      0x00\n        /* \"#utility.yul\":1685:1724   */\n      tag_77\n        /* \"#utility.yul\":1718:1723   */\n      dup3\n        /* \"#utility.yul\":1685:1724   */\n      tag_78\n      jump\t// in\n    tag_77:\n        /* \"#utility.yul\":1740:1801   */\n      tag_79\n        /* \"#utility.yul\":1794:1800   */\n      dup2\n        /* \"#utility.yul\":1789:1792   */\n      dup6\n        /* \"#utility.yul\":1740:1801   */\n      tag_80\n      jump\t// in\n    tag_79:\n        /* \"#utility.yul\":1733:1801   */\n      swap4\n      pop\n        /* \"#utility.yul\":1810:1862   */\n      tag_81\n        /* \"#utility.yul\":1855:1861   */\n      dup2\n        /* \"#utility.yul\":1850:1853   */\n      dup6\n        /* \"#utility.yul\":1843:1847   */\n      0x20\n        /* \"#utility.yul\":1836:1841   */\n      dup7\n        /* \"#utility.yul\":1832:1848   */\n      add\n        /* \"#utility.yul\":1810:1862   */\n      tag_82\n      jump\t// in\n    tag_81:\n        /* \"#utility.yul\":1887:1916   */\n      tag_83\n        /* \"#utility.yul\":1909:1915   */\n      dup2\n        /* \"#utility.yul\":1887:1916   */\n      tag_84\n      jump\t// in\n    tag_83:\n        /* \"#utility.yul\":1882:1885   */\n      dup5\n        /* \"#utility.yul\":1878:1917   */\n      add\n        /* \"#utility.yul\":1871:1917   */\n      swap2\n      pop\n        /* \"#utility.yul\":1661:1923   */\n      pop\n      swap3\n      swap2\n      pop\n      pop\n      jump\t// out\n        /* \"#utility.yul\":1929:2293   */\n    tag_85:\n      0x00\n        /* \"#utility.yul\":2045:2084   */\n      tag_87\n        /* \"#utility.yul\":2078:2083   */\n      dup3\n        /* \"#utility.yul\":2045:2084   */\n      tag_78\n      jump\t// in\n    tag_87:\n        /* \"#utility.yul\":2100:2171   */\n      tag_88\n        /* \"#utility.yul\":2164:2170   */\n      dup2\n        /* \"#utility.yul\":2159:2162   */\n      dup6\n        /* \"#utility.yul\":2100:2171   */\n      tag_89\n      jump\t// in\n    tag_88:\n        /* \"#utility.yul\":2093:2171   */\n      swap4\n      pop\n        /* \"#utility.yul\":2180:2232   */\n      tag_90\n        /* \"#utility.yul\":2225:2231   */\n      dup2\n        /* \"#utility.yul\":2220:2223   */\n      dup6\n        /* \"#utility.yul\":2213:2217   */\n      0x20\n        /* \"#utility.yul\":2206:2211   */\n      dup7\n        /* \"#utility.yul\":2202:2218   */\n      add\n        /* \"#utility.yul\":2180:2232   */\n      tag_82\n      jump\t// in\n    tag_90:\n        /* \"#utility.yul\":2257:2286   */\n      tag_91\n        /* \"#utility.yul\":2279:2285   */\n      dup2\n        /* \"#utility.yul\":2257:2286   */\n      tag_84\n      jump\t// in\n    tag_91:\n        /* \"#utility.yul\":2252:2255   */\n      dup5\n        /* \"#utility.yul\":2248:2287   */\n      add\n        /* \"#utility.yul\":2241:2287   */\n      swap2\n      pop\n        /* \"#utility.yul\":2021:2293   */\n      pop\n      swap3\n      swap2\n      pop\n      pop\n      jump\t// out\n        /* \"#utility.yul\":2349:3194   */\n    tag_92:\n      0x00\n        /* \"#utility.yul\":2496:2500   */\n      0x60\n        /* \"#utility.yul\":2491:2494   */\n      dup4\n        /* \"#utility.yul\":2487:2501   */\n      add\n        /* \"#utility.yul\":2581:2585   */\n      0x00\n        /* \"#utility.yul\":2574:2579   */\n      dup4\n        /* \"#utility.yul\":2570:2586   */\n      add\n        /* \"#utility.yul\":2564:2587   */\n      mload\n        /* \"#utility.yul\":2634:2637   */\n      dup5\n        /* \"#utility.yul\":2628:2632   */\n      dup3\n        /* \"#utility.yul\":2624:2638   */\n      sub\n        /* \"#utility.yul\":2617:2621   */\n      0x00\n        /* \"#utility.yul\":2612:2615   */\n      dup7\n        /* \"#utility.yul\":2608:2622   */\n      add\n        /* \"#utility.yul\":2601:2639   */\n      mstore\n        /* \"#utility.yul\":2660:2733   */\n      tag_94\n        /* \"#utility.yul\":2728:2732   */\n      dup3\n        /* \"#utility.yul\":2714:2726   */\n      dup3\n        /* \"#utility.yul\":2660:2733   */\n      tag_75\n      jump\t// in\n    tag_94:\n        /* \"#utility.yul\":2652:2733   */\n      swap2\n      pop\n        /* \"#utility.yul\":2511:2744   */\n      pop\n        /* \"#utility.yul\":2826:2830   */\n      0x20\n        /* \"#utility.yul\":2819:2824   */\n      dup4\n        /* \"#utility.yul\":2815:2831   */\n      add\n        /* \"#utility.yul\":2809:2832   */\n      mload\n        /* \"#utility.yul\":2879:2882   */\n      dup5\n        /* \"#utility.yul\":2873:2877   */\n      dup3\n        /* \"#utility.yul\":2869:2883   */\n      sub\n        /* \"#utility.yul\":2862:2866   */\n      0x20\n        /* \"#utility.yul\":2857:2860   */\n      dup7\n        /* \"#utility.yul\":2853:2867   */\n      add\n        /* \"#utility.yul\":2846:2884   */\n      mstore\n        /* \"#utility.yul\":2905:2978   */\n      tag_95\n        /* \"#utility.yul\":2973:2977   */\n      dup3\n        /* \"#utility.yul\":2959:2971   */\n      dup3\n        /* \"#utility.yul\":2905:2978   */\n      tag_75\n      jump\t// in\n    tag_95:\n        /* \"#utility.yul\":2897:2978   */\n      swap2\n      pop\n        /* \"#utility.yul\":2754:2989   */\n      pop\n        /* \"#utility.yul\":3075:3079   */\n      0x40\n        /* \"#utility.yul\":3068:3073   */\n      dup4\n        /* \"#utility.yul\":3064:3080   */\n      add\n        /* \"#utility.yul\":3058:3081   */\n      mload\n        /* \"#utility.yul\":3094:3157   */\n      tag_96\n        /* \"#utility.yul\":3151:3155   */\n      0x40\n        /* \"#utility.yul\":3146:3149   */\n      dup7\n        /* \"#utility.yul\":3142:3156   */\n      add\n        /* \"#utility.yul\":3128:3140   */\n      dup3\n        /* \"#utility.yul\":3094:3157   */\n      tag_97\n      jump\t// in\n    tag_96:\n        /* \"#utility.yul\":2999:3167   */\n      pop\n        /* \"#utility.yul\":3184:3188   */\n      dup1\n        /* \"#utility.yul\":3177:3188   */\n      swap2\n      pop\n        /* \"#utility.yul\":2465:3194   */\n      pop\n      swap3\n      swap2\n      pop\n      pop\n      jump\t// out\n        /* \"#utility.yul\":3200:3308   */\n    tag_97:\n        /* \"#utility.yul\":3277:3301   */\n      tag_99\n        /* \"#utility.yul\":3295:3300   */\n      dup2\n        /* \"#utility.yul\":3277:3301   */\n      tag_100\n      jump\t// in\n    tag_99:\n        /* \"#utility.yul\":3272:3275   */\n      dup3\n        /* \"#utility.yul\":3265:3302   */\n      mstore\n        /* \"#utility.yul\":3255:3308   */\n      pop\n      pop\n      jump\t// out\n        /* \"#utility.yul\":3314:3627   */\n    tag_10:\n      0x00\n        /* \"#utility.yul\":3465:3467   */\n      0x20\n        /* \"#utility.yul\":3454:3463   */\n      dup3\n        /* \"#utility.yul\":3450:3468   */\n      add\n        /* \"#utility.yul\":3442:3468   */\n      swap1\n      pop\n        /* \"#utility.yul\":3514:3523   */\n      dup2\n        /* \"#utility.yul\":3508:3512   */\n      dup2\n        /* \"#utility.yul\":3504:3524   */\n      sub\n        /* \"#utility.yul\":3500:3501   */\n      0x00\n        /* \"#utility.yul\":3489:3498   */\n      dup4\n        /* \"#utility.yul\":3485:3502   */\n      add\n        /* \"#utility.yul\":3478:3525   */\n      mstore\n        /* \"#utility.yul\":3542:3620   */\n      tag_102\n        /* \"#utility.yul\":3615:3619   */\n      dup2\n        /* \"#utility.yul\":3606:3612   */\n      dup5\n        /* \"#utility.yul\":3542:3620   */\n      tag_85\n      jump\t// in\n    tag_102:\n        /* \"#utility.yul\":3534:3620   */\n      swap1\n      pop\n        /* \"#utility.yul\":3432:3627   */\n      swap3\n      swap2\n      pop\n      pop\n      jump\t// out\n        /* \"#utility.yul\":3633:3990   */\n    tag_14:\n      0x00\n        /* \"#utility.yul\":3806:3808   */\n      0x20\n        /* \"#utility.yul\":3795:3804   */\n      dup3\n        /* \"#utility.yul\":3791:3809   */\n      add\n        /* \"#utility.yul\":3783:3809   */\n      swap1\n      pop\n        /* \"#utility.yul\":3855:3864   */\n      dup2\n        /* \"#utility.yul\":3849:3853   */\n      dup2\n        /* \"#utility.yul\":3845:3865   */\n      sub\n        /* \"#utility.yul\":3841:3842   */\n      0x00\n        /* \"#utility.yul\":3830:3839   */\n      dup4\n        /* \"#utility.yul\":3826:3843   */\n      add\n        /* \"#utility.yul\":3819:3866   */\n      mstore\n        /* \"#utility.yul\":3883:3983   */\n      tag_104\n        /* \"#utility.yul\":3978:3982   */\n      dup2\n        /* \"#utility.yul\":3969:3975   */\n      dup5\n        /* \"#utility.yul\":3883:3983   */\n      tag_92\n      jump\t// in\n    tag_104:\n        /* \"#utility.yul\":3875:3983   */\n      swap1\n      pop\n        /* \"#utility.yul\":3773:3990   */\n      swap3\n      swap2\n      pop\n      pop\n      jump\t// out\n        /* \"#utility.yul\":3996:4274   */\n    tag_56:\n      0x00\n        /* \"#utility.yul\":4062:4064   */\n      0x40\n        /* \"#utility.yul\":4056:4065   */\n      mload\n        /* \"#utility.yul\":4046:4065   */\n      swap1\n      pop\n        /* \"#utility.yul\":4104:4108   */\n      dup2\n        /* \"#utility.yul\":4096:4102   */\n      dup2\n        /* \"#utility.yul\":4092:4109   */\n      add\n        /* \"#utility.yul\":4211:4217   */\n      dup2\n        /* \"#utility.yul\":4199:4209   */\n      dup2\n        /* \"#utility.yul\":4196:4218   */\n      lt\n        /* \"#utility.yul\":4175:4193   */\n      0xffffffffffffffff\n        /* \"#utility.yul\":4163:4173   */\n      dup3\n        /* \"#utility.yul\":4160:4194   */\n      gt\n        /* \"#utility.yul\":4157:4219   */\n      or\n        /* \"#utility.yul\":4154:4156   */\n      iszero\n      tag_106\n      jumpi\n        /* \"#utility.yul\":4222:4235   */\n      tag_107\n      tag_108\n      jump\t// in\n    tag_107:\n        /* \"#utility.yul\":4154:4156   */\n    tag_106:\n        /* \"#utility.yul\":4257:4267   */\n      dup1\n        /* \"#utility.yul\":4253:4255   */\n      0x40\n        /* \"#utility.yul\":4246:4268   */\n      mstore\n        /* \"#utility.yul\":4036:4274   */\n      pop\n      swap2\n      swap1\n      pop\n      jump\t// out\n        /* \"#utility.yul\":4280:4607   */\n    tag_55:\n      0x00\n        /* \"#utility.yul\":4432:4450   */\n      0xffffffffffffffff\n        /* \"#utility.yul\":4424:4430   */\n      dup3\n        /* \"#utility.yul\":4421:4451   */\n      gt\n        /* \"#utility.yul\":4418:4420   */\n      iszero\n      tag_110\n      jumpi\n        /* \"#utility.yul\":4454:4467   */\n      tag_111\n      tag_108\n      jump\t// in\n    tag_111:\n        /* \"#utility.yul\":4418:4420   */\n    tag_110:\n        /* \"#utility.yul\":4534:4538   */\n      0x1f\n        /* \"#utility.yul\":4530:4539   */\n      not\n        /* \"#utility.yul\":4523:4527   */\n      0x1f\n        /* \"#utility.yul\":4515:4521   */\n      dup4\n        /* \"#utility.yul\":4511:4528   */\n      add\n        /* \"#utility.yul\":4507:4540   */\n      and\n        /* \"#utility.yul\":4499:4540   */\n      swap1\n      pop\n        /* \"#utility.yul\":4595:4599   */\n      0x20\n        /* \"#utility.yul\":4589:4593   */\n      dup2\n        /* \"#utility.yul\":4585:4600   */\n      add\n        /* \"#utility.yul\":4577:4600   */\n      swap1\n      pop\n        /* \"#utility.yul\":4347:4607   */\n      swap2\n      swap1\n      pop\n      jump\t// out\n        /* \"#utility.yul\":4613:4712   */\n    tag_78:\n      0x00\n        /* \"#utility.yul\":4699:4704   */\n      dup2\n        /* \"#utility.yul\":4693:4705   */\n      mload\n        /* \"#utility.yul\":4683:4705   */\n      swap1\n      pop\n        /* \"#utility.yul\":4672:4712   */\n      swap2\n      swap1\n      pop\n      jump\t// out\n        /* \"#utility.yul\":4718:4877   */\n    tag_80:\n      0x00\n        /* \"#utility.yul\":4826:4832   */\n      dup3\n        /* \"#utility.yul\":4821:4824   */\n      dup3\n        /* \"#utility.yul\":4814:4833   */\n      mstore\n        /* \"#utility.yul\":4866:4870   */\n      0x20\n        /* \"#utility.yul\":4861:4864   */\n      dup3\n        /* \"#utility.yul\":4857:4871   */\n      add\n        /* \"#utility.yul\":4842:4871   */\n      swap1\n      pop\n        /* \"#utility.yul\":4804:4877   */\n      swap3\n      swap2\n      pop\n      pop\n      jump\t// out\n        /* \"#utility.yul\":4883:5052   */\n    tag_89:\n      0x00\n        /* \"#utility.yul\":5001:5007   */\n      dup3\n        /* \"#utility.yul\":4996:4999   */\n      dup3\n        /* \"#utility.yul\":4989:5008   */\n      mstore\n        /* \"#utility.yul\":5041:5045   */\n      0x20\n        /* \"#utility.yul\":5036:5039   */\n      dup3\n        /* \"#utility.yul\":5032:5046   */\n      add\n        /* \"#utility.yul\":5017:5046   */\n      swap1\n      pop\n        /* \"#utility.yul\":4979:5052   */\n      swap3\n      swap2\n      pop\n      pop\n      jump\t// out\n        /* \"#utility.yul\":5058:5135   */\n    tag_100:\n      0x00\n        /* \"#utility.yul\":5124:5129   */\n      dup2\n        /* \"#utility.yul\":5113:5129   */\n      swap1\n      pop\n        /* \"#utility.yul\":5103:5135   */\n      swap2\n      swap1\n      pop\n      jump\t// out\n        /* \"#utility.yul\":5141:5295   */\n    tag_59:\n        /* \"#utility.yul\":5225:5231   */\n      dup3\n        /* \"#utility.yul\":5220:5223   */\n      dup2\n        /* \"#utility.yul\":5215:5218   */\n      dup4\n        /* \"#utility.yul\":5202:5232   */\n      calldatacopy\n        /* \"#utility.yul\":5287:5288   */\n      0x00\n        /* \"#utility.yul\":5278:5284   */\n      dup4\n        /* \"#utility.yul\":5273:5276   */\n      dup4\n        /* \"#utility.yul\":5269:5285   */\n      add\n        /* \"#utility.yul\":5262:5289   */\n      mstore\n        /* \"#utility.yul\":5192:5295   */\n      pop\n      pop\n      pop\n      jump\t// out\n        /* \"#utility.yul\":5301:5608   */\n    tag_82:\n        /* \"#utility.yul\":5369:5370   */\n      0x00\n        /* \"#utility.yul\":5379:5492   */\n    tag_118:\n        /* \"#utility.yul\":5393:5399   */\n      dup4\n        /* \"#utility.yul\":5390:5391   */\n      dup2\n        /* \"#utility.yul\":5387:5400   */\n      lt\n        /* \"#utility.yul\":5379:5492   */\n      iszero\n      tag_120\n      jumpi\n        /* \"#utility.yul\":5478:5479   */\n      dup1\n        /* \"#utility.yul\":5473:5476   */\n      dup3\n        /* \"#utility.yul\":5469:5480   */\n      add\n        /* \"#utility.yul\":5463:5481   */\n      mload\n        /* \"#utility.yul\":5459:5460   */\n      dup2\n        /* \"#utility.yul\":5454:5457   */\n      dup5\n        /* \"#utility.yul\":5450:5461   */\n      add\n        /* \"#utility.yul\":5443:5482   */\n      mstore\n        /* \"#utility.yul\":5415:5417   */\n      0x20\n        /* \"#utility.yul\":5412:5413   */\n      dup2\n        /* \"#utility.yul\":5408:5418   */\n      add\n        /* \"#utility.yul\":5403:5418   */\n      swap1\n      pop\n        /* \"#utility.yul\":5379:5492   */\n      jump(tag_118)\n    tag_120:\n        /* \"#utility.yul\":5510:5516   */\n      dup4\n        /* \"#utility.yul\":5507:5508   */\n      dup2\n        /* \"#utility.yul\":5504:5517   */\n      gt\n        /* \"#utility.yul\":5501:5503   */\n      iszero\n      tag_121\n      jumpi\n        /* \"#utility.yul\":5590:5591   */\n      0x00\n        /* \"#utility.yul\":5581:5587   */\n      dup5\n        /* \"#utility.yul\":5576:5579   */\n      dup5\n        /* \"#utility.yul\":5572:5588   */\n      add\n        /* \"#utility.yul\":5565:5592   */\n      mstore\n        /* \"#utility.yul\":5501:5503   */\n    tag_121:\n        /* \"#utility.yul\":5350:5608   */\n      pop\n      pop\n      pop\n      pop\n      jump\t// out\n        /* \"#utility.yul\":5614:5662   */\n    tag_108:\n        /* \"#utility.yul\":5647:5656   */\n      invalid\n        /* \"#utility.yul\":5668:5770   */\n    tag_84:\n      0x00\n        /* \"#utility.yul\":5760:5762   */\n      0x1f\n        /* \"#utility.yul\":5756:5763   */\n      not\n        /* \"#utility.yul\":5751:5753   */\n      0x1f\n        /* \"#utility.yul\":5744:5749   */\n      dup4\n        /* \"#utility.yul\":5740:5754   */\n      add\n        /* \"#utility.yul\":5736:5764   */\n      and\n        /* \"#utility.yul\":5726:5764   */\n      swap1\n      pop\n        /* \"#utility.yul\":5716:5770   */\n      swap2\n      swap1\n      pop\n      jump\t// out\n        /* \"#utility.yul\":5776:5898   */\n    tag_67:\n        /* \"#utility.yul\":5849:5873   */\n      tag_125\n        /* \"#utility.yul\":5867:5872   */\n      dup2\n        /* \"#utility.yul\":5849:5873   */\n      tag_100\n      jump\t// in\n    tag_125:\n        /* \"#utility.yul\":5842:5847   */\n      dup2\n        /* \"#utility.yul\":5839:5874   */\n      eq\n        /* \"#utility.yul\":5829:5831   */\n      tag_126\n      jumpi\n        /* \"#utility.yul\":5888:5889   */\n      0x00\n        /* \"#utility.yul\":5885:5886   */\n      dup1\n        /* \"#utility.yul\":5878:5890   */\n      revert\n        /* \"#utility.yul\":5829:5831   */\n    tag_126:\n        /* \"#utility.yul\":5819:5898   */\n      pop\n      jump\t// out\n\n    auxdata: 0xa264697066735822122039a0e4bae81284f43f2ed8cb4c5ba8260c1632dcb0def6e5c45f5aee97f0441064736f6c63430007060033\n}\n",
				"bytecode": {
					"linkReferences": {},
					"object": "608060405234801561001057600080fd5b50610815806100206000396000f3fe608060405234801561001057600080fd5b506004361061004c5760003560e01c806350808e8b146100515780638c14acd51461006f578063b87d81ae1461008d578063fb85742a14610097575b600080fd5b6100596100b3565b6040516100669190610697565b60405180910390f35b610077610157565b60405161008491906106b9565b60405180910390f35b6100956102bf565b005b6100b160048036038101906100ac9190610540565b61038f565b005b6060600080018054600181600116156101000203166002900480601f01602080910402602001604051908101604052809291908181526020018280546001816001161561010002031660029004801561014d5780601f106101225761010080835404028352916020019161014d565b820191906000526020600020905b81548152906001019060200180831161013057829003601f168201915b5050505050905090565b61015f6103f7565b6000604051806060016040529081600082018054600181600116156101000203166002900480601f0160208091040260200160405190810160405280929190818152602001828054600181600116156101000203166002900480156102055780601f106101da57610100808354040283529160200191610205565b820191906000526020600020905b8154815290600101906020018083116101e857829003601f168201915b50505050508152602001600182018054600181600116156101000203166002900480601f0160208091040260200160405190810160405280929190818152602001828054600181600116156101000203166002900480156102a75780601f1061027c576101008083540402835291602001916102a7565b820191906000526020600020905b81548152906001019060200180831161028a57829003601f168201915b50505050508152602001600282015481525050905090565b60405180606001604052806040518060400160405280600481526020017f504f4f500000000000000000000000000000000000000000000000000000000081525081526020016040518060400160405280600a81526020017f507974686f6e204f43500000000000000000000000000000000000000000000081525081526020016023815250600080820151816000019080519060200190610362929190610418565b50602082015181600101908051906020019061037f929190610418565b5060408201518160020155905050565b6040518060600160405280848152602001838152602001828152506000808201518160000190805190602001906103c7929190610418565b5060208201518160010190805190602001906103e4929190610418565b5060408201518160020155905050505050565b60405180606001604052806060815260200160608152602001600081525090565b828054600181600116156101000203166002900490600052602060002090601f01602090048101928261044e5760008555610495565b82601f1061046757805160ff1916838001178555610495565b82800160010185558215610495579182015b82811115610494578251825591602001919060010190610479565b5b5090506104a291906104a6565b5090565b5b808211156104bf5760008160009055506001016104a7565b5090565b60006104d66104d18461070c565b6106db565b9050828152602081018484840111156104ee57600080fd5b6104f9848285610773565b509392505050565b600082601f83011261051257600080fd5b81356105228482602086016104c3565b91505092915050565b60008135905061053a816107c8565b92915050565b60008060006060848603121561055557600080fd5b600084013567ffffffffffffffff81111561056f57600080fd5b61057b86828701610501565b935050602084013567ffffffffffffffff81111561059857600080fd5b6105a486828701610501565b92505060406105b58682870161052b565b9150509250925092565b60006105ca8261073c565b6105d48185610747565b93506105e4818560208601610782565b6105ed816107b7565b840191505092915050565b60006106038261073c565b61060d8185610758565b935061061d818560208601610782565b610626816107b7565b840191505092915050565b6000606083016000830151848203600086015261064e82826105bf565b9150506020830151848203602086015261066882826105bf565b915050604083015161067d6040860182610688565b508091505092915050565b61069181610769565b82525050565b600060208201905081810360008301526106b181846105f8565b905092915050565b600060208201905081810360008301526106d38184610631565b905092915050565b6000604051905081810181811067ffffffffffffffff82111715610702576107016107b5565b5b8060405250919050565b600067ffffffffffffffff821115610727576107266107b5565b5b601f19601f8301169050602081019050919050565b600081519050919050565b600082825260208201905092915050565b600082825260208201905092915050565b6000819050919050565b82818337600083830152505050565b60005b838110156107a0578082015181840152602081019050610785565b838111156107af576000848401525b50505050565bfe5b6000601f19601f8301169050919050565b6107d181610769565b81146107dc57600080fd5b5056fea264697066735822122039a0e4bae81284f43f2ed8cb4c5ba8260c1632dcb0def6e5c45f5aee97f0441064736f6c63430007060033",
					"opcodes": "PUSH1 0x80 PUSH1 0x40 MSTORE CALLVALUE DUP1 ISZERO PUSH2 0x10 JUMPI PUSH1 0x0 DUP1 REVERT JUMPDEST POP PUSH2 0x815 DUP1 PUSH2 0x20 PUSH1 0x0 CODECOPY PUSH1 0x0 RETURN INVALID PUSH1 0x80 PUSH1 0x40 MSTORE CALLVALUE DUP1 ISZERO PUSH2 0x10 JUMPI PUSH1 0x0 DUP1 REVERT JUMPDEST POP PUSH1 0x4 CALLDATASIZE LT PUSH2 0x4C JUMPI PUSH1 0x0 CALLDATALOAD PUSH1 0xE0 SHR DUP1 PUSH4 0x50808E8B EQ PUSH2 0x51 JUMPI DUP1 PUSH4 0x8C14ACD5 EQ PUSH2 0x6F JUMPI DUP1 PUSH4 0xB87D81AE EQ PUSH2 0x8D JUMPI DUP1 PUSH4 0xFB85742A EQ PUSH2 0x97 JUMPI JUMPDEST PUSH1 0x0 DUP1 REVERT JUMPDEST PUSH2 0x59 PUSH2 0xB3 JUMP JUMPDEST PUSH1 0x40 MLOAD PUSH2 0x66 SWAP2 SWAP1 PUSH2 0x697 JUMP JUMPDEST PUSH1 0x40 MLOAD DUP1 SWAP2 SUB SWAP1 RETURN JUMPDEST PUSH2 0x77 PUSH2 0x157 JUMP JUMPDEST PUSH1 0x40 MLOAD PUSH2 0x84 SWAP2 SWAP1 PUSH2 0x6B9 JUMP JUMPDEST PUSH1 0x40 MLOAD DUP1 SWAP2 SUB SWAP1 RETURN JUMPDEST PUSH2 0x95 PUSH2 0x2BF JUMP JUMPDEST STOP JUMPDEST PUSH2 0xB1 PUSH1 0x4 DUP1 CALLDATASIZE SUB DUP2 ADD SWAP1 PUSH2 0xAC SWAP2 SWAP1 PUSH2 0x540 JUMP JUMPDEST PUSH2 0x38F JUMP JUMPDEST STOP JUMPDEST PUSH1 0x60 PUSH1 0x0 DUP1 ADD DUP1 SLOAD PUSH1 0x1 DUP2 PUSH1 0x1 AND ISZERO PUSH2 0x100 MUL SUB AND PUSH1 0x2 SWAP1 DIV DUP1 PUSH1 0x1F ADD PUSH1 0x20 DUP1 SWAP2 DIV MUL PUSH1 0x20 ADD PUSH1 0x40 MLOAD SWAP1 DUP2 ADD PUSH1 0x40 MSTORE DUP1 SWAP3 SWAP2 SWAP1 DUP2 DUP2 MSTORE PUSH1 0x20 ADD DUP3 DUP1 SLOAD PUSH1 0x1 DUP2 PUSH1 0x1 AND ISZERO PUSH2 0x100 MUL SUB AND PUSH1 0x2 SWAP1 DIV DUP1 ISZERO PUSH2 0x14D JUMPI DUP1 PUSH1 0x1F LT PUSH2 0x122 JUMPI PUSH2 0x100 DUP1 DUP4 SLOAD DIV MUL DUP4 MSTORE SWAP2 PUSH1 0x20 ADD SWAP2 PUSH2 0x14D JUMP JUMPDEST DUP3 ADD SWAP2 SWAP1 PUSH1 0x0 MSTORE PUSH1 0x20 PUSH1 0x0 KECCAK256 SWAP1 JUMPDEST DUP2 SLOAD DUP2 MSTORE SWAP1 PUSH1 0x1 ADD SWAP1 PUSH1 0x20 ADD DUP1 DUP4 GT PUSH2 0x130 JUMPI DUP3 SWAP1 SUB PUSH1 0x1F AND DUP3 ADD SWAP2 JUMPDEST POP POP POP POP POP SWAP1 POP SWAP1 JUMP JUMPDEST PUSH2 0x15F PUSH2 0x3F7 JUMP JUMPDEST PUSH1 0x0 PUSH1 0x40 MLOAD DUP1 PUSH1 0x60 ADD PUSH1 0x40 MSTORE SWAP1 DUP2 PUSH1 0x0 DUP3 ADD DUP1 SLOAD PUSH1 0x1 DUP2 PUSH1 0x1 AND ISZERO PUSH2 0x100 MUL SUB AND PUSH1 0x2 SWAP1 DIV DUP1 PUSH1 0x1F ADD PUSH1 0x20 DUP1 SWAP2 DIV MUL PUSH1 0x20 ADD PUSH1 0x40 MLOAD SWAP1 DUP2 ADD PUSH1 0x40 MSTORE DUP1 SWAP3 SWAP2 SWAP1 DUP2 DUP2 MSTORE PUSH1 0x20 ADD DUP3 DUP1 SLOAD PUSH1 0x1 DUP2 PUSH1 0x1 AND ISZERO PUSH2 0x100 MUL SUB AND PUSH1 0x2 SWAP1 DIV DUP1 ISZERO PUSH2 0x205 JUMPI DUP1 PUSH1 0x1F LT PUSH2 0x1DA JUMPI PUSH2 0x100 DUP1 DUP4 SLOAD DIV MUL DUP4 MSTORE SWAP2 PUSH1 0x20 ADD SWAP2 PUSH2 0x205 JUMP JUMPDEST DUP3 ADD SWAP2 SWAP1 PUSH1 0x0 MSTORE PUSH1 0x20 PUSH1 0x0 KECCAK256 SWAP1 JUMPDEST DUP2 SLOAD DUP2 MSTORE SWAP1 PUSH1 0x1 ADD SWAP1 PUSH1 0x20 ADD DUP1 DUP4 GT PUSH2 0x1E8 JUMPI DUP3 SWAP1 SUB PUSH1 0x1F AND DUP3 ADD SWAP2 JUMPDEST POP POP POP POP POP DUP2 MSTORE PUSH1 0x20 ADD PUSH1 0x1 DUP3 ADD DUP1 SLOAD PUSH1 0x1 DUP2 PUSH1 0x1 AND ISZERO PUSH2 0x100 MUL SUB AND PUSH1 0x2 SWAP1 DIV DUP1 PUSH1 0x1F ADD PUSH1 0x20 DUP1 SWAP2 DIV MUL PUSH1 0x20 ADD PUSH1 0x40 MLOAD SWAP1 DUP2 ADD PUSH1 0x40 MSTORE DUP1 SWAP3 SWAP2 SWAP1 DUP2 DUP2 MSTORE PUSH1 0x20 ADD DUP3 DUP1 SLOAD PUSH1 0x1 DUP2 PUSH1 0x1 AND ISZERO PUSH2 0x100 MUL SUB AND PUSH1 0x2 SWAP1 DIV DUP1 ISZERO PUSH2 0x2A7 JUMPI DUP1 PUSH1 0x1F LT PUSH2 0x27C JUMPI PUSH2 0x100 DUP1 DUP4 SLOAD DIV MUL DUP4 MSTORE SWAP2 PUSH1 0x20 ADD SWAP2 PUSH2 0x2A7 JUMP JUMPDEST DUP3 ADD SWAP2 SWAP1 PUSH1 0x0 MSTORE PUSH1 0x20 PUSH1 0x0 KECCAK256 SWAP1 JUMPDEST DUP2 SLOAD DUP2 MSTORE SWAP1 PUSH1 0x1 ADD SWAP1 PUSH1 0x20 ADD DUP1 DUP4 GT PUSH2 0x28A JUMPI DUP3 SWAP1 SUB PUSH1 0x1F AND DUP3 ADD SWAP2 JUMPDEST POP POP POP POP POP DUP2 MSTORE PUSH1 0x20 ADD PUSH1 0x2 DUP3 ADD SLOAD DUP2 MSTORE POP POP SWAP1 POP SWAP1 JUMP JUMPDEST PUSH1 0x40 MLOAD DUP1 PUSH1 0x60 ADD PUSH1 0x40 MSTORE DUP1 PUSH1 0x40 MLOAD DUP1 PUSH1 0x40 ADD PUSH1 0x40 MSTORE DUP1 PUSH1 0x4 DUP2 MSTORE PUSH1 0x20 ADD PUSH32 0x504F4F5000000000000000000000000000000000000000000000000000000000 DUP2 MSTORE POP DUP2 MSTORE PUSH1 0x20 ADD PUSH1 0x40 MLOAD DUP1 PUSH1 0x40 ADD PUSH1 0x40 MSTORE DUP1 PUSH1 0xA DUP2 MSTORE PUSH1 0x20 ADD PUSH32 0x507974686F6E204F435000000000000000000000000000000000000000000000 DUP2 MSTORE POP DUP2 MSTORE PUSH1 0x20 ADD PUSH1 0x23 DUP2 MSTORE POP PUSH1 0x0 DUP1 DUP3 ADD MLOAD DUP2 PUSH1 0x0 ADD SWAP1 DUP1 MLOAD SWAP1 PUSH1 0x20 ADD SWAP1 PUSH2 0x362 SWAP3 SWAP2 SWAP1 PUSH2 0x418 JUMP JUMPDEST POP PUSH1 0x20 DUP3 ADD MLOAD DUP2 PUSH1 0x1 ADD SWAP1 DUP1 MLOAD SWAP1 PUSH1 0x20 ADD SWAP1 PUSH2 0x37F SWAP3 SWAP2 SWAP1 PUSH2 0x418 JUMP JUMPDEST POP PUSH1 0x40 DUP3 ADD MLOAD DUP2 PUSH1 0x2 ADD SSTORE SWAP1 POP POP JUMP JUMPDEST PUSH1 0x40 MLOAD DUP1 PUSH1 0x60 ADD PUSH1 0x40 MSTORE DUP1 DUP5 DUP2 MSTORE PUSH1 0x20 ADD DUP4 DUP2 MSTORE PUSH1 0x20 ADD DUP3 DUP2 MSTORE POP PUSH1 0x0 DUP1 DUP3 ADD MLOAD DUP2 PUSH1 0x0 ADD SWAP1 DUP1 MLOAD SWAP1 PUSH1 0x20 ADD SWAP1 PUSH2 0x3C7 SWAP3 SWAP2 SWAP1 PUSH2 0x418 JUMP JUMPDEST POP PUSH1 0x20 DUP3 ADD MLOAD DUP2 PUSH1 0x1 ADD SWAP1 DUP1 MLOAD SWAP1 PUSH1 0x20 ADD SWAP1 PUSH2 0x3E4 SWAP3 SWAP2 SWAP1 PUSH2 0x418 JUMP JUMPDEST POP PUSH1 0x40 DUP3 ADD MLOAD DUP2 PUSH1 0x2 ADD SSTORE SWAP1 POP POP POP POP POP JUMP JUMPDEST PUSH1 0x40 MLOAD DUP1 PUSH1 0x60 ADD PUSH1 0x40 MSTORE DUP1 PUSH1 0x60 DUP2 MSTORE PUSH1 0x20 ADD PUSH1 0x60 DUP2 MSTORE PUSH1 0x20 ADD PUSH1 0x0 DUP2 MSTORE POP SWAP1 JUMP JUMPDEST DUP3 DUP1 SLOAD PUSH1 0x1 DUP2 PUSH1 0x1 AND ISZERO PUSH2 0x100 MUL SUB AND PUSH1 0x2 SWAP1 DIV SWAP1 PUSH1 0x0 MSTORE PUSH1 0x20 PUSH1 0x0 KECCAK256 SWAP1 PUSH1 0x1F ADD PUSH1 0x20 SWAP1 DIV DUP2 ADD SWAP3 DUP3 PUSH2 0x44E JUMPI PUSH1 0x0 DUP6 SSTORE PUSH2 0x495 JUMP JUMPDEST DUP3 PUSH1 0x1F LT PUSH2 0x467 JUMPI DUP1 MLOAD PUSH1 0xFF NOT AND DUP4 DUP1 ADD OR DUP6 SSTORE PUSH2 0x495 JUMP JUMPDEST DUP3 DUP1 ADD PUSH1 0x1 ADD DUP6 SSTORE DUP3 ISZERO PUSH2 0x495 JUMPI SWAP2 DUP3 ADD JUMPDEST DUP3 DUP2 GT ISZERO PUSH2 0x494 JUMPI DUP3 MLOAD DUP3 SSTORE SWAP2 PUSH1 0x20 ADD SWAP2 SWAP1 PUSH1 0x1 ADD SWAP1 PUSH2 0x479 JUMP JUMPDEST JUMPDEST POP SWAP1 POP PUSH2 0x4A2 SWAP2 SWAP1 PUSH2 0x4A6 JUMP JUMPDEST POP SWAP1 JUMP JUMPDEST JUMPDEST DUP1 DUP3 GT ISZERO PUSH2 0x4BF JUMPI PUSH1 0x0 DUP2 PUSH1 0x0 SWAP1 SSTORE POP PUSH1 0x1 ADD PUSH2 0x4A7 JUMP JUMPDEST POP SWAP1 JUMP JUMPDEST PUSH1 0x0 PUSH2 0x4D6 PUSH2 0x4D1 DUP5 PUSH2 0x70C JUMP JUMPDEST PUSH2 0x6DB JUMP JUMPDEST SWAP1 POP DUP3 DUP2 MSTORE PUSH1 0x20 DUP2 ADD DUP5 DUP5 DUP5 ADD GT ISZERO PUSH2 0x4EE JUMPI PUSH1 0x0 DUP1 REVERT JUMPDEST PUSH2 0x4F9 DUP5 DUP3 DUP6 PUSH2 0x773 JUMP JUMPDEST POP SWAP4 SWAP3 POP POP POP JUMP JUMPDEST PUSH1 0x0 DUP3 PUSH1 0x1F DUP4 ADD SLT PUSH2 0x512 JUMPI PUSH1 0x0 DUP1 REVERT JUMPDEST DUP2 CALLDATALOAD PUSH2 0x522 DUP5 DUP3 PUSH1 0x20 DUP7 ADD PUSH2 0x4C3 JUMP JUMPDEST SWAP2 POP POP SWAP3 SWAP2 POP POP JUMP JUMPDEST PUSH1 0x0 DUP2 CALLDATALOAD SWAP1 POP PUSH2 0x53A DUP2 PUSH2 0x7C8 JUMP JUMPDEST SWAP3 SWAP2 POP POP JUMP JUMPDEST PUSH1 0x0 DUP1 PUSH1 0x0 PUSH1 0x60 DUP5 DUP7 SUB SLT ISZERO PUSH2 0x555 JUMPI PUSH1 0x0 DUP1 REVERT JUMPDEST PUSH1 0x0 DUP5 ADD CALLDATALOAD PUSH8 0xFFFFFFFFFFFFFFFF DUP2 GT ISZERO PUSH2 0x56F JUMPI PUSH1 0x0 DUP1 REVERT JUMPDEST PUSH2 0x57B DUP7 DUP3 DUP8 ADD PUSH2 0x501 JUMP JUMPDEST SWAP4 POP POP PUSH1 0x20 DUP5 ADD CALLDATALOAD PUSH8 0xFFFFFFFFFFFFFFFF DUP2 GT ISZERO PUSH2 0x598 JUMPI PUSH1 0x0 DUP1 REVERT JUMPDEST PUSH2 0x5A4 DUP7 DUP3 DUP8 ADD PUSH2 0x501 JUMP JUMPDEST SWAP3 POP POP PUSH1 0x40 PUSH2 0x5B5 DUP7 DUP3 DUP8 ADD PUSH2 0x52B JUMP JUMPDEST SWAP2 POP POP SWAP3 POP SWAP3 POP SWAP3 JUMP JUMPDEST PUSH1 0x0 PUSH2 0x5CA DUP3 PUSH2 0x73C JUMP JUMPDEST PUSH2 0x5D4 DUP2 DUP6 PUSH2 0x747 JUMP JUMPDEST SWAP4 POP PUSH2 0x5E4 DUP2 DUP6 PUSH1 0x20 DUP7 ADD PUSH2 0x782 JUMP JUMPDEST PUSH2 0x5ED DUP2 PUSH2 0x7B7 JUMP JUMPDEST DUP5 ADD SWAP2 POP POP SWAP3 SWAP2 POP POP JUMP JUMPDEST PUSH1 0x0 PUSH2 0x603 DUP3 PUSH2 0x73C JUMP JUMPDEST PUSH2 0x60D DUP2 DUP6 PUSH2 0x758 JUMP JUMPDEST SWAP4 POP PUSH2 0x61D DUP2 DUP6 PUSH1 0x20 DUP7 ADD PUSH2 0x782 JUMP JUMPDEST PUSH2 0x626 DUP2 PUSH2 0x7B7 JUMP JUMPDEST DUP5 ADD SWAP2 POP POP SWAP3 SWAP2 POP POP JUMP JUMPDEST PUSH1 0x0 PUSH1 0x60 DUP4 ADD PUSH1 0x0 DUP4 ADD MLOAD DUP5 DUP3 SUB PUSH1 0x0 DUP7 ADD MSTORE PUSH2 0x64E DUP3 DUP3 PUSH2 0x5BF JUMP JUMPDEST SWAP2 POP POP PUSH1 0x20 DUP4 ADD MLOAD DUP5 DUP3 SUB PUSH1 0x20 DUP7 ADD MSTORE PUSH2 0x668 DUP3 DUP3 PUSH2 0x5BF JUMP JUMPDEST SWAP2 POP POP PUSH1 0x40 DUP4 ADD MLOAD PUSH2 0x67D PUSH1 0x40 DUP7 ADD DUP3 PUSH2 0x688 JUMP JUMPDEST POP DUP1 SWAP2 POP POP SWAP3 SWAP2 POP POP JUMP JUMPDEST PUSH2 0x691 DUP2 PUSH2 0x769 JUMP JUMPDEST DUP3 MSTORE POP POP JUMP JUMPDEST PUSH1 0x0 PUSH1 0x20 DUP3 ADD SWAP1 POP DUP2 DUP2 SUB PUSH1 0x0 DUP4 ADD MSTORE PUSH2 0x6B1 DUP2 DUP5 PUSH2 0x5F8 JUMP JUMPDEST SWAP1 POP SWAP3 SWAP2 POP POP JUMP JUMPDEST PUSH1 0x0 PUSH1 0x20 DUP3 ADD SWAP1 POP DUP2 DUP2 SUB PUSH1 0x0 DUP4 ADD MSTORE PUSH2 0x6D3 DUP2 DUP5 PUSH2 0x631 JUMP JUMPDEST SWAP1 POP SWAP3 SWAP2 POP POP JUMP JUMPDEST PUSH1 0x0 PUSH1 0x40 MLOAD SWAP1 POP DUP2 DUP2 ADD DUP2 DUP2 LT PUSH8 0xFFFFFFFFFFFFFFFF DUP3 GT OR ISZERO PUSH2 0x702 JUMPI PUSH2 0x701 PUSH2 0x7B5 JUMP JUMPDEST JUMPDEST DUP1 PUSH1 0x40 MSTORE POP SWAP2 SWAP1 POP JUMP JUMPDEST PUSH1 0x0 PUSH8 0xFFFFFFFFFFFFFFFF DUP3 GT ISZERO PUSH2 0x727 JUMPI PUSH2 0x726 PUSH2 0x7B5 JUMP JUMPDEST JUMPDEST PUSH1 0x1F NOT PUSH1 0x1F DUP4 ADD AND SWAP1 POP PUSH1 0x20 DUP2 ADD SWAP1 POP SWAP2 SWAP1 POP JUMP JUMPDEST PUSH1 0x0 DUP2 MLOAD SWAP1 POP SWAP2 SWAP1 POP JUMP JUMPDEST PUSH1 0x0 DUP3 DUP3 MSTORE PUSH1 0x20 DUP3 ADD SWAP1 POP SWAP3 SWAP2 POP POP JUMP JUMPDEST PUSH1 0x0 DUP3 DUP3 MSTORE PUSH1 0x20 DUP3 ADD SWAP1 POP SWAP3 SWAP2 POP POP JUMP JUMPDEST PUSH1 0x0 DUP2 SWAP1 POP SWAP2 SWAP1 POP JUMP JUMPDEST DUP3 DUP2 DUP4 CALLDATACOPY PUSH1 0x0 DUP4 DUP4 ADD MSTORE POP POP POP JUMP JUMPDEST PUSH1 0x0 JUMPDEST DUP4 DUP2 LT ISZERO PUSH2 0x7A0 JUMPI DUP1 DUP3 ADD MLOAD DUP2 DUP5 ADD MSTORE PUSH1 0x20 DUP2 ADD SWAP1 POP PUSH2 0x785 JUMP JUMPDEST DUP4 DUP2 GT ISZERO PUSH2 0x7AF JUMPI PUSH1 0x0 DUP5 DUP5 ADD MSTORE JUMPDEST POP POP POP POP JUMP JUMPDEST INVALID JUMPDEST PUSH1 0x0 PUSH1 0x1F NOT PUSH1 0x1F DUP4 ADD AND SWAP1 POP SWAP2 SWAP1 POP JUMP JUMPDEST PUSH2 0x7D1 DUP2 PUSH2 0x769 JUMP JUMPDEST DUP2 EQ PUSH2 0x7DC JUMPI PUSH1 0x0 DUP1 REVERT JUMPDEST POP JUMP INVALID LOG2 PUSH5 0x6970667358 0x22 SLT KECCAK256 CODECOPY LOG0 0xE4 0xBA 0xE8 SLT DUP5 DELEGATECALL EXTCODEHASH 0x2E 0xD8 0xCB 0x4C JUMPDEST 0xA8 0x26 0xC AND ORIGIN 0xDC 0xB0 0xDE 0xF6 0xE5 0xC4 0x5F GAS 0xEE SWAP8 CREATE DIFFICULTY LT PUSH5 0x736F6C6343 STOP SMOD MOD STOP CALLER "
				},
				"gasEstimates": {
					"creation": {
						"codeDepositCost": "413800",
						"executionCost": "449",
						"totalCost": "414249"
					},
					"external": {
						"getCourse()": "infinite",
						"getCourseId()": "infinite",
						"setDefaultCourse()": "infinite",
						"setNewCourse(string,string,uint256)": "infinite"
					}
				},
				"methodIdentifiers": {
					"getCourse()": "8c14acd5",
					"getCourseId()": "50808e8b",
					"setDefaultCourse()": "b87d81ae",
					"setNewCourse(string,string,uint256)": "fb85742a"
				}
			},
			"storageLayout": {
				"storage": [
					{
						"astId": 11,
						"contract": "contracts/Lab5.sol:Demo5",
						"label": "currentCourse",
						"offset": 0,
						"slot": "0",
						"type": "t_struct(Course)9_storage"
					}
				],
				"types": {
					"t_string_storage": {
						"encoding": "bytes",
						"label": "string",
						"numberOfBytes": "32"
					},
					"t_struct(Course)9_storage": {
						"encoding": "inplace",
						"label": "struct Demo5.Course",
						"members": [
							{
								"astId": 4,
								"contract": "contracts/Lab5.sol:Demo5",
								"label": "id",
								"offset": 0,
								"slot": "0",
								"type": "t_string_storage"
							},
							{
								"astId": 6,
								"contract": "contracts/Lab5.sol:Demo5",
								"label": "name",
								"offset": 0,
								"slot": "1",
								"type": "t_string_storage"
							},
							{
								"astId": 8,
								"contract": "contracts/Lab5.sol:Demo5",
								"label": "duration",
								"offset": 0,
								"slot": "2",
								"type": "t_uint256"
							}
						],
						"numberOfBytes": "96"
					},
					"t_uint256": {
						"encoding": "inplace",
						"label": "uint256",
						"numberOfBytes": "32"
					}
				}
			},
			"userdoc": {
				"kind": "user",
				"methods": {},
				"version": 1
			}
		}
	}
}