{
	"contracts/Lab7.sol": {
		"Demo7": {
			"abi": [
				{
					"inputs": [],
					"name": "getMultiple",
					"outputs": [
						{
							"internalType": "uint256",
							"name": "",
							"type": "uint256"
						},
						{
							"internalType": "uint256",
							"name": "",
							"type": "uint256"
						}
					],
					"stateMutability": "pure",
					"type": "function"
				},
				{
					"inputs": [],
					"name": "getMultipleWithoutReturns",
					"outputs": [
						{
							"internalType": "uint256",
							"name": "sum",
							"type": "uint256"
						},
						{
							"internalType": "uint256",
							"name": "plus",
							"type": "uint256"
						}
					],
					"stateMutability": "pure",
					"type": "function"
				}
			],
			"devdoc": {
				"kind": "dev",
				"methods": {},
				"version": 1
			},
			"evm": {
				"assembly": "    /* \"contracts/Lab7.sol\":60:426  contract Demo7 {\r... */\n  mstore(0x40, 0x80)\n  callvalue\n  dup1\n  iszero\n  tag_1\n  jumpi\n  0x00\n  dup1\n  revert\ntag_1:\n  pop\n  dataSize(sub_0)\n  dup1\n  dataOffset(sub_0)\n  0x00\n  codecopy\n  0x00\n  return\nstop\n\nsub_0: assembly {\n        /* \"contracts/Lab7.sol\":60:426  contract Demo7 {\r... */\n      mstore(0x40, 0x80)\n      callvalue\n      dup1\n      iszero\n      tag_1\n      jumpi\n      0x00\n      dup1\n      revert\n    tag_1:\n      pop\n      jumpi(tag_2, lt(calldatasize, 0x04))\n      shr(0xe0, calldataload(0x00))\n      dup1\n      0x05cc5fd4\n      eq\n      tag_3\n      jumpi\n      dup1\n      0xda066bf9\n      eq\n      tag_4\n      jumpi\n    tag_2:\n      0x00\n      dup1\n      revert\n        /* \"contracts/Lab7.sol\":237:423  function getMultipleWithoutReturns() public pure returns (uint256 sum, uint256 plus) {\r... */\n    tag_3:\n      tag_5\n      tag_6\n      jump\t// in\n    tag_5:\n      mload(0x40)\n      dup1\n      dup4\n      dup2\n      mstore\n      0x20\n      add\n      dup3\n      dup2\n      mstore\n      0x20\n      add\n      swap3\n      pop\n      pop\n      pop\n      mload(0x40)\n      dup1\n      swap2\n      sub\n      swap1\n      return\n        /* \"contracts/Lab7.sol\":82:231  function getMultiple() public pure returns(uint256, uint256) {\r... */\n    tag_4:\n      tag_7\n      tag_8\n      jump\t// in\n    tag_7:\n      mload(0x40)\n      dup1\n      dup4\n      dup2\n      mstore\n      0x20\n      add\n      dup3\n      dup2\n      mstore\n      0x20\n      add\n      swap3\n      pop\n      pop\n      pop\n      mload(0x40)\n      dup1\n      swap2\n      sub\n      swap1\n      return\n        /* \"contracts/Lab7.sol\":237:423  function getMultipleWithoutReturns() public pure returns (uint256 sum, uint256 plus) {\r... */\n    tag_6:\n        /* \"contracts/Lab7.sol\":295:306  uint256 sum */\n      0x00\n        /* \"contracts/Lab7.sol\":308:320  uint256 plus */\n      dup1\n        /* \"contracts/Lab7.sol\":333:342  uint256 x */\n      0x00\n        /* \"contracts/Lab7.sol\":345:348  800 */\n      0x0320\n        /* \"contracts/Lab7.sol\":333:348  uint256 x = 800 */\n      swap1\n      pop\n        /* \"contracts/Lab7.sol\":359:368  uint256 y */\n      0x00\n        /* \"contracts/Lab7.sol\":371:374  500 */\n      0x01f4\n        /* \"contracts/Lab7.sol\":359:374  uint256 y = 500 */\n      swap1\n      pop\n        /* \"contracts/Lab7.sol\":393:394  y */\n      dup1\n        /* \"contracts/Lab7.sol\":391:392  x */\n      dup3\n        /* \"contracts/Lab7.sol\":391:394  x+y */\n      add\n        /* \"contracts/Lab7.sol\":385:394  sum = x+y */\n      swap4\n      pop\n        /* \"contracts/Lab7.sol\":414:415  y */\n      dup1\n        /* \"contracts/Lab7.sol\":412:413  x */\n      dup3\n        /* \"contracts/Lab7.sol\":412:415  x*y */\n      mul\n        /* \"contracts/Lab7.sol\":405:415  plus = x*y */\n      swap3\n      pop\n        /* \"contracts/Lab7.sol\":237:423  function getMultipleWithoutReturns() public pure returns (uint256 sum, uint256 plus) {\r... */\n      pop\n      pop\n      swap1\n      swap2\n      jump\t// out\n        /* \"contracts/Lab7.sol\":82:231  function getMultiple() public pure returns(uint256, uint256) {\r... */\n    tag_8:\n        /* \"contracts/Lab7.sol\":125:132  uint256 */\n      0x00\n        /* \"contracts/Lab7.sol\":134:141  uint256 */\n      dup1\n        /* \"contracts/Lab7.sol\":154:163  uint256 x */\n      0x00\n        /* \"contracts/Lab7.sol\":166:169  800 */\n      0x0320\n        /* \"contracts/Lab7.sol\":154:169  uint256 x = 800 */\n      swap1\n      pop\n        /* \"contracts/Lab7.sol\":180:189  uint256 y */\n      0x00\n        /* \"contracts/Lab7.sol\":192:195  500 */\n      0x01f4\n        /* \"contracts/Lab7.sol\":180:195  uint256 y = 500 */\n      swap1\n      pop\n        /* \"contracts/Lab7.sol\":216:217  y */\n      dup1\n        /* \"contracts/Lab7.sol\":214:215  x */\n      dup3\n        /* \"contracts/Lab7.sol\":214:217  x+y */\n      add\n        /* \"contracts/Lab7.sol\":221:222  y */\n      dup2\n        /* \"contracts/Lab7.sol\":219:220  x */\n      dup4\n        /* \"contracts/Lab7.sol\":219:222  x*y */\n      mul\n        /* \"contracts/Lab7.sol\":206:223  return (x+y, x*y) */\n      swap4\n      pop\n      swap4\n      pop\n      pop\n      pop\n        /* \"contracts/Lab7.sol\":82:231  function getMultiple() public pure returns(uint256, uint256) {\r... */\n      swap1\n      swap2\n      jump\t// out\n\n    auxdata: 0xa2646970667358221220beaa0fe44d4a458986759a03bedf53076272ccabe010ee538be0946464f5660b64736f6c63430007060033\n}\n",
				"bytecode": {
					"linkReferences": {},
					"object": "608060405234801561001057600080fd5b5060f58061001f6000396000f3fe6080604052348015600f57600080fd5b506004361060325760003560e01c806305cc5fd4146037578063da066bf914605a575b600080fd5b603d607d565b604051808381526020018281526020019250505060405180910390f35b6060609e565b604051808381526020018281526020019250505060405180910390f35b6000806000610320905060006101f490508082019350808202925050509091565b6000806000610320905060006101f49050808201818302935093505050909156fea2646970667358221220beaa0fe44d4a458986759a03bedf53076272ccabe010ee538be0946464f5660b64736f6c63430007060033",
					"opcodes": "PUSH1 0x80 PUSH1 0x40 MSTORE CALLVALUE DUP1 ISZERO PUSH2 0x10 JUMPI PUSH1 0x0 DUP1 REVERT JUMPDEST POP PUSH1 0xF5 DUP1 PUSH2 0x1F PUSH1 0x0 CODECOPY PUSH1 0x0 RETURN INVALID PUSH1 0x80 PUSH1 0x40 MSTORE CALLVALUE DUP1 ISZERO PUSH1 0xF JUMPI PUSH1 0x0 DUP1 REVERT JUMPDEST POP PUSH1 0x4 CALLDATASIZE LT PUSH1 0x32 JUMPI PUSH1 0x0 CALLDATALOAD PUSH1 0xE0 SHR DUP1 PUSH4 0x5CC5FD4 EQ PUSH1 0x37 JUMPI DUP1 PUSH4 0xDA066BF9 EQ PUSH1 0x5A JUMPI JUMPDEST PUSH1 0x0 DUP1 REVERT JUMPDEST PUSH1 0x3D PUSH1 0x7D JUMP JUMPDEST PUSH1 0x40 MLOAD DUP1 DUP4 DUP2 MSTORE PUSH1 0x20 ADD DUP3 DUP2 MSTORE PUSH1 0x20 ADD SWAP3 POP POP POP PUSH1 0x40 MLOAD DUP1 SWAP2 SUB SWAP1 RETURN JUMPDEST PUSH1 0x60 PUSH1 0x9E JUMP JUMPDEST PUSH1 0x40 MLOAD DUP1 DUP4 DUP2 MSTORE PUSH1 0x20 ADD DUP3 DUP2 MSTORE PUSH1 0x20 ADD SWAP3 POP POP POP PUSH1 0x40 MLOAD DUP1 SWAP2 SUB SWAP1 RETURN JUMPDEST PUSH1 0x0 DUP1 PUSH1 0x0 PUSH2 0x320 SWAP1 POP PUSH1 0x0 PUSH2 0x1F4 SWAP1 POP DUP1 DUP3 ADD SWAP4 POP DUP1 DUP3 MUL SWAP3 POP POP POP SWAP1 SWAP2 JUMP JUMPDEST PUSH1 0x0 DUP1 PUSH1 0x0 PUSH2 0x320 SWAP1 POP PUSH1 0x0 PUSH2 0x1F4 SWAP1 POP DUP1 DUP3 ADD DUP2 DUP4 MUL SWAP4 POP SWAP4 POP POP POP SWAP1 SWAP2 JUMP INVALID LOG2 PUSH5 0x6970667358 0x22 SLT KECCAK256 0xBE 0xAA 0xF 0xE4 0x4D 0x4A GASLIMIT DUP10 DUP7 PUSH22 0x9A03BEDF53076272CCABE010EE538BE0946464F5660B PUSH5 0x736F6C6343 STOP SMOD MOD STOP CALLER "
				},
				"gasEstimates": {
					"creation": {
						"codeDepositCost": "49000",
						"executionCost": "99",
						"totalCost": "49099"
					},
					"external": {
						"getMultiple()": "287",
						"getMultipleWithoutReturns()": "265"
					}
				},
				"methodIdentifiers": {
					"getMultiple()": "da066bf9",
					"getMultipleWithoutReturns()": "05cc5fd4"
				}
			},
			"storageLayout": {
				"storage": [],
				"types": null
			},
			"userdoc": {
				"kind": "user",
				"methods": {},
				"version": 1
			}
		}
	}
}