{
	"contracts/Lab4.sol": {
		"Demo4": {
			"abi": [
				{
					"inputs": [],
					"name": "getCurrentSize",
					"outputs": [
						{
							"internalType": "enum Demo4.StarbuckSize",
							"name": "",
							"type": "uint8"
						}
					],
					"stateMutability": "view",
					"type": "function"
				},
				{
					"inputs": [],
					"name": "getDefaultSize",
					"outputs": [
						{
							"internalType": "enum Demo4.StarbuckSize",
							"name": "",
							"type": "uint8"
						}
					],
					"stateMutability": "pure",
					"type": "function"
				},
				{
					"inputs": [],
					"name": "getDefaultSize2",
					"outputs": [
						{
							"internalType": "uint256",
							"name": "",
							"type": "uint256"
						}
					],
					"stateMutability": "pure",
					"type": "function"
				},
				{
					"inputs": [
						{
							"internalType": "enum Demo4.StarbuckSize",
							"name": "newSize",
							"type": "uint8"
						}
					],
					"name": "setCurrentSize",
					"outputs": [],
					"stateMutability": "nonpayable",
					"type": "function"
				},
				{
					"inputs": [
						{
							"internalType": "uint256",
							"name": "newSize",
							"type": "uint256"
						}
					],
					"name": "setCurrentSize2",
					"outputs": [],
					"stateMutability": "nonpayable",
					"type": "function"
				},
				{
					"inputs": [],
					"name": "setVenti",
					"outputs": [],
					"stateMutability": "nonpayable",
					"type": "function"
				}
			],
			"devdoc": {
				"kind": "dev",
				"methods": {},
				"version": 1
			},
			"evm": {
				"assembly": "    /* \"contracts/Lab4.sol\":60:807  contract Demo4 {\r... */\n  mstore(0x40, 0x80)\n  callvalue\n  dup1\n  iszero\n  tag_1\n  jumpi\n  0x00\n  dup1\n  revert\ntag_1:\n  pop\n  dataSize(sub_0)\n  dup1\n  dataOffset(sub_0)\n  0x00\n  codecopy\n  0x00\n  return\nstop\n\nsub_0: assembly {\n        /* \"contracts/Lab4.sol\":60:807  contract Demo4 {\r... */\n      mstore(0x40, 0x80)\n      callvalue\n      dup1\n      iszero\n      tag_1\n      jumpi\n      0x00\n      dup1\n      revert\n    tag_1:\n      pop\n      jumpi(tag_2, lt(calldatasize, 0x04))\n      shr(0xe0, calldataload(0x00))\n      dup1\n      0x1759f920\n      eq\n      tag_3\n      jumpi\n      dup1\n      0x1d8beb3c\n      eq\n      tag_4\n      jumpi\n      dup1\n      0xb74d38d4\n      eq\n      tag_5\n      jumpi\n      dup1\n      0xc7443193\n      eq\n      tag_6\n      jumpi\n      dup1\n      0xcfbe5248\n      eq\n      tag_7\n      jumpi\n      dup1\n      0xf0849992\n      eq\n      tag_8\n      jumpi\n    tag_2:\n      0x00\n      dup1\n      revert\n        /* \"contracts/Lab4.sol\":304:393  function getCurrentSize() public view returns(StarbuckSize){\r... */\n    tag_3:\n      tag_9\n      tag_10\n      jump\t// in\n    tag_9:\n      mload(0x40)\n      dup1\n      dup3\n      0x04\n      dup2\n      gt\n      iszero\n      tag_11\n      jumpi\n      invalid\n    tag_11:\n      dup2\n      mstore\n      0x20\n      add\n      swap2\n      pop\n      pop\n      mload(0x40)\n      dup1\n      swap2\n      sub\n      swap1\n      return\n        /* \"contracts/Lab4.sol\":228:298  function setVenti() public{\r... */\n    tag_4:\n      tag_12\n      tag_13\n      jump\t// in\n    tag_12:\n      stop\n        /* \"contracts/Lab4.sol\":709:804  function setCurrentSize2(uint256 newSize) public{\r... */\n    tag_5:\n      tag_14\n      0x04\n      dup1\n      calldatasize\n      sub\n      0x20\n      dup2\n      lt\n      iszero\n      tag_15\n      jumpi\n      0x00\n      dup1\n      revert\n    tag_15:\n      dup2\n      add\n      swap1\n      dup1\n      dup1\n      calldataload\n      swap1\n      0x20\n      add\n      swap1\n      swap3\n      swap2\n      swap1\n      pop\n      pop\n      pop\n      tag_16\n      jump\t// in\n    tag_14:\n      stop\n        /* \"contracts/Lab4.sol\":506:607  function getDefaultSize2() public pure returns(uint256){\r... */\n    tag_6:\n      tag_17\n      tag_18\n      jump\t// in\n    tag_17:\n      mload(0x40)\n      dup1\n      dup3\n      dup2\n      mstore\n      0x20\n      add\n      swap2\n      pop\n      pop\n      mload(0x40)\n      dup1\n      swap2\n      sub\n      swap1\n      return\n        /* \"contracts/Lab4.sol\":615:701  function setCurrentSize(StarbuckSize newSize) public {\r... */\n    tag_7:\n      tag_19\n      0x04\n      dup1\n      calldatasize\n      sub\n      0x20\n      dup2\n      lt\n      iszero\n      tag_20\n      jumpi\n      0x00\n      dup1\n      revert\n    tag_20:\n      dup2\n      add\n      swap1\n      dup1\n      dup1\n      calldataload\n      0xff\n      and\n      swap1\n      0x20\n      add\n      swap1\n      swap3\n      swap2\n      swap1\n      pop\n      pop\n      pop\n      tag_21\n      jump\t// in\n    tag_19:\n      stop\n        /* \"contracts/Lab4.sol\":401:497  function getDefaultSize() public pure returns(StarbuckSize){\r... */\n    tag_8:\n      tag_22\n      tag_23\n      jump\t// in\n    tag_22:\n      mload(0x40)\n      dup1\n      dup3\n      0x04\n      dup2\n      gt\n      iszero\n      tag_24\n      jumpi\n      invalid\n    tag_24:\n      dup2\n      mstore\n      0x20\n      add\n      swap2\n      pop\n      pop\n      mload(0x40)\n      dup1\n      swap2\n      sub\n      swap1\n      return\n        /* \"contracts/Lab4.sol\":304:393  function getCurrentSize() public view returns(StarbuckSize){\r... */\n    tag_10:\n        /* \"contracts/Lab4.sol\":350:362  StarbuckSize */\n      0x00\n        /* \"contracts/Lab4.sol\":381:385  size */\n      dup1\n      0x00\n      swap1\n      sload\n      swap1\n      0x0100\n      exp\n      swap1\n      div\n      0xff\n      and\n        /* \"contracts/Lab4.sol\":374:385  return size */\n      swap1\n      pop\n        /* \"contracts/Lab4.sol\":304:393  function getCurrentSize() public view returns(StarbuckSize){\r... */\n      swap1\n      jump\t// out\n        /* \"contracts/Lab4.sol\":228:298  function setVenti() public{\r... */\n    tag_13:\n        /* \"contracts/Lab4.sol\":272:290  StarbuckSize.VENTI */\n      0x03\n        /* \"contracts/Lab4.sol\":265:269  size */\n      0x00\n      dup1\n        /* \"contracts/Lab4.sol\":265:290  size = StarbuckSize.VENTI */\n      0x0100\n      exp\n      dup2\n      sload\n      dup2\n      0xff\n      mul\n      not\n      and\n      swap1\n      dup4\n      0x04\n      dup2\n      gt\n      iszero\n      tag_27\n      jumpi\n      invalid\n    tag_27:\n      mul\n      or\n      swap1\n      sstore\n      pop\n        /* \"contracts/Lab4.sol\":228:298  function setVenti() public{\r... */\n      jump\t// out\n        /* \"contracts/Lab4.sol\":709:804  function setCurrentSize2(uint256 newSize) public{\r... */\n    tag_16:\n        /* \"contracts/Lab4.sol\":788:795  newSize */\n      dup1\n        /* \"contracts/Lab4.sol\":775:796  StarbuckSize(newSize) */\n      0x04\n      dup2\n      gt\n      iszero\n      tag_29\n      jumpi\n      invalid\n    tag_29:\n        /* \"contracts/Lab4.sol\":768:772  size */\n      0x00\n      dup1\n        /* \"contracts/Lab4.sol\":768:796  size = StarbuckSize(newSize) */\n      0x0100\n      exp\n      dup2\n      sload\n      dup2\n      0xff\n      mul\n      not\n      and\n      swap1\n      dup4\n      0x04\n      dup2\n      gt\n      iszero\n      tag_30\n      jumpi\n      invalid\n    tag_30:\n      mul\n      or\n      swap1\n      sstore\n      pop\n        /* \"contracts/Lab4.sol\":709:804  function setCurrentSize2(uint256 newSize) public{\r... */\n      pop\n      jump\t// out\n        /* \"contracts/Lab4.sol\":506:607  function getDefaultSize2() public pure returns(uint256){\r... */\n    tag_18:\n        /* \"contracts/Lab4.sol\":553:560  uint256 */\n      0x00\n        /* \"contracts/Lab4.sol\":202:219  StarbuckSize.TAll */\n      0x01\n        /* \"contracts/Lab4.sol\":579:599  uint256(defaultSize) */\n      0x04\n      dup2\n      gt\n      iszero\n      tag_32\n      jumpi\n      invalid\n    tag_32:\n        /* \"contracts/Lab4.sol\":572:599  return uint256(defaultSize) */\n      swap1\n      pop\n        /* \"contracts/Lab4.sol\":506:607  function getDefaultSize2() public pure returns(uint256){\r... */\n      swap1\n      jump\t// out\n        /* \"contracts/Lab4.sol\":615:701  function setCurrentSize(StarbuckSize newSize) public {\r... */\n    tag_21:\n        /* \"contracts/Lab4.sol\":686:693  newSize */\n      dup1\n        /* \"contracts/Lab4.sol\":679:683  size */\n      0x00\n      dup1\n        /* \"contracts/Lab4.sol\":679:693  size = newSize */\n      0x0100\n      exp\n      dup2\n      sload\n      dup2\n      0xff\n      mul\n      not\n      and\n      swap1\n      dup4\n      0x04\n      dup2\n      gt\n      iszero\n      tag_34\n      jumpi\n      invalid\n    tag_34:\n      mul\n      or\n      swap1\n      sstore\n      pop\n        /* \"contracts/Lab4.sol\":615:701  function setCurrentSize(StarbuckSize newSize) public {\r... */\n      pop\n      jump\t// out\n        /* \"contracts/Lab4.sol\":401:497  function getDefaultSize() public pure returns(StarbuckSize){\r... */\n    tag_23:\n        /* \"contracts/Lab4.sol\":447:459  StarbuckSize */\n      0x00\n        /* \"contracts/Lab4.sol\":202:219  StarbuckSize.TAll */\n      0x01\n        /* \"contracts/Lab4.sol\":471:489  return defaultSize */\n      swap1\n      pop\n        /* \"contracts/Lab4.sol\":401:497  function getDefaultSize() public pure returns(StarbuckSize){\r... */\n      swap1\n      jump\t// out\n\n    auxdata: 0xa2646970667358221220972246f63491a5f93bca79586012a13fa56fd40baf0ae3ee14579eb778159d9464736f6c63430007060033\n}\n",
				"bytecode": {
					"linkReferences": {},
					"object": "608060405234801561001057600080fd5b50610223806100206000396000f3fe608060405234801561001057600080fd5b50600436106100625760003560e01c80631759f920146100675780631d8beb3c14610090578063b74d38d41461009a578063c7443193146100c8578063cfbe5248146100e6578063f084999214610117575b600080fd5b61006f610140565b6040518082600481111561007f57fe5b815260200191505060405180910390f35b610098610156565b005b6100c6600480360360208110156100b057600080fd5b810190808035906020019092919050505061017b565b005b6100d06101ab565b6040518082815260200191505060405180910390f35b610115600480360360208110156100fc57600080fd5b81019080803560ff1690602001909291905050506101bf565b005b61011f6101e4565b6040518082600481111561012f57fe5b815260200191505060405180910390f35b60008060009054906101000a900460ff16905090565b60036000806101000a81548160ff0219169083600481111561017457fe5b0217905550565b80600481111561018757fe5b6000806101000a81548160ff021916908360048111156101a357fe5b021790555050565b6000600160048111156101ba57fe5b905090565b806000806101000a81548160ff021916908360048111156101dc57fe5b021790555050565b6000600190509056fea2646970667358221220972246f63491a5f93bca79586012a13fa56fd40baf0ae3ee14579eb778159d9464736f6c63430007060033",
					"opcodes": "PUSH1 0x80 PUSH1 0x40 MSTORE CALLVALUE DUP1 ISZERO PUSH2 0x10 JUMPI PUSH1 0x0 DUP1 REVERT JUMPDEST POP PUSH2 0x223 DUP1 PUSH2 0x20 PUSH1 0x0 CODECOPY PUSH1 0x0 RETURN INVALID PUSH1 0x80 PUSH1 0x40 MSTORE CALLVALUE DUP1 ISZERO PUSH2 0x10 JUMPI PUSH1 0x0 DUP1 REVERT JUMPDEST POP PUSH1 0x4 CALLDATASIZE LT PUSH2 0x62 JUMPI PUSH1 0x0 CALLDATALOAD PUSH1 0xE0 SHR DUP1 PUSH4 0x1759F920 EQ PUSH2 0x67 JUMPI DUP1 PUSH4 0x1D8BEB3C EQ PUSH2 0x90 JUMPI DUP1 PUSH4 0xB74D38D4 EQ PUSH2 0x9A JUMPI DUP1 PUSH4 0xC7443193 EQ PUSH2 0xC8 JUMPI DUP1 PUSH4 0xCFBE5248 EQ PUSH2 0xE6 JUMPI DUP1 PUSH4 0xF0849992 EQ PUSH2 0x117 JUMPI JUMPDEST PUSH1 0x0 DUP1 REVERT JUMPDEST PUSH2 0x6F PUSH2 0x140 JUMP JUMPDEST PUSH1 0x40 MLOAD DUP1 DUP3 PUSH1 0x4 DUP2 GT ISZERO PUSH2 0x7F JUMPI INVALID JUMPDEST DUP2 MSTORE PUSH1 0x20 ADD SWAP2 POP POP PUSH1 0x40 MLOAD DUP1 SWAP2 SUB SWAP1 RETURN JUMPDEST PUSH2 0x98 PUSH2 0x156 JUMP JUMPDEST STOP JUMPDEST PUSH2 0xC6 PUSH1 0x4 DUP1 CALLDATASIZE SUB PUSH1 0x20 DUP2 LT ISZERO PUSH2 0xB0 JUMPI PUSH1 0x0 DUP1 REVERT JUMPDEST DUP2 ADD SWAP1 DUP1 DUP1 CALLDATALOAD SWAP1 PUSH1 0x20 ADD SWAP1 SWAP3 SWAP2 SWAP1 POP POP POP PUSH2 0x17B JUMP JUMPDEST STOP JUMPDEST PUSH2 0xD0 PUSH2 0x1AB JUMP JUMPDEST PUSH1 0x40 MLOAD DUP1 DUP3 DUP2 MSTORE PUSH1 0x20 ADD SWAP2 POP POP PUSH1 0x40 MLOAD DUP1 SWAP2 SUB SWAP1 RETURN JUMPDEST PUSH2 0x115 PUSH1 0x4 DUP1 CALLDATASIZE SUB PUSH1 0x20 DUP2 LT ISZERO PUSH2 0xFC JUMPI PUSH1 0x0 DUP1 REVERT JUMPDEST DUP2 ADD SWAP1 DUP1 DUP1 CALLDATALOAD PUSH1 0xFF AND SWAP1 PUSH1 0x20 ADD SWAP1 SWAP3 SWAP2 SWAP1 POP POP POP PUSH2 0x1BF JUMP JUMPDEST STOP JUMPDEST PUSH2 0x11F PUSH2 0x1E4 JUMP JUMPDEST PUSH1 0x40 MLOAD DUP1 DUP3 PUSH1 0x4 DUP2 GT ISZERO PUSH2 0x12F JUMPI INVALID JUMPDEST DUP2 MSTORE PUSH1 0x20 ADD SWAP2 POP POP PUSH1 0x40 MLOAD DUP1 SWAP2 SUB SWAP1 RETURN JUMPDEST PUSH1 0x0 DUP1 PUSH1 0x0 SWAP1 SLOAD SWAP1 PUSH2 0x100 EXP SWAP1 DIV PUSH1 0xFF AND SWAP1 POP SWAP1 JUMP JUMPDEST PUSH1 0x3 PUSH1 0x0 DUP1 PUSH2 0x100 EXP DUP2 SLOAD DUP2 PUSH1 0xFF MUL NOT AND SWAP1 DUP4 PUSH1 0x4 DUP2 GT ISZERO PUSH2 0x174 JUMPI INVALID JUMPDEST MUL OR SWAP1 SSTORE POP JUMP JUMPDEST DUP1 PUSH1 0x4 DUP2 GT ISZERO PUSH2 0x187 JUMPI INVALID JUMPDEST PUSH1 0x0 DUP1 PUSH2 0x100 EXP DUP2 SLOAD DUP2 PUSH1 0xFF MUL NOT AND SWAP1 DUP4 PUSH1 0x4 DUP2 GT ISZERO PUSH2 0x1A3 JUMPI INVALID JUMPDEST MUL OR SWAP1 SSTORE POP POP JUMP JUMPDEST PUSH1 0x0 PUSH1 0x1 PUSH1 0x4 DUP2 GT ISZERO PUSH2 0x1BA JUMPI INVALID JUMPDEST SWAP1 POP SWAP1 JUMP JUMPDEST DUP1 PUSH1 0x0 DUP1 PUSH2 0x100 EXP DUP2 SLOAD DUP2 PUSH1 0xFF MUL NOT AND SWAP1 DUP4 PUSH1 0x4 DUP2 GT ISZERO PUSH2 0x1DC JUMPI INVALID JUMPDEST MUL OR SWAP1 SSTORE POP POP JUMP JUMPDEST PUSH1 0x0 PUSH1 0x1 SWAP1 POP SWAP1 JUMP INVALID LOG2 PUSH5 0x6970667358 0x22 SLT KECCAK256 SWAP8 0x22 CHAINID 0xF6 CALLVALUE SWAP2 0xA5 0xF9 EXTCODESIZE 0xCA PUSH26 0x586012A13FA56FD40BAF0AE3EE14579EB778159D9464736F6C63 NUMBER STOP SMOD MOD STOP CALLER "
				},
				"gasEstimates": {
					"creation": {
						"codeDepositCost": "109400",
						"executionCost": "159",
						"totalCost": "109559"
					},
					"external": {
						"getCurrentSize()": "1053",
						"getDefaultSize()": "327",
						"getDefaultSize2()": "283",
						"setCurrentSize(uint8)": "21187",
						"setCurrentSize2(uint256)": "21163",
						"setVenti()": "21031"
					}
				},
				"methodIdentifiers": {
					"getCurrentSize()": "1759f920",
					"getDefaultSize()": "f0849992",
					"getDefaultSize2()": "c7443193",
					"setCurrentSize(uint8)": "cfbe5248",
					"setCurrentSize2(uint256)": "b74d38d4",
					"setVenti()": "1d8beb3c"
				}
			},
			"storageLayout": {
				"storage": [
					{
						"astId": 9,
						"contract": "contracts/Lab4.sol:Demo4",
						"label": "size",
						"offset": 0,
						"slot": "0",
						"type": "t_enum(StarbuckSize)7"
					}
				],
				"types": {
					"t_enum(StarbuckSize)7": {
						"encoding": "inplace",
						"label": "enum Demo4.StarbuckSize",
						"numberOfBytes": "1"
					}
				}
			},
			"userdoc": {
				"kind": "user",
				"methods": {},
				"version": 1
			}
		}
	}
}