{
	"contracts/Lab2.sol": {
		"Demo2": {
			"abi": [
				{
					"inputs": [
						{
							"internalType": "uint256",
							"name": "a",
							"type": "uint256"
						},
						{
							"internalType": "uint256",
							"name": "b",
							"type": "uint256"
						}
					],
					"name": "getResult",
					"outputs": [
						{
							"internalType": "string",
							"name": "",
							"type": "string"
						}
					],
					"stateMutability": "pure",
					"type": "function"
				}
			],
			"devdoc": {
				"kind": "dev",
				"methods": {},
				"version": 1
			},
			"evm": {
				"assembly": "    /* \"contracts/Lab2.sol\":60:756  contract Demo2 {\r... */\n  mstore(0x40, 0x80)\n  callvalue\n  dup1\n  iszero\n  tag_1\n  jumpi\n  0x00\n  dup1\n  revert\ntag_1:\n  pop\n  dataSize(sub_0)\n  dup1\n  dataOffset(sub_0)\n  0x00\n  codecopy\n  0x00\n  return\nstop\n\nsub_0: assembly {\n        /* \"contracts/Lab2.sol\":60:756  contract Demo2 {\r... */\n      mstore(0x40, 0x80)\n      callvalue\n      dup1\n      iszero\n      tag_1\n      jumpi\n      0x00\n      dup1\n      revert\n    tag_1:\n      pop\n      jumpi(tag_2, lt(calldatasize, 0x04))\n      shr(0xe0, calldataload(0x00))\n      dup1\n      0x949f80c5\n      eq\n      tag_3\n      jumpi\n    tag_2:\n      0x00\n      dup1\n      revert\n        /* \"contracts/Lab2.sol\":82:201  function getResult(uint a, uint b) public pure returns (string memory) {\r... */\n    tag_3:\n      tag_4\n      0x04\n      dup1\n      calldatasize\n      sub\n      0x40\n      dup2\n      lt\n      iszero\n      tag_5\n      jumpi\n      0x00\n      dup1\n      revert\n    tag_5:\n      dup2\n      add\n      swap1\n      dup1\n      dup1\n      calldataload\n      swap1\n      0x20\n      add\n      swap1\n      swap3\n      swap2\n      swap1\n      dup1\n      calldataload\n      swap1\n      0x20\n      add\n      swap1\n      swap3\n      swap2\n      swap1\n      pop\n      pop\n      pop\n      tag_6\n      jump\t// in\n    tag_4:\n      mload(0x40)\n      dup1\n      dup1\n      0x20\n      add\n      dup3\n      dup2\n      sub\n      dup3\n      mstore\n      dup4\n      dup2\n      dup2\n      mload\n      dup2\n      mstore\n      0x20\n      add\n      swap2\n      pop\n      dup1\n      mload\n      swap1\n      0x20\n      add\n      swap1\n      dup1\n      dup4\n      dup4\n      0x00\n    tag_7:\n      dup4\n      dup2\n      lt\n      iszero\n      tag_9\n      jumpi\n      dup1\n      dup3\n      add\n      mload\n      dup2\n      dup5\n      add\n      mstore\n      0x20\n      dup2\n      add\n      swap1\n      pop\n      jump(tag_7)\n    tag_9:\n      pop\n      pop\n      pop\n      pop\n      swap1\n      pop\n      swap1\n      dup2\n      add\n      swap1\n      0x1f\n      and\n      dup1\n      iszero\n      tag_10\n      jumpi\n      dup1\n      dup3\n      sub\n      dup1\n      mload\n      0x01\n      dup4\n      0x20\n      sub\n      0x0100\n      exp\n      sub\n      not\n      and\n      dup2\n      mstore\n      0x20\n      add\n      swap2\n      pop\n    tag_10:\n      pop\n      swap3\n      pop\n      pop\n      pop\n      mload(0x40)\n      dup1\n      swap2\n      sub\n      swap1\n      return\n    tag_6:\n        /* \"contracts/Lab2.sol\":138:151  string memory */\n      0x60\n        /* \"contracts/Lab2.sol\":172:192  integerTostring(a+b) */\n      tag_12\n        /* \"contracts/Lab2.sol\":190:191  b */\n      dup3\n        /* \"contracts/Lab2.sol\":188:189  a */\n      dup5\n        /* \"contracts/Lab2.sol\":188:191  a+b */\n      add\n        /* \"contracts/Lab2.sol\":172:187  integerTostring */\n      tag_13\n        /* \"contracts/Lab2.sol\":172:192  integerTostring(a+b) */\n      jump\t// in\n    tag_12:\n        /* \"contracts/Lab2.sol\":164:192  return  integerTostring(a+b) */\n      swap1\n      pop\n        /* \"contracts/Lab2.sol\":82:201  function getResult(uint a, uint b) public pure returns (string memory) {\r... */\n      swap3\n      swap2\n      pop\n      pop\n      jump\t// out\n        /* \"contracts/Lab2.sol\":207:749  function integerTostring(uint256 i) internal pure returns (string memory) {\r... */\n    tag_13:\n        /* \"contracts/Lab2.sol\":266:279  string memory */\n      0x60\n        /* \"contracts/Lab2.sol\":300:301  0 */\n      0x00\n        /* \"contracts/Lab2.sol\":295:296  i */\n      dup3\n        /* \"contracts/Lab2.sol\":295:301  i == 0 */\n      eq\n        /* \"contracts/Lab2.sol\":292:340  if(i == 0) {\r... */\n      iszero\n      tag_15\n      jumpi\n        /* \"contracts/Lab2.sol\":318:328  return \"0\" */\n      mload(0x40)\n      dup1\n      0x40\n      add\n      0x40\n      mstore\n      dup1\n      0x01\n      dup2\n      mstore\n      0x20\n      add\n      0x3000000000000000000000000000000000000000000000000000000000000000\n      dup2\n      mstore\n      pop\n      swap1\n      pop\n      jump(tag_14)\n        /* \"contracts/Lab2.sol\":292:340  if(i == 0) {\r... */\n    tag_15:\n        /* \"contracts/Lab2.sol\":380:386  uint j */\n      0x00\n        /* \"contracts/Lab2.sol\":389:390  i */\n      dup3\n        /* \"contracts/Lab2.sol\":380:390  uint j = i */\n      swap1\n      pop\n        /* \"contracts/Lab2.sol\":401:409  uint len */\n      0x00\n        /* \"contracts/Lab2.sol\":420:490  while( j != 0 ) {\r... */\n    tag_16:\n        /* \"contracts/Lab2.sol\":432:433  0 */\n      0x00\n        /* \"contracts/Lab2.sol\":427:428  j */\n      dup3\n        /* \"contracts/Lab2.sol\":427:433  j != 0 */\n      eq\n        /* \"contracts/Lab2.sol\":420:490  while( j != 0 ) {\r... */\n      tag_17\n      jumpi\n        /* \"contracts/Lab2.sol\":451:456  len++ */\n      dup1\n      dup1\n      0x01\n      add\n      swap2\n      pop\n      pop\n        /* \"contracts/Lab2.sol\":476:478  10 */\n      0x0a\n        /* \"contracts/Lab2.sol\":471:478  j /= 10 */\n      dup3\n      dup2\n      tag_18\n      jumpi\n      invalid\n    tag_18:\n      div\n      swap2\n      pop\n        /* \"contracts/Lab2.sol\":420:490  while( j != 0 ) {\r... */\n      jump(tag_16)\n    tag_17:\n        /* \"contracts/Lab2.sol\":533:550  bytes memory bstr */\n      0x00\n        /* \"contracts/Lab2.sol\":563:566  len */\n      dup2\n        /* \"contracts/Lab2.sol\":553:567  new bytes(len) */\n      0xffffffffffffffff\n      dup2\n      gt\n      dup1\n      iszero\n      tag_19\n      jumpi\n      0x00\n      dup1\n      revert\n    tag_19:\n      pop\n      mload(0x40)\n      swap1\n      dup1\n      dup3\n      mstore\n      dup1\n      0x1f\n      add\n      not(0x1f)\n      and\n      0x20\n      add\n      dup3\n      add\n      0x40\n      mstore\n      dup1\n      iszero\n      tag_20\n      jumpi\n      dup2\n      0x20\n      add\n      0x01\n      dup3\n      mul\n      dup1\n      calldatasize\n      dup4\n      calldatacopy\n      dup1\n      dup3\n      add\n      swap2\n      pop\n      pop\n      swap1\n      pop\n    tag_20:\n      pop\n        /* \"contracts/Lab2.sol\":533:567  bytes memory bstr = new bytes(len) */\n      swap1\n      pop\n        /* \"contracts/Lab2.sol\":578:584  uint k */\n      0x00\n        /* \"contracts/Lab2.sol\":593:594  1 */\n      0x01\n        /* \"contracts/Lab2.sol\":587:590  len */\n      dup4\n        /* \"contracts/Lab2.sol\":587:594  len - 1 */\n      sub\n        /* \"contracts/Lab2.sol\":578:594  uint k = len - 1 */\n      swap1\n      pop\n        /* \"contracts/Lab2.sol\":605:708  while( i != 0 ) {\r... */\n    tag_21:\n        /* \"contracts/Lab2.sol\":617:618  0 */\n      0x00\n        /* \"contracts/Lab2.sol\":612:613  i */\n      dup7\n        /* \"contracts/Lab2.sol\":612:618  i != 0 */\n      eq\n        /* \"contracts/Lab2.sol\":605:708  while( i != 0 ) {\r... */\n      tag_22\n      jumpi\n        /* \"contracts/Lab2.sol\":670:672  10 */\n      0x0a\n        /* \"contracts/Lab2.sol\":666:667  i */\n      dup7\n        /* \"contracts/Lab2.sol\":666:672  i % 10 */\n      dup2\n      tag_23\n      jumpi\n      invalid\n    tag_23:\n      mod\n        /* \"contracts/Lab2.sol\":661:663  48 */\n      0x30\n        /* \"contracts/Lab2.sol\":661:672  48 + i % 10 */\n      add\n        /* \"contracts/Lab2.sol\":648:674  bytes1(uint8(48 + i % 10)) */\n      0xf8\n      shl\n        /* \"contracts/Lab2.sol\":636:640  bstr */\n      dup3\n        /* \"contracts/Lab2.sol\":641:644  k-- */\n      dup3\n      dup1\n      0x01\n      swap1\n      sub\n      swap4\n      pop\n        /* \"contracts/Lab2.sol\":636:645  bstr[k--] */\n      dup2\n      mload\n      dup2\n      lt\n      tag_24\n      jumpi\n      invalid\n    tag_24:\n      0x20\n      add\n      add\n        /* \"contracts/Lab2.sol\":636:674  bstr[k--] = bytes1(uint8(48 + i % 10)) */\n      swap1\n      not(0xffffffffffffffffffffffffffffffffffffffffffffffffffffffffffffff)\n      and\n      swap1\n      dup2\n      0x00\n      byte\n      swap1\n      mstore8\n      pop\n        /* \"contracts/Lab2.sol\":694:696  10 */\n      0x0a\n        /* \"contracts/Lab2.sol\":689:696  i /= 10 */\n      dup7\n      dup2\n      tag_25\n      jumpi\n      invalid\n    tag_25:\n      div\n      swap6\n      pop\n        /* \"contracts/Lab2.sol\":605:708  while( i != 0 ) {\r... */\n      jump(tag_21)\n    tag_22:\n        /* \"contracts/Lab2.sol\":732:736  bstr */\n      dup2\n        /* \"contracts/Lab2.sol\":718:737  return string(bstr) */\n      swap5\n      pop\n      pop\n      pop\n      pop\n      pop\n        /* \"contracts/Lab2.sol\":207:749  function integerTostring(uint256 i) internal pure returns (string memory) {\r... */\n    tag_14:\n      swap2\n      swap1\n      pop\n      jump\t// out\n\n    auxdata: 0xa2646970667358221220a6271657c96c023edf446ae9182d4abf4541a7bbbb9fee46d9c957e510bbe10664736f6c63430007060033\n}\n",
				"bytecode": {
					"linkReferences": {},
					"object": "608060405234801561001057600080fd5b50610270806100206000396000f3fe608060405234801561001057600080fd5b506004361061002b5760003560e01c8063949f80c514610030575b600080fd5b6100666004803603604081101561004657600080fd5b8101908080359060200190929190803590602001909291905050506100e1565b6040518080602001828103825283818151815260200191508051906020019080838360005b838110156100a657808201518184015260208101905061008b565b50505050905090810190601f1680156100d35780820380516001836020036101000a031916815260200191505b509250505060405180910390f35b60606100ee8284016100f6565b905092915050565b6060600082141561013e576040518060400160405280600181526020017f30000000000000000000000000000000000000000000000000000000000000008152509050610235565b600082905060005b60008214610168578080600101915050600a828161016057fe5b049150610146565b60008167ffffffffffffffff8111801561018157600080fd5b506040519080825280601f01601f1916602001820160405280156101b45781602001600182028036833780820191505090505b50905060006001830390505b6000861461022d57600a86816101d257fe5b0660300160f81b828280600190039350815181106101ec57fe5b60200101907effffffffffffffffffffffffffffffffffffffffffffffffffffffffffffff1916908160001a905350600a868161022557fe5b0495506101c0565b819450505050505b91905056fea2646970667358221220a6271657c96c023edf446ae9182d4abf4541a7bbbb9fee46d9c957e510bbe10664736f6c63430007060033",
					"opcodes": "PUSH1 0x80 PUSH1 0x40 MSTORE CALLVALUE DUP1 ISZERO PUSH2 0x10 JUMPI PUSH1 0x0 DUP1 REVERT JUMPDEST POP PUSH2 0x270 DUP1 PUSH2 0x20 PUSH1 0x0 CODECOPY PUSH1 0x0 RETURN INVALID PUSH1 0x80 PUSH1 0x40 MSTORE CALLVALUE DUP1 ISZERO PUSH2 0x10 JUMPI PUSH1 0x0 DUP1 REVERT JUMPDEST POP PUSH1 0x4 CALLDATASIZE LT PUSH2 0x2B JUMPI PUSH1 0x0 CALLDATALOAD PUSH1 0xE0 SHR DUP1 PUSH4 0x949F80C5 EQ PUSH2 0x30 JUMPI JUMPDEST PUSH1 0x0 DUP1 REVERT JUMPDEST PUSH2 0x66 PUSH1 0x4 DUP1 CALLDATASIZE SUB PUSH1 0x40 DUP2 LT ISZERO PUSH2 0x46 JUMPI PUSH1 0x0 DUP1 REVERT JUMPDEST DUP2 ADD SWAP1 DUP1 DUP1 CALLDATALOAD SWAP1 PUSH1 0x20 ADD SWAP1 SWAP3 SWAP2 SWAP1 DUP1 CALLDATALOAD SWAP1 PUSH1 0x20 ADD SWAP1 SWAP3 SWAP2 SWAP1 POP POP POP PUSH2 0xE1 JUMP JUMPDEST PUSH1 0x40 MLOAD DUP1 DUP1 PUSH1 0x20 ADD DUP3 DUP2 SUB DUP3 MSTORE DUP4 DUP2 DUP2 MLOAD DUP2 MSTORE PUSH1 0x20 ADD SWAP2 POP DUP1 MLOAD SWAP1 PUSH1 0x20 ADD SWAP1 DUP1 DUP4 DUP4 PUSH1 0x0 JUMPDEST DUP4 DUP2 LT ISZERO PUSH2 0xA6 JUMPI DUP1 DUP3 ADD MLOAD DUP2 DUP5 ADD MSTORE PUSH1 0x20 DUP2 ADD SWAP1 POP PUSH2 0x8B JUMP JUMPDEST POP POP POP POP SWAP1 POP SWAP1 DUP2 ADD SWAP1 PUSH1 0x1F AND DUP1 ISZERO PUSH2 0xD3 JUMPI DUP1 DUP3 SUB DUP1 MLOAD PUSH1 0x1 DUP4 PUSH1 0x20 SUB PUSH2 0x100 EXP SUB NOT AND DUP2 MSTORE PUSH1 0x20 ADD SWAP2 POP JUMPDEST POP SWAP3 POP POP POP PUSH1 0x40 MLOAD DUP1 SWAP2 SUB SWAP1 RETURN JUMPDEST PUSH1 0x60 PUSH2 0xEE DUP3 DUP5 ADD PUSH2 0xF6 JUMP JUMPDEST SWAP1 POP SWAP3 SWAP2 POP POP JUMP JUMPDEST PUSH1 0x60 PUSH1 0x0 DUP3 EQ ISZERO PUSH2 0x13E JUMPI PUSH1 0x40 MLOAD DUP1 PUSH1 0x40 ADD PUSH1 0x40 MSTORE DUP1 PUSH1 0x1 DUP2 MSTORE PUSH1 0x20 ADD PUSH32 0x3000000000000000000000000000000000000000000000000000000000000000 DUP2 MSTORE POP SWAP1 POP PUSH2 0x235 JUMP JUMPDEST PUSH1 0x0 DUP3 SWAP1 POP PUSH1 0x0 JUMPDEST PUSH1 0x0 DUP3 EQ PUSH2 0x168 JUMPI DUP1 DUP1 PUSH1 0x1 ADD SWAP2 POP POP PUSH1 0xA DUP3 DUP2 PUSH2 0x160 JUMPI INVALID JUMPDEST DIV SWAP2 POP PUSH2 0x146 JUMP JUMPDEST PUSH1 0x0 DUP2 PUSH8 0xFFFFFFFFFFFFFFFF DUP2 GT DUP1 ISZERO PUSH2 0x181 JUMPI PUSH1 0x0 DUP1 REVERT JUMPDEST POP PUSH1 0x40 MLOAD SWAP1 DUP1 DUP3 MSTORE DUP1 PUSH1 0x1F ADD PUSH1 0x1F NOT AND PUSH1 0x20 ADD DUP3 ADD PUSH1 0x40 MSTORE DUP1 ISZERO PUSH2 0x1B4 JUMPI DUP2 PUSH1 0x20 ADD PUSH1 0x1 DUP3 MUL DUP1 CALLDATASIZE DUP4 CALLDATACOPY DUP1 DUP3 ADD SWAP2 POP POP SWAP1 POP JUMPDEST POP SWAP1 POP PUSH1 0x0 PUSH1 0x1 DUP4 SUB SWAP1 POP JUMPDEST PUSH1 0x0 DUP7 EQ PUSH2 0x22D JUMPI PUSH1 0xA DUP7 DUP2 PUSH2 0x1D2 JUMPI INVALID JUMPDEST MOD PUSH1 0x30 ADD PUSH1 0xF8 SHL DUP3 DUP3 DUP1 PUSH1 0x1 SWAP1 SUB SWAP4 POP DUP2 MLOAD DUP2 LT PUSH2 0x1EC JUMPI INVALID JUMPDEST PUSH1 0x20 ADD ADD SWAP1 PUSH31 0xFFFFFFFFFFFFFFFFFFFFFFFFFFFFFFFFFFFFFFFFFFFFFFFFFFFFFFFFFFFFFF NOT AND SWAP1 DUP2 PUSH1 0x0 BYTE SWAP1 MSTORE8 POP PUSH1 0xA DUP7 DUP2 PUSH2 0x225 JUMPI INVALID JUMPDEST DIV SWAP6 POP PUSH2 0x1C0 JUMP JUMPDEST DUP2 SWAP5 POP POP POP POP POP JUMPDEST SWAP2 SWAP1 POP JUMP INVALID LOG2 PUSH5 0x6970667358 0x22 SLT KECCAK256 0xA6 0x27 AND JUMPI 0xC9 PUSH13 0x23EDF446AE9182D4ABF4541A7 0xBB 0xBB SWAP16 0xEE CHAINID 0xD9 0xC9 JUMPI 0xE5 LT 0xBB 0xE1 MOD PUSH5 0x736F6C6343 STOP SMOD MOD STOP CALLER "
				},
				"gasEstimates": {
					"creation": {
						"codeDepositCost": "124800",
						"executionCost": "171",
						"totalCost": "124971"
					},
					"external": {
						"getResult(uint256,uint256)": "infinite"
					},
					"internal": {
						"integerTostring(uint256)": "infinite"
					}
				},
				"methodIdentifiers": {
					"getResult(uint256,uint256)": "949f80c5"
				}
			},
			"storageLayout": {
				"storage": [],
				"types": null
			},
			"userdoc": {
				"kind": "user",
				"methods": {},
				"version": 1
			}
		}
	}
}