{
	"contracts/Lab3.sol": {
		"Demo3": {
			"abi": [
				{
					"inputs": [],
					"name": "arrayExplain1",
					"outputs": [
						{
							"internalType": "uint256",
							"name": "",
							"type": "uint256"
						}
					],
					"stateMutability": "pure",
					"type": "function"
				},
				{
					"inputs": [],
					"name": "arrayExplain2",
					"outputs": [
						{
							"internalType": "uint256",
							"name": "",
							"type": "uint256"
						}
					],
					"stateMutability": "pure",
					"type": "function"
				},
				{
					"inputs": [
						{
							"internalType": "uint8",
							"name": "idx",
							"type": "uint8"
						}
					],
					"name": "arrayExplain3",
					"outputs": [
						{
							"internalType": "uint256",
							"name": "",
							"type": "uint256"
						}
					],
					"stateMutability": "pure",
					"type": "function"
				},
				{
					"inputs": [
						{
							"internalType": "uint8",
							"name": "idx",
							"type": "uint8"
						}
					],
					"name": "arrayExplain4",
					"outputs": [
						{
							"internalType": "uint256",
							"name": "",
							"type": "uint256"
						}
					],
					"stateMutability": "pure",
					"type": "function"
				}
			],
			"devdoc": {
				"kind": "dev",
				"methods": {},
				"version": 1
			},
			"evm": {
				"assembly": "    /* \"contracts/Lab3.sol\":62:907  contract Demo3 {\r... */\n  mstore(0x40, 0x80)\n  callvalue\n  dup1\n  iszero\n  tag_1\n  jumpi\n  0x00\n  dup1\n  revert\ntag_1:\n  pop\n  dataSize(sub_0)\n  dup1\n  dataOffset(sub_0)\n  0x00\n  codecopy\n  0x00\n  return\nstop\n\nsub_0: assembly {\n        /* \"contracts/Lab3.sol\":62:907  contract Demo3 {\r... */\n      mstore(0x40, 0x80)\n      callvalue\n      dup1\n      iszero\n      tag_1\n      jumpi\n      0x00\n      dup1\n      revert\n    tag_1:\n      pop\n      jumpi(tag_2, lt(calldatasize, 0x04))\n      shr(0xe0, calldataload(0x00))\n      dup1\n      0x1841fd4f\n      eq\n      tag_3\n      jumpi\n      dup1\n      0x5f861f21\n      eq\n      tag_4\n      jumpi\n      dup1\n      0x8b21d2ef\n      eq\n      tag_5\n      jumpi\n      dup1\n      0xfda23789\n      eq\n      tag_6\n      jumpi\n    tag_2:\n      0x00\n      dup1\n      revert\n        /* \"contracts/Lab3.sol\":111:271  function arrayExplain1() public pure returns(uint256){\r... */\n    tag_3:\n      tag_7\n      tag_8\n      jump\t// in\n    tag_7:\n      mload(0x40)\n      dup1\n      dup3\n      dup2\n      mstore\n      0x20\n      add\n      swap2\n      pop\n      pop\n      mload(0x40)\n      dup1\n      swap2\n      sub\n      swap1\n      return\n        /* \"contracts/Lab3.sol\":430:684  function arrayExplain3(uint8 idx) public pure returns(uint256){\r... */\n    tag_4:\n      tag_9\n      0x04\n      dup1\n      calldatasize\n      sub\n      0x20\n      dup2\n      lt\n      iszero\n      tag_10\n      jumpi\n      0x00\n      dup1\n      revert\n    tag_10:\n      dup2\n      add\n      swap1\n      dup1\n      dup1\n      calldataload\n      0xff\n      and\n      swap1\n      0x20\n      add\n      swap1\n      swap3\n      swap2\n      swap1\n      pop\n      pop\n      pop\n      tag_11\n      jump\t// in\n    tag_9:\n      mload(0x40)\n      dup1\n      dup3\n      dup2\n      mstore\n      0x20\n      add\n      swap2\n      pop\n      pop\n      mload(0x40)\n      dup1\n      swap2\n      sub\n      swap1\n      return\n        /* \"contracts/Lab3.sol\":305:423  function arrayExplain2() public pure returns(uint256){\r... */\n    tag_5:\n      tag_12\n      tag_13\n      jump\t// in\n    tag_12:\n      mload(0x40)\n      dup1\n      dup3\n      dup2\n      mstore\n      0x20\n      add\n      swap2\n      pop\n      pop\n      mload(0x40)\n      dup1\n      swap2\n      sub\n      swap1\n      return\n        /* \"contracts/Lab3.sol\":690:904  function arrayExplain4(uint8 idx) public pure returns(uint256){\r... */\n    tag_6:\n      tag_14\n      0x04\n      dup1\n      calldatasize\n      sub\n      0x20\n      dup2\n      lt\n      iszero\n      tag_15\n      jumpi\n      0x00\n      dup1\n      revert\n    tag_15:\n      dup2\n      add\n      swap1\n      dup1\n      dup1\n      calldataload\n      0xff\n      and\n      swap1\n      0x20\n      add\n      swap1\n      swap3\n      swap2\n      swap1\n      pop\n      pop\n      pop\n      tag_16\n      jump\t// in\n    tag_14:\n      mload(0x40)\n      dup1\n      dup3\n      dup2\n      mstore\n      0x20\n      add\n      swap2\n      pop\n      pop\n      mload(0x40)\n      dup1\n      swap2\n      sub\n      swap1\n      return\n        /* \"contracts/Lab3.sol\":111:271  function arrayExplain1() public pure returns(uint256){\r... */\n    tag_8:\n        /* \"contracts/Lab3.sol\":156:163  uint256 */\n      0x00\n        /* \"contracts/Lab3.sol\":175:183  uint len */\n      dup1\n        /* \"contracts/Lab3.sol\":186:187  7 */\n      0x07\n        /* \"contracts/Lab3.sol\":175:187  uint len = 7 */\n      swap1\n      pop\n        /* \"contracts/Lab3.sol\":198:216  uint256[] memory a */\n      0x00\n        /* \"contracts/Lab3.sol\":233:236  len */\n      dup2\n        /* \"contracts/Lab3.sol\":219:237  new uint256[](len) */\n      0xffffffffffffffff\n      dup2\n      gt\n      dup1\n      iszero\n      tag_18\n      jumpi\n      0x00\n      dup1\n      revert\n    tag_18:\n      pop\n      mload(0x40)\n      swap1\n      dup1\n      dup3\n      mstore\n      dup1\n      0x20\n      mul\n      0x20\n      add\n      dup3\n      add\n      0x40\n      mstore\n      dup1\n      iszero\n      tag_19\n      jumpi\n      dup2\n      0x20\n      add\n      0x20\n      dup3\n      mul\n      dup1\n      calldatasize\n      dup4\n      calldatacopy\n      dup1\n      dup3\n      add\n      swap2\n      pop\n      pop\n      swap1\n      pop\n    tag_19:\n      pop\n        /* \"contracts/Lab3.sol\":198:237  uint256[] memory a = new uint256[](len) */\n      swap1\n      pop\n        /* \"contracts/Lab3.sol\":255:256  a */\n      dup1\n        /* \"contracts/Lab3.sol\":255:263  a.length */\n      mload\n        /* \"contracts/Lab3.sol\":248:263  return a.length */\n      swap3\n      pop\n      pop\n      pop\n        /* \"contracts/Lab3.sol\":111:271  function arrayExplain1() public pure returns(uint256){\r... */\n      swap1\n      jump\t// out\n        /* \"contracts/Lab3.sol\":430:684  function arrayExplain3(uint8 idx) public pure returns(uint256){\r... */\n    tag_11:\n        /* \"contracts/Lab3.sol\":484:491  uint256 */\n      0x00\n        /* \"contracts/Lab3.sol\":503:511  uint len */\n      dup1\n        /* \"contracts/Lab3.sol\":514:516  10 */\n      0x0a\n        /* \"contracts/Lab3.sol\":503:516  uint len = 10 */\n      swap1\n      pop\n        /* \"contracts/Lab3.sol\":527:545  uint256[] memory a */\n      0x00\n        /* \"contracts/Lab3.sol\":562:565  len */\n      dup2\n        /* \"contracts/Lab3.sol\":548:566  new uint256[](len) */\n      0xffffffffffffffff\n      dup2\n      gt\n      dup1\n      iszero\n      tag_21\n      jumpi\n      0x00\n      dup1\n      revert\n    tag_21:\n      pop\n      mload(0x40)\n      swap1\n      dup1\n      dup3\n      mstore\n      dup1\n      0x20\n      mul\n      0x20\n      add\n      dup3\n      add\n      0x40\n      mstore\n      dup1\n      iszero\n      tag_22\n      jumpi\n      dup2\n      0x20\n      add\n      0x20\n      dup3\n      mul\n      dup1\n      calldatasize\n      dup4\n      calldatacopy\n      dup1\n      dup3\n      add\n      swap2\n      pop\n      pop\n      swap1\n      pop\n    tag_22:\n      pop\n        /* \"contracts/Lab3.sol\":527:566  uint256[] memory a = new uint256[](len) */\n      swap1\n      pop\n        /* \"contracts/Lab3.sol\":582:583  2 */\n      0x02\n        /* \"contracts/Lab3.sol\":577:578  a */\n      dup2\n        /* \"contracts/Lab3.sol\":579:580  0 */\n      0x00\n        /* \"contracts/Lab3.sol\":577:581  a[0] */\n      dup2\n      mload\n      dup2\n      lt\n      tag_23\n      jumpi\n      invalid\n    tag_23:\n      0x20\n      mul\n      0x20\n      add\n      add\n        /* \"contracts/Lab3.sol\":577:583  a[0]=2 */\n      dup2\n      dup2\n      mstore\n      pop\n      pop\n        /* \"contracts/Lab3.sol\":599:600  4 */\n      0x04\n        /* \"contracts/Lab3.sol\":594:595  a */\n      dup2\n        /* \"contracts/Lab3.sol\":596:597  1 */\n      0x01\n        /* \"contracts/Lab3.sol\":594:598  a[1] */\n      dup2\n      mload\n      dup2\n      lt\n      tag_24\n      jumpi\n      invalid\n    tag_24:\n      0x20\n      mul\n      0x20\n      add\n      add\n        /* \"contracts/Lab3.sol\":594:600  a[1]=4 */\n      dup2\n      dup2\n      mstore\n      pop\n      pop\n        /* \"contracts/Lab3.sol\":616:617  6 */\n      0x06\n        /* \"contracts/Lab3.sol\":611:612  a */\n      dup2\n        /* \"contracts/Lab3.sol\":613:614  2 */\n      0x02\n        /* \"contracts/Lab3.sol\":611:615  a[2] */\n      dup2\n      mload\n      dup2\n      lt\n      tag_25\n      jumpi\n      invalid\n    tag_25:\n      0x20\n      mul\n      0x20\n      add\n      add\n        /* \"contracts/Lab3.sol\":611:617  a[2]=6 */\n      dup2\n      dup2\n      mstore\n      pop\n      pop\n        /* \"contracts/Lab3.sol\":633:634  8 */\n      0x08\n        /* \"contracts/Lab3.sol\":628:629  a */\n      dup2\n        /* \"contracts/Lab3.sol\":630:631  3 */\n      0x03\n        /* \"contracts/Lab3.sol\":628:632  a[3] */\n      dup2\n      mload\n      dup2\n      lt\n      tag_26\n      jumpi\n      invalid\n    tag_26:\n      0x20\n      mul\n      0x20\n      add\n      add\n        /* \"contracts/Lab3.sol\":628:634  a[3]=8 */\n      dup2\n      dup2\n      mstore\n      pop\n      pop\n        /* \"contracts/Lab3.sol\":650:652  10 */\n      0x0a\n        /* \"contracts/Lab3.sol\":645:646  a */\n      dup2\n        /* \"contracts/Lab3.sol\":647:648  4 */\n      0x04\n        /* \"contracts/Lab3.sol\":645:649  a[4] */\n      dup2\n      mload\n      dup2\n      lt\n      tag_27\n      jumpi\n      invalid\n    tag_27:\n      0x20\n      mul\n      0x20\n      add\n      add\n        /* \"contracts/Lab3.sol\":645:652  a[4]=10 */\n      dup2\n      dup2\n      mstore\n      pop\n      pop\n        /* \"contracts/Lab3.sol\":670:671  a */\n      dup1\n        /* \"contracts/Lab3.sol\":672:675  idx */\n      dup5\n        /* \"contracts/Lab3.sol\":670:676  a[idx] */\n      0xff\n      and\n      dup2\n      mload\n      dup2\n      lt\n      tag_28\n      jumpi\n      invalid\n    tag_28:\n      0x20\n      mul\n      0x20\n      add\n      add\n      mload\n        /* \"contracts/Lab3.sol\":663:676  return a[idx] */\n      swap3\n      pop\n      pop\n      pop\n        /* \"contracts/Lab3.sol\":430:684  function arrayExplain3(uint8 idx) public pure returns(uint256){\r... */\n      swap2\n      swap1\n      pop\n      jump\t// out\n        /* \"contracts/Lab3.sol\":305:423  function arrayExplain2() public pure returns(uint256){\r... */\n    tag_13:\n        /* \"contracts/Lab3.sol\":350:357  uint256 */\n      0x00\n        /* \"contracts/Lab3.sol\":369:389  uint256[10] memory b */\n      tag_30\n      tag_31\n      jump\t// in\n    tag_30:\n        /* \"contracts/Lab3.sol\":407:415  b.length */\n      0x0a\n        /* \"contracts/Lab3.sol\":400:415  return b.length */\n      swap2\n      pop\n      pop\n        /* \"contracts/Lab3.sol\":305:423  function arrayExplain2() public pure returns(uint256){\r... */\n      swap1\n      jump\t// out\n        /* \"contracts/Lab3.sol\":690:904  function arrayExplain4(uint8 idx) public pure returns(uint256){\r... */\n    tag_16:\n        /* \"contracts/Lab3.sol\":744:751  uint256 */\n      0x00\n        /* \"contracts/Lab3.sol\":763:783  uint256[10] memory b */\n      tag_33\n      tag_31\n      jump\t// in\n    tag_33:\n        /* \"contracts/Lab3.sol\":799:800  5 */\n      0x05\n        /* \"contracts/Lab3.sol\":794:795  b */\n      dup2\n        /* \"contracts/Lab3.sol\":796:797  5 */\n      0x05\n        /* \"contracts/Lab3.sol\":794:798  b[5] */\n      0x0a\n      dup2\n      lt\n      tag_34\n      jumpi\n      invalid\n    tag_34:\n      0x20\n      mul\n      add\n        /* \"contracts/Lab3.sol\":794:800  b[5]=5 */\n      dup2\n      dup2\n      mstore\n      pop\n      pop\n        /* \"contracts/Lab3.sol\":816:818  10 */\n      0x0a\n        /* \"contracts/Lab3.sol\":811:812  b */\n      dup2\n        /* \"contracts/Lab3.sol\":813:814  6 */\n      0x06\n        /* \"contracts/Lab3.sol\":811:815  b[6] */\n      0x0a\n      dup2\n      lt\n      tag_35\n      jumpi\n      invalid\n    tag_35:\n      0x20\n      mul\n      add\n        /* \"contracts/Lab3.sol\":811:818  b[6]=10 */\n      dup2\n      dup2\n      mstore\n      pop\n      pop\n        /* \"contracts/Lab3.sol\":834:836  15 */\n      0x0f\n        /* \"contracts/Lab3.sol\":829:830  b */\n      dup2\n        /* \"contracts/Lab3.sol\":831:832  7 */\n      0x07\n        /* \"contracts/Lab3.sol\":829:833  b[7] */\n      0x0a\n      dup2\n      lt\n      tag_36\n      jumpi\n      invalid\n    tag_36:\n      0x20\n      mul\n      add\n        /* \"contracts/Lab3.sol\":829:836  b[7]=15 */\n      dup2\n      dup2\n      mstore\n      pop\n      pop\n        /* \"contracts/Lab3.sol\":852:854  20 */\n      0x14\n        /* \"contracts/Lab3.sol\":847:848  b */\n      dup2\n        /* \"contracts/Lab3.sol\":849:850  8 */\n      0x08\n        /* \"contracts/Lab3.sol\":847:851  b[8] */\n      0x0a\n      dup2\n      lt\n      tag_37\n      jumpi\n      invalid\n    tag_37:\n      0x20\n      mul\n      add\n        /* \"contracts/Lab3.sol\":847:854  b[8]=20 */\n      dup2\n      dup2\n      mstore\n      pop\n      pop\n        /* \"contracts/Lab3.sol\":870:872  25 */\n      0x19\n        /* \"contracts/Lab3.sol\":865:866  b */\n      dup2\n        /* \"contracts/Lab3.sol\":867:868  9 */\n      0x09\n        /* \"contracts/Lab3.sol\":865:869  b[9] */\n      0x0a\n      dup2\n      lt\n      tag_38\n      jumpi\n      invalid\n    tag_38:\n      0x20\n      mul\n      add\n        /* \"contracts/Lab3.sol\":865:872  b[9]=25 */\n      dup2\n      dup2\n      mstore\n      pop\n      pop\n        /* \"contracts/Lab3.sol\":890:891  b */\n      dup1\n        /* \"contracts/Lab3.sol\":892:895  idx */\n      dup4\n        /* \"contracts/Lab3.sol\":890:896  b[idx] */\n      0xff\n      and\n      0x0a\n      dup2\n      lt\n      tag_39\n      jumpi\n      invalid\n    tag_39:\n      0x20\n      mul\n      add\n      mload\n        /* \"contracts/Lab3.sol\":883:896  return b[idx] */\n      swap2\n      pop\n      pop\n        /* \"contracts/Lab3.sol\":690:904  function arrayExplain4(uint8 idx) public pure returns(uint256){\r... */\n      swap2\n      swap1\n      pop\n      jump\t// out\n    tag_31:\n      mload(0x40)\n      dup1\n      0x0140\n      add\n      0x40\n      mstore\n      dup1\n      0x0a\n      swap1\n      0x20\n      dup3\n      mul\n      dup1\n      calldatasize\n      dup4\n      calldatacopy\n      dup1\n      dup3\n      add\n      swap2\n      pop\n      pop\n      swap1\n      pop\n      pop\n      swap1\n      jump\t// out\n\n    auxdata: 0xa264697066735822122047d1a0e949dd0269631964c9720b992793f925700ad04edb7c2cae63b8fcaa0964736f6c63430007060033\n}\n",
				"bytecode": {
					"linkReferences": {},
					"object": "608060405234801561001057600080fd5b50610374806100206000396000f3fe608060405234801561001057600080fd5b506004361061004c5760003560e01c80631841fd4f146100515780635f861f211461006f5780638b21d2ef146100b4578063fda23789146100d2575b600080fd5b610059610117565b6040518082815260200191505060405180910390f35b61009e6004803603602081101561008557600080fd5b81019080803560ff169060200190929190505050610172565b6040518082815260200191505060405180910390f35b6100bc61026b565b6040518082815260200191505060405180910390f35b610101600480360360208110156100e857600080fd5b81019080803560ff16906020019092919050505061027d565b6040518082815260200191505060405180910390f35b6000806007905060008167ffffffffffffffff8111801561013757600080fd5b506040519080825280602002602001820160405280156101665781602001602082028036833780820191505090505b50905080519250505090565b600080600a905060008167ffffffffffffffff8111801561019257600080fd5b506040519080825280602002602001820160405280156101c15781602001602082028036833780820191505090505b5090506002816000815181106101d357fe5b6020026020010181815250506004816001815181106101ee57fe5b60200260200101818152505060068160028151811061020957fe5b60200260200101818152505060088160038151811061022457fe5b602002602001018181525050600a8160048151811061023f57fe5b602002602001018181525050808460ff168151811061025a57fe5b602002602001015192505050919050565b600061027561031b565b600a91505090565b600061028761031b565b6005816005600a811061029657fe5b602002018181525050600a816006600a81106102ae57fe5b602002018181525050600f816007600a81106102c657fe5b6020020181815250506014816008600a81106102de57fe5b6020020181815250506019816009600a81106102f657fe5b602002018181525050808360ff16600a811061030e57fe5b6020020151915050919050565b604051806101400160405280600a9060208202803683378082019150509050509056fea264697066735822122047d1a0e949dd0269631964c9720b992793f925700ad04edb7c2cae63b8fcaa0964736f6c63430007060033",
					"opcodes": "PUSH1 0x80 PUSH1 0x40 MSTORE CALLVALUE DUP1 ISZERO PUSH2 0x10 JUMPI PUSH1 0x0 DUP1 REVERT JUMPDEST POP PUSH2 0x374 DUP1 PUSH2 0x20 PUSH1 0x0 CODECOPY PUSH1 0x0 RETURN INVALID PUSH1 0x80 PUSH1 0x40 MSTORE CALLVALUE DUP1 ISZERO PUSH2 0x10 JUMPI PUSH1 0x0 DUP1 REVERT JUMPDEST POP PUSH1 0x4 CALLDATASIZE LT PUSH2 0x4C JUMPI PUSH1 0x0 CALLDATALOAD PUSH1 0xE0 SHR DUP1 PUSH4 0x1841FD4F EQ PUSH2 0x51 JUMPI DUP1 PUSH4 0x5F861F21 EQ PUSH2 0x6F JUMPI DUP1 PUSH4 0x8B21D2EF EQ PUSH2 0xB4 JUMPI DUP1 PUSH4 0xFDA23789 EQ PUSH2 0xD2 JUMPI JUMPDEST PUSH1 0x0 DUP1 REVERT JUMPDEST PUSH2 0x59 PUSH2 0x117 JUMP JUMPDEST PUSH1 0x40 MLOAD DUP1 DUP3 DUP2 MSTORE PUSH1 0x20 ADD SWAP2 POP POP PUSH1 0x40 MLOAD DUP1 SWAP2 SUB SWAP1 RETURN JUMPDEST PUSH2 0x9E PUSH1 0x4 DUP1 CALLDATASIZE SUB PUSH1 0x20 DUP2 LT ISZERO PUSH2 0x85 JUMPI PUSH1 0x0 DUP1 REVERT JUMPDEST DUP2 ADD SWAP1 DUP1 DUP1 CALLDATALOAD PUSH1 0xFF AND SWAP1 PUSH1 0x20 ADD SWAP1 SWAP3 SWAP2 SWAP1 POP POP POP PUSH2 0x172 JUMP JUMPDEST PUSH1 0x40 MLOAD DUP1 DUP3 DUP2 MSTORE PUSH1 0x20 ADD SWAP2 POP POP PUSH1 0x40 MLOAD DUP1 SWAP2 SUB SWAP1 RETURN JUMPDEST PUSH2 0xBC PUSH2 0x26B JUMP JUMPDEST PUSH1 0x40 MLOAD DUP1 DUP3 DUP2 MSTORE PUSH1 0x20 ADD SWAP2 POP POP PUSH1 0x40 MLOAD DUP1 SWAP2 SUB SWAP1 RETURN JUMPDEST PUSH2 0x101 PUSH1 0x4 DUP1 CALLDATASIZE SUB PUSH1 0x20 DUP2 LT ISZERO PUSH2 0xE8 JUMPI PUSH1 0x0 DUP1 REVERT JUMPDEST DUP2 ADD SWAP1 DUP1 DUP1 CALLDATALOAD PUSH1 0xFF AND SWAP1 PUSH1 0x20 ADD SWAP1 SWAP3 SWAP2 SWAP1 POP POP POP PUSH2 0x27D JUMP JUMPDEST PUSH1 0x40 MLOAD DUP1 DUP3 DUP2 MSTORE PUSH1 0x20 ADD SWAP2 POP POP PUSH1 0x40 MLOAD DUP1 SWAP2 SUB SWAP1 RETURN JUMPDEST PUSH1 0x0 DUP1 PUSH1 0x7 SWAP1 POP PUSH1 0x0 DUP2 PUSH8 0xFFFFFFFFFFFFFFFF DUP2 GT DUP1 ISZERO PUSH2 0x137 JUMPI PUSH1 0x0 DUP1 REVERT JUMPDEST POP PUSH1 0x40 MLOAD SWAP1 DUP1 DUP3 MSTORE DUP1 PUSH1 0x20 MUL PUSH1 0x20 ADD DUP3 ADD PUSH1 0x40 MSTORE DUP1 ISZERO PUSH2 0x166 JUMPI DUP2 PUSH1 0x20 ADD PUSH1 0x20 DUP3 MUL DUP1 CALLDATASIZE DUP4 CALLDATACOPY DUP1 DUP3 ADD SWAP2 POP POP SWAP1 POP JUMPDEST POP SWAP1 POP DUP1 MLOAD SWAP3 POP POP POP SWAP1 JUMP JUMPDEST PUSH1 0x0 DUP1 PUSH1 0xA SWAP1 POP PUSH1 0x0 DUP2 PUSH8 0xFFFFFFFFFFFFFFFF DUP2 GT DUP1 ISZERO PUSH2 0x192 JUMPI PUSH1 0x0 DUP1 REVERT JUMPDEST POP PUSH1 0x40 MLOAD SWAP1 DUP1 DUP3 MSTORE DUP1 PUSH1 0x20 MUL PUSH1 0x20 ADD DUP3 ADD PUSH1 0x40 MSTORE DUP1 ISZERO PUSH2 0x1C1 JUMPI DUP2 PUSH1 0x20 ADD PUSH1 0x20 DUP3 MUL DUP1 CALLDATASIZE DUP4 CALLDATACOPY DUP1 DUP3 ADD SWAP2 POP POP SWAP1 POP JUMPDEST POP SWAP1 POP PUSH1 0x2 DUP2 PUSH1 0x0 DUP2 MLOAD DUP2 LT PUSH2 0x1D3 JUMPI INVALID JUMPDEST PUSH1 0x20 MUL PUSH1 0x20 ADD ADD DUP2 DUP2 MSTORE POP POP PUSH1 0x4 DUP2 PUSH1 0x1 DUP2 MLOAD DUP2 LT PUSH2 0x1EE JUMPI INVALID JUMPDEST PUSH1 0x20 MUL PUSH1 0x20 ADD ADD DUP2 DUP2 MSTORE POP POP PUSH1 0x6 DUP2 PUSH1 0x2 DUP2 MLOAD DUP2 LT PUSH2 0x209 JUMPI INVALID JUMPDEST PUSH1 0x20 MUL PUSH1 0x20 ADD ADD DUP2 DUP2 MSTORE POP POP PUSH1 0x8 DUP2 PUSH1 0x3 DUP2 MLOAD DUP2 LT PUSH2 0x224 JUMPI INVALID JUMPDEST PUSH1 0x20 MUL PUSH1 0x20 ADD ADD DUP2 DUP2 MSTORE POP POP PUSH1 0xA DUP2 PUSH1 0x4 DUP2 MLOAD DUP2 LT PUSH2 0x23F JUMPI INVALID JUMPDEST PUSH1 0x20 MUL PUSH1 0x20 ADD ADD DUP2 DUP2 MSTORE POP POP DUP1 DUP5 PUSH1 0xFF AND DUP2 MLOAD DUP2 LT PUSH2 0x25A JUMPI INVALID JUMPDEST PUSH1 0x20 MUL PUSH1 0x20 ADD ADD MLOAD SWAP3 POP POP POP SWAP2 SWAP1 POP JUMP JUMPDEST PUSH1 0x0 PUSH2 0x275 PUSH2 0x31B JUMP JUMPDEST PUSH1 0xA SWAP2 POP POP SWAP1 JUMP JUMPDEST PUSH1 0x0 PUSH2 0x287 PUSH2 0x31B JUMP JUMPDEST PUSH1 0x5 DUP2 PUSH1 0x5 PUSH1 0xA DUP2 LT PUSH2 0x296 JUMPI INVALID JUMPDEST PUSH1 0x20 MUL ADD DUP2 DUP2 MSTORE POP POP PUSH1 0xA DUP2 PUSH1 0x6 PUSH1 0xA DUP2 LT PUSH2 0x2AE JUMPI INVALID JUMPDEST PUSH1 0x20 MUL ADD DUP2 DUP2 MSTORE POP POP PUSH1 0xF DUP2 PUSH1 0x7 PUSH1 0xA DUP2 LT PUSH2 0x2C6 JUMPI INVALID JUMPDEST PUSH1 0x20 MUL ADD DUP2 DUP2 MSTORE POP POP PUSH1 0x14 DUP2 PUSH1 0x8 PUSH1 0xA DUP2 LT PUSH2 0x2DE JUMPI INVALID JUMPDEST PUSH1 0x20 MUL ADD DUP2 DUP2 MSTORE POP POP PUSH1 0x19 DUP2 PUSH1 0x9 PUSH1 0xA DUP2 LT PUSH2 0x2F6 JUMPI INVALID JUMPDEST PUSH1 0x20 MUL ADD DUP2 DUP2 MSTORE POP POP DUP1 DUP4 PUSH1 0xFF AND PUSH1 0xA DUP2 LT PUSH2 0x30E JUMPI INVALID JUMPDEST PUSH1 0x20 MUL ADD MLOAD SWAP2 POP POP SWAP2 SWAP1 POP JUMP JUMPDEST PUSH1 0x40 MLOAD DUP1 PUSH2 0x140 ADD PUSH1 0x40 MSTORE DUP1 PUSH1 0xA SWAP1 PUSH1 0x20 DUP3 MUL DUP1 CALLDATASIZE DUP4 CALLDATACOPY DUP1 DUP3 ADD SWAP2 POP POP SWAP1 POP POP SWAP1 JUMP INVALID LOG2 PUSH5 0x6970667358 0x22 SLT KECCAK256 SELFBALANCE 0xD1 LOG0 0xE9 0x49 0xDD MUL PUSH10 0x631964C9720B992793F9 0x25 PUSH17 0xAD04EDB7C2CAE63B8FCAA0964736F6C63 NUMBER STOP SMOD MOD STOP CALLER "
				},
				"gasEstimates": {
					"creation": {
						"codeDepositCost": "176800",
						"executionCost": "220",
						"totalCost": "177020"
					},
					"external": {
						"arrayExplain1()": "infinite",
						"arrayExplain2()": "infinite",
						"arrayExplain3(uint8)": "infinite",
						"arrayExplain4(uint8)": "infinite"
					}
				},
				"methodIdentifiers": {
					"arrayExplain1()": "1841fd4f",
					"arrayExplain2()": "8b21d2ef",
					"arrayExplain3(uint8)": "5f861f21",
					"arrayExplain4(uint8)": "fda23789"
				}
			},
			"storageLayout": {
				"storage": [],
				"types": null
			},
			"userdoc": {
				"kind": "user",
				"methods": {},
				"version": 1
			}
		}
	}
}