{
	"contracts/Lab3.sol": {
		"Demo3": {
			"abi": [
				{
					"inputs": [],
					"name": "arrayExplain1",
					"outputs": [
						{
							"internalType": "uint256",
							"name": "",
							"type": "uint256"
						}
					],
					"stateMutability": "pure",
					"type": "function"
				},
				{
					"inputs": [],
					"name": "arrayExplain2",
					"outputs": [
						{
							"internalType": "uint256",
							"name": "",
							"type": "uint256"
						}
					],
					"stateMutability": "pure",
					"type": "function"
				},
				{
					"inputs": [
						{
							"internalType": "uint8",
							"name": "idx",
							"type": "uint8"
						}
					],
					"name": "arrayExplain3",
					"outputs": [
						{
							"internalType": "uint256",
							"name": "",
							"type": "uint256"
						}
					],
					"stateMutability": "pure",
					"type": "function"
				},
				{
					"inputs": [
						{
							"internalType": "uint8",
							"name": "idx",
							"type": "uint8"
						}
					],
					"name": "arrayExplain4",
					"outputs": [
						{
							"internalType": "uint256",
							"name": "",
							"type": "uint256"
						}
					],
					"stateMutability": "pure",
					"type": "function"
				},
				{
					"inputs": [],
					"name": "arrayExplain5",
					"outputs": [],
					"stateMutability": "nonpayable",
					"type": "function"
				},
				{
					"inputs": [],
					"name": "arrayExplain6",
					"outputs": [
						{
							"internalType": "uint256[10]",
							"name": "",
							"type": "uint256[10]"
						}
					],
					"stateMutability": "view",
					"type": "function"
				},
				{
					"inputs": [],
					"name": "arrayExplain7",
					"outputs": [
						{
							"internalType": "uint256[]",
							"name": "",
							"type": "uint256[]"
						}
					],
					"stateMutability": "view",
					"type": "function"
				},
				{
					"inputs": [
						{
							"internalType": "uint256",
							"name": "x",
							"type": "uint256"
						}
					],
					"name": "arrayExplain8",
					"outputs": [],
					"stateMutability": "nonpayable",
					"type": "function"
				},
				{
					"inputs": [],
					"name": "arrayExplain9",
					"outputs": [],
					"stateMutability": "nonpayable",
					"type": "function"
				},
				{
					"inputs": [
						{
							"internalType": "uint256",
							"name": "",
							"type": "uint256"
						}
					],
					"name": "members",
					"outputs": [
						{
							"internalType": "uint256",
							"name": "",
							"type": "uint256"
						}
					],
					"stateMutability": "view",
					"type": "function"
				},
				{
					"inputs": [
						{
							"internalType": "uint256",
							"name": "",
							"type": "uint256"
						}
					],
					"name": "members2",
					"outputs": [
						{
							"internalType": "uint256",
							"name": "",
							"type": "uint256"
						}
					],
					"stateMutability": "view",
					"type": "function"
				}
			],
			"devdoc": {
				"kind": "dev",
				"methods": {},
				"version": 1
			},
			"evm": {
				"assembly": "    /* \"contracts/Lab3.sol\":62:2063  contract Demo3 {\r... */\n  mstore(0x40, 0x80)\n    /* \"contracts/Lab3.sol\":987:989  10 */\n  0x0a\n    /* \"contracts/Lab3.sol\":973:990  new uint256[](10) */\n  0xffffffffffffffff\n  dup2\n  gt\n  dup1\n  iszero\n  tag_1\n  jumpi\n  0x00\n  dup1\n  revert\ntag_1:\n  pop\n  mload(0x40)\n  swap1\n  dup1\n  dup3\n  mstore\n  dup1\n  0x20\n  mul\n  0x20\n  add\n  dup3\n  add\n  0x40\n  mstore\n  dup1\n  iszero\n  tag_2\n  jumpi\n  dup2\n  0x20\n  add\n  0x20\n  dup3\n  mul\n  dup1\n  calldatasize\n  dup4\n  calldatacopy\n  dup1\n  dup3\n  add\n  swap2\n  pop\n  pop\n  swap1\n  pop\ntag_2:\n  pop\n    /* \"contracts/Lab3.sol\":945:990  uint256[] public members2 = new uint256[](10) */\n  0x0a\n  swap1\n  dup1\n  mload\n  swap1\n  0x20\n  add\n  swap1\n  tag_3\n  swap3\n  swap2\n  swap1\n  tag_4\n  jump\t// in\ntag_3:\n  pop\n    /* \"contracts/Lab3.sol\":62:2063  contract Demo3 {\r... */\n  callvalue\n  dup1\n  iszero\n  tag_5\n  jumpi\n  0x00\n  dup1\n  revert\ntag_5:\n  pop\n  jump(tag_6)\ntag_4:\n  dup3\n  dup1\n  sload\n  dup3\n  dup3\n  sstore\n  swap1\n  0x00\n  mstore\n  keccak256(0x00, 0x20)\n  swap1\n  dup2\n  add\n  swap3\n  dup3\n  iszero\n  tag_7\n  jumpi\n  swap2\n  0x20\n  mul\n  dup3\n  add\ntag_8:\n  dup3\n  dup2\n  gt\n  iszero\n  tag_9\n  jumpi\n  dup3\n  mload\n  dup3\n  sstore\n  swap2\n  0x20\n  add\n  swap2\n  swap1\n  0x01\n  add\n  swap1\n  jump(tag_8)\ntag_9:\ntag_7:\n  pop\n  swap1\n  pop\n  tag_10\n  swap2\n  swap1\n  tag_11\n  jump\t// in\ntag_10:\n  pop\n  swap1\n  jump\t// out\ntag_11:\ntag_12:\n  dup1\n  dup3\n  gt\n  iszero\n  tag_13\n  jumpi\n  0x00\n  dup2\n  0x00\n  swap1\n  sstore\n  pop\n  0x01\n  add\n  jump(tag_12)\ntag_13:\n  pop\n  swap1\n  jump\t// out\ntag_6:\n  dataSize(sub_0)\n  dup1\n  dataOffset(sub_0)\n  0x00\n  codecopy\n  0x00\n  return\nstop\n\nsub_0: assembly {\n        /* \"contracts/Lab3.sol\":62:2063  contract Demo3 {\r... */\n      mstore(0x40, 0x80)\n      callvalue\n      dup1\n      iszero\n      tag_1\n      jumpi\n      0x00\n      dup1\n      revert\n    tag_1:\n      pop\n      jumpi(tag_2, lt(calldatasize, 0x04))\n      shr(0xe0, calldataload(0x00))\n      dup1\n      0x58b9c8c7\n      gt\n      tag_14\n      jumpi\n      dup1\n      0x58b9c8c7\n      eq\n      tag_8\n      jumpi\n      dup1\n      0x5daf08ca\n      eq\n      tag_9\n      jumpi\n      dup1\n      0x5f861f21\n      eq\n      tag_10\n      jumpi\n      dup1\n      0x8b21d2ef\n      eq\n      tag_11\n      jumpi\n      dup1\n      0xa8bcab20\n      eq\n      tag_12\n      jumpi\n      dup1\n      0xfda23789\n      eq\n      tag_13\n      jumpi\n      jump(tag_2)\n    tag_14:\n      dup1\n      0xb7f604\n      eq\n      tag_3\n      jumpi\n      dup1\n      0x04f40427\n      eq\n      tag_4\n      jumpi\n      dup1\n      0x132b86bd\n      eq\n      tag_5\n      jumpi\n      dup1\n      0x1841fd4f\n      eq\n      tag_6\n      jumpi\n      dup1\n      0x4ff894be\n      eq\n      tag_7\n      jumpi\n    tag_2:\n      0x00\n      dup1\n      revert\n        /* \"contracts/Lab3.sol\":1867:2060  function arrayExplain9() public {\r... */\n    tag_3:\n      tag_15\n      tag_16\n      jump\t// in\n    tag_15:\n      stop\n        /* \"contracts/Lab3.sol\":1549:1647  function arrayExplain6() public view returns(uint256[10] memory) {\r... */\n    tag_4:\n      tag_17\n      tag_18\n      jump\t// in\n    tag_17:\n      mload(0x40)\n      dup1\n      dup3\n      mul(0x20, 0x0a)\n      dup1\n      dup4\n      dup4\n      0x00\n    tag_19:\n      dup4\n      dup2\n      lt\n      iszero\n      tag_21\n      jumpi\n      dup1\n      dup3\n      add\n      mload\n      dup2\n      dup5\n      add\n      mstore\n      0x20\n      dup2\n      add\n      swap1\n      pop\n      jump(tag_19)\n    tag_21:\n      pop\n      pop\n      pop\n      pop\n      swap1\n      pop\n      add\n      swap2\n      pop\n      pop\n      mload(0x40)\n      dup1\n      swap2\n      sub\n      swap1\n      return\n        /* \"contracts/Lab3.sol\":1655:1752  function arrayExplain7() public view returns(uint256[] memory) {\r... */\n    tag_5:\n      tag_22\n      tag_23\n      jump\t// in\n    tag_22:\n      mload(0x40)\n      dup1\n      dup1\n      0x20\n      add\n      dup3\n      dup2\n      sub\n      dup3\n      mstore\n      dup4\n      dup2\n      dup2\n      mload\n      dup2\n      mstore\n      0x20\n      add\n      swap2\n      pop\n      dup1\n      mload\n      swap1\n      0x20\n      add\n      swap1\n      0x20\n      mul\n      dup1\n      dup4\n      dup4\n      0x00\n    tag_24:\n      dup4\n      dup2\n      lt\n      iszero\n      tag_26\n      jumpi\n      dup1\n      dup3\n      add\n      mload\n      dup2\n      dup5\n      add\n      mstore\n      0x20\n      dup2\n      add\n      swap1\n      pop\n      jump(tag_24)\n    tag_26:\n      pop\n      pop\n      pop\n      pop\n      swap1\n      pop\n      add\n      swap3\n      pop\n      pop\n      pop\n      mload(0x40)\n      dup1\n      swap2\n      sub\n      swap1\n      return\n        /* \"contracts/Lab3.sol\":111:271  function arrayExplain1() public pure returns(uint256){\r... */\n    tag_6:\n      tag_27\n      tag_28\n      jump\t// in\n    tag_27:\n      mload(0x40)\n      dup1\n      dup3\n      dup2\n      mstore\n      0x20\n      add\n      swap2\n      pop\n      pop\n      mload(0x40)\n      dup1\n      swap2\n      sub\n      swap1\n      return\n        /* \"contracts/Lab3.sol\":1760:1861  function arrayExplain8(uint x) public {\r... */\n    tag_7:\n      tag_29\n      0x04\n      dup1\n      calldatasize\n      sub\n      0x20\n      dup2\n      lt\n      iszero\n      tag_30\n      jumpi\n      0x00\n      dup1\n      revert\n    tag_30:\n      dup2\n      add\n      swap1\n      dup1\n      dup1\n      calldataload\n      swap1\n      0x20\n      add\n      swap1\n      swap3\n      swap2\n      swap1\n      pop\n      pop\n      pop\n      tag_31\n      jump\t// in\n    tag_29:\n      stop\n        /* \"contracts/Lab3.sol\":997:1541  function arrayExplain5() public  {\r... */\n    tag_8:\n      tag_32\n      tag_33\n      jump\t// in\n    tag_32:\n      stop\n        /* \"contracts/Lab3.sol\":912:938  uint256[10] public members */\n    tag_9:\n      tag_34\n      0x04\n      dup1\n      calldatasize\n      sub\n      0x20\n      dup2\n      lt\n      iszero\n      tag_35\n      jumpi\n      0x00\n      dup1\n      revert\n    tag_35:\n      dup2\n      add\n      swap1\n      dup1\n      dup1\n      calldataload\n      swap1\n      0x20\n      add\n      swap1\n      swap3\n      swap2\n      swap1\n      pop\n      pop\n      pop\n      tag_36\n      jump\t// in\n    tag_34:\n      mload(0x40)\n      dup1\n      dup3\n      dup2\n      mstore\n      0x20\n      add\n      swap2\n      pop\n      pop\n      mload(0x40)\n      dup1\n      swap2\n      sub\n      swap1\n      return\n        /* \"contracts/Lab3.sol\":430:684  function arrayExplain3(uint8 idx) public pure returns(uint256){\r... */\n    tag_10:\n      tag_37\n      0x04\n      dup1\n      calldatasize\n      sub\n      0x20\n      dup2\n      lt\n      iszero\n      tag_38\n      jumpi\n      0x00\n      dup1\n      revert\n    tag_38:\n      dup2\n      add\n      swap1\n      dup1\n      dup1\n      calldataload\n      0xff\n      and\n      swap1\n      0x20\n      add\n      swap1\n      swap3\n      swap2\n      swap1\n      pop\n      pop\n      pop\n      tag_39\n      jump\t// in\n    tag_37:\n      mload(0x40)\n      dup1\n      dup3\n      dup2\n      mstore\n      0x20\n      add\n      swap2\n      pop\n      pop\n      mload(0x40)\n      dup1\n      swap2\n      sub\n      swap1\n      return\n        /* \"contracts/Lab3.sol\":305:423  function arrayExplain2() public pure returns(uint256){\r... */\n    tag_11:\n      tag_40\n      tag_41\n      jump\t// in\n    tag_40:\n      mload(0x40)\n      dup1\n      dup3\n      dup2\n      mstore\n      0x20\n      add\n      swap2\n      pop\n      pop\n      mload(0x40)\n      dup1\n      swap2\n      sub\n      swap1\n      return\n        /* \"contracts/Lab3.sol\":945:990  uint256[] public members2 = new uint256[](10) */\n    tag_12:\n      tag_42\n      0x04\n      dup1\n      calldatasize\n      sub\n      0x20\n      dup2\n      lt\n      iszero\n      tag_43\n      jumpi\n      0x00\n      dup1\n      revert\n    tag_43:\n      dup2\n      add\n      swap1\n      dup1\n      dup1\n      calldataload\n      swap1\n      0x20\n      add\n      swap1\n      swap3\n      swap2\n      swap1\n      pop\n      pop\n      pop\n      tag_44\n      jump\t// in\n    tag_42:\n      mload(0x40)\n      dup1\n      dup3\n      dup2\n      mstore\n      0x20\n      add\n      swap2\n      pop\n      pop\n      mload(0x40)\n      dup1\n      swap2\n      sub\n      swap1\n      return\n        /* \"contracts/Lab3.sol\":690:904  function arrayExplain4(uint8 idx) public pure returns(uint256){\r... */\n    tag_13:\n      tag_45\n      0x04\n      dup1\n      calldatasize\n      sub\n      0x20\n      dup2\n      lt\n      iszero\n      tag_46\n      jumpi\n      0x00\n      dup1\n      revert\n    tag_46:\n      dup2\n      add\n      swap1\n      dup1\n      dup1\n      calldataload\n      0xff\n      and\n      swap1\n      0x20\n      add\n      swap1\n      swap3\n      swap2\n      swap1\n      pop\n      pop\n      pop\n      tag_47\n      jump\t// in\n    tag_45:\n      mload(0x40)\n      dup1\n      dup3\n      dup2\n      mstore\n      0x20\n      add\n      swap2\n      pop\n      pop\n      mload(0x40)\n      dup1\n      swap2\n      sub\n      swap1\n      return\n        /* \"contracts/Lab3.sol\":1867:2060  function arrayExplain9() public {\r... */\n    tag_16:\n      jump\t// out\n        /* \"contracts/Lab3.sol\":1549:1647  function arrayExplain6() public view returns(uint256[10] memory) {\r... */\n    tag_18:\n        /* \"contracts/Lab3.sol\":1594:1612  uint256[10] memory */\n      tag_49\n      tag_50\n      jump\t// in\n    tag_49:\n        /* \"contracts/Lab3.sol\":1632:1639  members */\n      0x00\n        /* \"contracts/Lab3.sol\":1625:1639  return members */\n      0x0a\n      dup1\n      0x20\n      mul\n      mload(0x40)\n      swap1\n      dup2\n      add\n      0x40\n      mstore\n      dup1\n      swap3\n      swap2\n      swap1\n      dup3\n      0x0a\n      dup1\n      iszero\n      tag_52\n      jumpi\n      0x20\n      mul\n      dup3\n      add\n      swap2\n    tag_53:\n      dup2\n      sload\n      dup2\n      mstore\n      0x20\n      add\n      swap1\n      0x01\n      add\n      swap1\n      dup1\n      dup4\n      gt\n      tag_53\n      jumpi\n    tag_52:\n      pop\n      pop\n      pop\n      pop\n      pop\n      swap1\n      pop\n        /* \"contracts/Lab3.sol\":1549:1647  function arrayExplain6() public view returns(uint256[10] memory) {\r... */\n      swap1\n      jump\t// out\n        /* \"contracts/Lab3.sol\":1655:1752  function arrayExplain7() public view returns(uint256[] memory) {\r... */\n    tag_23:\n        /* \"contracts/Lab3.sol\":1700:1716  uint256[] memory */\n      0x60\n        /* \"contracts/Lab3.sol\":1736:1744  members2 */\n      0x0a\n        /* \"contracts/Lab3.sol\":1729:1744  return members2 */\n      dup1\n      sload\n      dup1\n      0x20\n      mul\n      0x20\n      add\n      mload(0x40)\n      swap1\n      dup2\n      add\n      0x40\n      mstore\n      dup1\n      swap3\n      swap2\n      swap1\n      dup2\n      dup2\n      mstore\n      0x20\n      add\n      dup3\n      dup1\n      sload\n      dup1\n      iszero\n      tag_55\n      jumpi\n      0x20\n      mul\n      dup3\n      add\n      swap2\n      swap1\n      0x00\n      mstore\n      keccak256(0x00, 0x20)\n      swap1\n    tag_56:\n      dup2\n      sload\n      dup2\n      mstore\n      0x20\n      add\n      swap1\n      0x01\n      add\n      swap1\n      dup1\n      dup4\n      gt\n      tag_56\n      jumpi\n    tag_55:\n      pop\n      pop\n      pop\n      pop\n      pop\n      swap1\n      pop\n        /* \"contracts/Lab3.sol\":1655:1752  function arrayExplain7() public view returns(uint256[] memory) {\r... */\n      swap1\n      jump\t// out\n        /* \"contracts/Lab3.sol\":111:271  function arrayExplain1() public pure returns(uint256){\r... */\n    tag_28:\n        /* \"contracts/Lab3.sol\":156:163  uint256 */\n      0x00\n        /* \"contracts/Lab3.sol\":175:183  uint len */\n      dup1\n        /* \"contracts/Lab3.sol\":186:187  7 */\n      0x07\n        /* \"contracts/Lab3.sol\":175:187  uint len = 7 */\n      swap1\n      pop\n        /* \"contracts/Lab3.sol\":198:216  uint256[] memory a */\n      0x00\n        /* \"contracts/Lab3.sol\":233:236  len */\n      dup2\n        /* \"contracts/Lab3.sol\":219:237  new uint256[](len) */\n      0xffffffffffffffff\n      dup2\n      gt\n      dup1\n      iszero\n      tag_58\n      jumpi\n      0x00\n      dup1\n      revert\n    tag_58:\n      pop\n      mload(0x40)\n      swap1\n      dup1\n      dup3\n      mstore\n      dup1\n      0x20\n      mul\n      0x20\n      add\n      dup3\n      add\n      0x40\n      mstore\n      dup1\n      iszero\n      tag_59\n      jumpi\n      dup2\n      0x20\n      add\n      0x20\n      dup3\n      mul\n      dup1\n      calldatasize\n      dup4\n      calldatacopy\n      dup1\n      dup3\n      add\n      swap2\n      pop\n      pop\n      swap1\n      pop\n    tag_59:\n      pop\n        /* \"contracts/Lab3.sol\":198:237  uint256[] memory a = new uint256[](len) */\n      swap1\n      pop\n        /* \"contracts/Lab3.sol\":255:256  a */\n      dup1\n        /* \"contracts/Lab3.sol\":255:263  a.length */\n      mload\n        /* \"contracts/Lab3.sol\":248:263  return a.length */\n      swap3\n      pop\n      pop\n      pop\n        /* \"contracts/Lab3.sol\":111:271  function arrayExplain1() public pure returns(uint256){\r... */\n      swap1\n      jump\t// out\n        /* \"contracts/Lab3.sol\":1760:1861  function arrayExplain8(uint x) public {\r... */\n    tag_31:\n        /* \"contracts/Lab3.sol\":1837:1845  members2 */\n      0x0a\n        /* \"contracts/Lab3.sol\":1851:1852  x */\n      dup2\n        /* \"contracts/Lab3.sol\":1837:1853  members2.push(x) */\n      swap1\n      dup1\n      0x01\n      dup2\n      sload\n      add\n      dup1\n      dup3\n      sstore\n      dup1\n      swap2\n      pop\n      pop\n      0x01\n      swap1\n      sub\n      swap1\n      0x00\n      mstore\n      keccak256(0x00, 0x20)\n      add\n      0x00\n      swap1\n      swap2\n      swap1\n      swap2\n      swap1\n      swap2\n      pop\n      sstore\n        /* \"contracts/Lab3.sol\":1760:1861  function arrayExplain8(uint x) public {\r... */\n      pop\n      jump\t// out\n        /* \"contracts/Lab3.sol\":997:1541  function arrayExplain5() public  {\r... */\n    tag_33:\n        /* \"contracts/Lab3.sol\":1052:1055  100 */\n      0x64\n        /* \"contracts/Lab3.sol\":1041:1048  members */\n      0x00\n        /* \"contracts/Lab3.sol\":1049:1050  0 */\n      dup1\n        /* \"contracts/Lab3.sol\":1041:1051  members[0] */\n      0x0a\n      dup2\n      lt\n      tag_63\n      jumpi\n      invalid\n    tag_63:\n      add\n        /* \"contracts/Lab3.sol\":1041:1055  members[0]=100 */\n      dup2\n      swap1\n      sstore\n      pop\n        /* \"contracts/Lab3.sol\":1077:1079  99 */\n      0x63\n        /* \"contracts/Lab3.sol\":1066:1073  members */\n      0x00\n        /* \"contracts/Lab3.sol\":1074:1075  1 */\n      0x01\n        /* \"contracts/Lab3.sol\":1066:1076  members[1] */\n      0x0a\n      dup2\n      lt\n      tag_65\n      jumpi\n      invalid\n    tag_65:\n      add\n        /* \"contracts/Lab3.sol\":1066:1079  members[1]=99 */\n      dup2\n      swap1\n      sstore\n      pop\n        /* \"contracts/Lab3.sol\":1101:1103  98 */\n      0x62\n        /* \"contracts/Lab3.sol\":1090:1097  members */\n      0x00\n        /* \"contracts/Lab3.sol\":1098:1099  2 */\n      0x02\n        /* \"contracts/Lab3.sol\":1090:1100  members[2] */\n      0x0a\n      dup2\n      lt\n      tag_67\n      jumpi\n      invalid\n    tag_67:\n      add\n        /* \"contracts/Lab3.sol\":1090:1103  members[2]=98 */\n      dup2\n      swap1\n      sstore\n      pop\n        /* \"contracts/Lab3.sol\":1125:1127  97 */\n      0x61\n        /* \"contracts/Lab3.sol\":1114:1121  members */\n      0x00\n        /* \"contracts/Lab3.sol\":1122:1123  3 */\n      0x03\n        /* \"contracts/Lab3.sol\":1114:1124  members[3] */\n      0x0a\n      dup2\n      lt\n      tag_69\n      jumpi\n      invalid\n    tag_69:\n      add\n        /* \"contracts/Lab3.sol\":1114:1127  members[3]=97 */\n      dup2\n      swap1\n      sstore\n      pop\n        /* \"contracts/Lab3.sol\":1149:1151  96 */\n      0x60\n        /* \"contracts/Lab3.sol\":1138:1145  members */\n      0x00\n        /* \"contracts/Lab3.sol\":1146:1147  4 */\n      0x04\n        /* \"contracts/Lab3.sol\":1138:1148  members[4] */\n      0x0a\n      dup2\n      lt\n      tag_71\n      jumpi\n      invalid\n    tag_71:\n      add\n        /* \"contracts/Lab3.sol\":1138:1151  members[4]=96 */\n      dup2\n      swap1\n      sstore\n      pop\n        /* \"contracts/Lab3.sol\":1173:1175  95 */\n      0x5f\n        /* \"contracts/Lab3.sol\":1162:1169  members */\n      0x00\n        /* \"contracts/Lab3.sol\":1170:1171  5 */\n      0x05\n        /* \"contracts/Lab3.sol\":1162:1172  members[5] */\n      0x0a\n      dup2\n      lt\n      tag_73\n      jumpi\n      invalid\n    tag_73:\n      add\n        /* \"contracts/Lab3.sol\":1162:1175  members[5]=95 */\n      dup2\n      swap1\n      sstore\n      pop\n        /* \"contracts/Lab3.sol\":1197:1199  94 */\n      0x5e\n        /* \"contracts/Lab3.sol\":1186:1193  members */\n      0x00\n        /* \"contracts/Lab3.sol\":1194:1195  6 */\n      0x06\n        /* \"contracts/Lab3.sol\":1186:1196  members[6] */\n      0x0a\n      dup2\n      lt\n      tag_75\n      jumpi\n      invalid\n    tag_75:\n      add\n        /* \"contracts/Lab3.sol\":1186:1199  members[6]=94 */\n      dup2\n      swap1\n      sstore\n      pop\n        /* \"contracts/Lab3.sol\":1221:1223  93 */\n      0x5d\n        /* \"contracts/Lab3.sol\":1210:1217  members */\n      0x00\n        /* \"contracts/Lab3.sol\":1218:1219  7 */\n      0x07\n        /* \"contracts/Lab3.sol\":1210:1220  members[7] */\n      0x0a\n      dup2\n      lt\n      tag_77\n      jumpi\n      invalid\n    tag_77:\n      add\n        /* \"contracts/Lab3.sol\":1210:1223  members[7]=93 */\n      dup2\n      swap1\n      sstore\n      pop\n        /* \"contracts/Lab3.sol\":1245:1247  92 */\n      0x5c\n        /* \"contracts/Lab3.sol\":1234:1241  members */\n      0x00\n        /* \"contracts/Lab3.sol\":1242:1243  8 */\n      0x08\n        /* \"contracts/Lab3.sol\":1234:1244  members[8] */\n      0x0a\n      dup2\n      lt\n      tag_79\n      jumpi\n      invalid\n    tag_79:\n      add\n        /* \"contracts/Lab3.sol\":1234:1247  members[8]=92 */\n      dup2\n      swap1\n      sstore\n      pop\n        /* \"contracts/Lab3.sol\":1269:1271  91 */\n      0x5b\n        /* \"contracts/Lab3.sol\":1258:1265  members */\n      0x00\n        /* \"contracts/Lab3.sol\":1266:1267  9 */\n      0x09\n        /* \"contracts/Lab3.sol\":1258:1268  members[9] */\n      0x0a\n      dup2\n      lt\n      tag_81\n      jumpi\n      invalid\n    tag_81:\n      add\n        /* \"contracts/Lab3.sol\":1258:1271  members[9]=91 */\n      dup2\n      swap1\n      sstore\n      pop\n        /* \"contracts/Lab3.sol\":1296:1299  101 */\n      0x65\n        /* \"contracts/Lab3.sol\":1284:1292  members2 */\n      0x0a\n        /* \"contracts/Lab3.sol\":1293:1294  0 */\n      0x00\n        /* \"contracts/Lab3.sol\":1284:1295  members2[0] */\n      dup2\n      sload\n      dup2\n      lt\n      tag_83\n      jumpi\n      invalid\n    tag_83:\n      swap1\n      0x00\n      mstore\n      keccak256(0x00, 0x20)\n      add\n        /* \"contracts/Lab3.sol\":1284:1299  members2[0]=101 */\n      dup2\n      swap1\n      sstore\n      pop\n        /* \"contracts/Lab3.sol\":1322:1325  102 */\n      0x66\n        /* \"contracts/Lab3.sol\":1310:1318  members2 */\n      0x0a\n        /* \"contracts/Lab3.sol\":1319:1320  1 */\n      0x01\n        /* \"contracts/Lab3.sol\":1310:1321  members2[1] */\n      dup2\n      sload\n      dup2\n      lt\n      tag_85\n      jumpi\n      invalid\n    tag_85:\n      swap1\n      0x00\n      mstore\n      keccak256(0x00, 0x20)\n      add\n        /* \"contracts/Lab3.sol\":1310:1325  members2[1]=102 */\n      dup2\n      swap1\n      sstore\n      pop\n        /* \"contracts/Lab3.sol\":1348:1351  103 */\n      0x67\n        /* \"contracts/Lab3.sol\":1336:1344  members2 */\n      0x0a\n        /* \"contracts/Lab3.sol\":1345:1346  2 */\n      0x02\n        /* \"contracts/Lab3.sol\":1336:1347  members2[2] */\n      dup2\n      sload\n      dup2\n      lt\n      tag_87\n      jumpi\n      invalid\n    tag_87:\n      swap1\n      0x00\n      mstore\n      keccak256(0x00, 0x20)\n      add\n        /* \"contracts/Lab3.sol\":1336:1351  members2[2]=103 */\n      dup2\n      swap1\n      sstore\n      pop\n        /* \"contracts/Lab3.sol\":1374:1377  104 */\n      0x68\n        /* \"contracts/Lab3.sol\":1362:1370  members2 */\n      0x0a\n        /* \"contracts/Lab3.sol\":1371:1372  3 */\n      0x03\n        /* \"contracts/Lab3.sol\":1362:1373  members2[3] */\n      dup2\n      sload\n      dup2\n      lt\n      tag_89\n      jumpi\n      invalid\n    tag_89:\n      swap1\n      0x00\n      mstore\n      keccak256(0x00, 0x20)\n      add\n        /* \"contracts/Lab3.sol\":1362:1377  members2[3]=104 */\n      dup2\n      swap1\n      sstore\n      pop\n        /* \"contracts/Lab3.sol\":1400:1403  105 */\n      0x69\n        /* \"contracts/Lab3.sol\":1388:1396  members2 */\n      0x0a\n        /* \"contracts/Lab3.sol\":1397:1398  4 */\n      0x04\n        /* \"contracts/Lab3.sol\":1388:1399  members2[4] */\n      dup2\n      sload\n      dup2\n      lt\n      tag_91\n      jumpi\n      invalid\n    tag_91:\n      swap1\n      0x00\n      mstore\n      keccak256(0x00, 0x20)\n      add\n        /* \"contracts/Lab3.sol\":1388:1403  members2[4]=105 */\n      dup2\n      swap1\n      sstore\n      pop\n        /* \"contracts/Lab3.sol\":1426:1429  106 */\n      0x6a\n        /* \"contracts/Lab3.sol\":1414:1422  members2 */\n      0x0a\n        /* \"contracts/Lab3.sol\":1423:1424  5 */\n      0x05\n        /* \"contracts/Lab3.sol\":1414:1425  members2[5] */\n      dup2\n      sload\n      dup2\n      lt\n      tag_93\n      jumpi\n      invalid\n    tag_93:\n      swap1\n      0x00\n      mstore\n      keccak256(0x00, 0x20)\n      add\n        /* \"contracts/Lab3.sol\":1414:1429  members2[5]=106 */\n      dup2\n      swap1\n      sstore\n      pop\n        /* \"contracts/Lab3.sol\":1452:1455  107 */\n      0x6b\n        /* \"contracts/Lab3.sol\":1440:1448  members2 */\n      0x0a\n        /* \"contracts/Lab3.sol\":1449:1450  6 */\n      0x06\n        /* \"contracts/Lab3.sol\":1440:1451  members2[6] */\n      dup2\n      sload\n      dup2\n      lt\n      tag_95\n      jumpi\n      invalid\n    tag_95:\n      swap1\n      0x00\n      mstore\n      keccak256(0x00, 0x20)\n      add\n        /* \"contracts/Lab3.sol\":1440:1455  members2[6]=107 */\n      dup2\n      swap1\n      sstore\n      pop\n        /* \"contracts/Lab3.sol\":1478:1481  108 */\n      0x6c\n        /* \"contracts/Lab3.sol\":1466:1474  members2 */\n      0x0a\n        /* \"contracts/Lab3.sol\":1475:1476  7 */\n      0x07\n        /* \"contracts/Lab3.sol\":1466:1477  members2[7] */\n      dup2\n      sload\n      dup2\n      lt\n      tag_97\n      jumpi\n      invalid\n    tag_97:\n      swap1\n      0x00\n      mstore\n      keccak256(0x00, 0x20)\n      add\n        /* \"contracts/Lab3.sol\":1466:1481  members2[7]=108 */\n      dup2\n      swap1\n      sstore\n      pop\n        /* \"contracts/Lab3.sol\":1504:1507  109 */\n      0x6d\n        /* \"contracts/Lab3.sol\":1492:1500  members2 */\n      0x0a\n        /* \"contracts/Lab3.sol\":1501:1502  8 */\n      0x08\n        /* \"contracts/Lab3.sol\":1492:1503  members2[8] */\n      dup2\n      sload\n      dup2\n      lt\n      tag_99\n      jumpi\n      invalid\n    tag_99:\n      swap1\n      0x00\n      mstore\n      keccak256(0x00, 0x20)\n      add\n        /* \"contracts/Lab3.sol\":1492:1507  members2[8]=109 */\n      dup2\n      swap1\n      sstore\n      pop\n        /* \"contracts/Lab3.sol\":1530:1533  110 */\n      0x6e\n        /* \"contracts/Lab3.sol\":1518:1526  members2 */\n      0x0a\n        /* \"contracts/Lab3.sol\":1527:1528  9 */\n      0x09\n        /* \"contracts/Lab3.sol\":1518:1529  members2[9] */\n      dup2\n      sload\n      dup2\n      lt\n      tag_101\n      jumpi\n      invalid\n    tag_101:\n      swap1\n      0x00\n      mstore\n      keccak256(0x00, 0x20)\n      add\n        /* \"contracts/Lab3.sol\":1518:1533  members2[9]=110 */\n      dup2\n      swap1\n      sstore\n      pop\n        /* \"contracts/Lab3.sol\":997:1541  function arrayExplain5() public  {\r... */\n      jump\t// out\n        /* \"contracts/Lab3.sol\":912:938  uint256[10] public members */\n    tag_36:\n      0x00\n      dup2\n      0x0a\n      dup2\n      lt\n      tag_103\n      jumpi\n      0x00\n      dup1\n      revert\n    tag_103:\n      add\n      0x00\n      swap2\n      pop\n      swap1\n      pop\n      sload\n      dup2\n      jump\t// out\n        /* \"contracts/Lab3.sol\":430:684  function arrayExplain3(uint8 idx) public pure returns(uint256){\r... */\n    tag_39:\n        /* \"contracts/Lab3.sol\":484:491  uint256 */\n      0x00\n        /* \"contracts/Lab3.sol\":503:511  uint len */\n      dup1\n        /* \"contracts/Lab3.sol\":514:516  10 */\n      0x0a\n        /* \"contracts/Lab3.sol\":503:516  uint len = 10 */\n      swap1\n      pop\n        /* \"contracts/Lab3.sol\":527:545  uint256[] memory a */\n      0x00\n        /* \"contracts/Lab3.sol\":562:565  len */\n      dup2\n        /* \"contracts/Lab3.sol\":548:566  new uint256[](len) */\n      0xffffffffffffffff\n      dup2\n      gt\n      dup1\n      iszero\n      tag_106\n      jumpi\n      0x00\n      dup1\n      revert\n    tag_106:\n      pop\n      mload(0x40)\n      swap1\n      dup1\n      dup3\n      mstore\n      dup1\n      0x20\n      mul\n      0x20\n      add\n      dup3\n      add\n      0x40\n      mstore\n      dup1\n      iszero\n      tag_107\n      jumpi\n      dup2\n      0x20\n      add\n      0x20\n      dup3\n      mul\n      dup1\n      calldatasize\n      dup4\n      calldatacopy\n      dup1\n      dup3\n      add\n      swap2\n      pop\n      pop\n      swap1\n      pop\n    tag_107:\n      pop\n        /* \"contracts/Lab3.sol\":527:566  uint256[] memory a = new uint256[](len) */\n      swap1\n      pop\n        /* \"contracts/Lab3.sol\":582:583  2 */\n      0x02\n        /* \"contracts/Lab3.sol\":577:578  a */\n      dup2\n        /* \"contracts/Lab3.sol\":579:580  0 */\n      0x00\n        /* \"contracts/Lab3.sol\":577:581  a[0] */\n      dup2\n      mload\n      dup2\n      lt\n      tag_108\n      jumpi\n      invalid\n    tag_108:\n      0x20\n      mul\n      0x20\n      add\n      add\n        /* \"contracts/Lab3.sol\":577:583  a[0]=2 */\n      dup2\n      dup2\n      mstore\n      pop\n      pop\n        /* \"contracts/Lab3.sol\":599:600  4 */\n      0x04\n        /* \"contracts/Lab3.sol\":594:595  a */\n      dup2\n        /* \"contracts/Lab3.sol\":596:597  1 */\n      0x01\n        /* \"contracts/Lab3.sol\":594:598  a[1] */\n      dup2\n      mload\n      dup2\n      lt\n      tag_109\n      jumpi\n      invalid\n    tag_109:\n      0x20\n      mul\n      0x20\n      add\n      add\n        /* \"contracts/Lab3.sol\":594:600  a[1]=4 */\n      dup2\n      dup2\n      mstore\n      pop\n      pop\n        /* \"contracts/Lab3.sol\":616:617  6 */\n      0x06\n        /* \"contracts/Lab3.sol\":611:612  a */\n      dup2\n        /* \"contracts/Lab3.sol\":613:614  2 */\n      0x02\n        /* \"contracts/Lab3.sol\":611:615  a[2] */\n      dup2\n      mload\n      dup2\n      lt\n      tag_110\n      jumpi\n      invalid\n    tag_110:\n      0x20\n      mul\n      0x20\n      add\n      add\n        /* \"contracts/Lab3.sol\":611:617  a[2]=6 */\n      dup2\n      dup2\n      mstore\n      pop\n      pop\n        /* \"contracts/Lab3.sol\":633:634  8 */\n      0x08\n        /* \"contracts/Lab3.sol\":628:629  a */\n      dup2\n        /* \"contracts/Lab3.sol\":630:631  3 */\n      0x03\n        /* \"contracts/Lab3.sol\":628:632  a[3] */\n      dup2\n      mload\n      dup2\n      lt\n      tag_111\n      jumpi\n      invalid\n    tag_111:\n      0x20\n      mul\n      0x20\n      add\n      add\n        /* \"contracts/Lab3.sol\":628:634  a[3]=8 */\n      dup2\n      dup2\n      mstore\n      pop\n      pop\n        /* \"contracts/Lab3.sol\":650:652  10 */\n      0x0a\n        /* \"contracts/Lab3.sol\":645:646  a */\n      dup2\n        /* \"contracts/Lab3.sol\":647:648  4 */\n      0x04\n        /* \"contracts/Lab3.sol\":645:649  a[4] */\n      dup2\n      mload\n      dup2\n      lt\n      tag_112\n      jumpi\n      invalid\n    tag_112:\n      0x20\n      mul\n      0x20\n      add\n      add\n        /* \"contracts/Lab3.sol\":645:652  a[4]=10 */\n      dup2\n      dup2\n      mstore\n      pop\n      pop\n        /* \"contracts/Lab3.sol\":670:671  a */\n      dup1\n        /* \"contracts/Lab3.sol\":672:675  idx */\n      dup5\n        /* \"contracts/Lab3.sol\":670:676  a[idx] */\n      0xff\n      and\n      dup2\n      mload\n      dup2\n      lt\n      tag_113\n      jumpi\n      invalid\n    tag_113:\n      0x20\n      mul\n      0x20\n      add\n      add\n      mload\n        /* \"contracts/Lab3.sol\":663:676  return a[idx] */\n      swap3\n      pop\n      pop\n      pop\n        /* \"contracts/Lab3.sol\":430:684  function arrayExplain3(uint8 idx) public pure returns(uint256){\r... */\n      swap2\n      swap1\n      pop\n      jump\t// out\n        /* \"contracts/Lab3.sol\":305:423  function arrayExplain2() public pure returns(uint256){\r... */\n    tag_41:\n        /* \"contracts/Lab3.sol\":350:357  uint256 */\n      0x00\n        /* \"contracts/Lab3.sol\":369:389  uint256[10] memory b */\n      tag_115\n      tag_50\n      jump\t// in\n    tag_115:\n        /* \"contracts/Lab3.sol\":407:415  b.length */\n      0x0a\n        /* \"contracts/Lab3.sol\":400:415  return b.length */\n      swap2\n      pop\n      pop\n        /* \"contracts/Lab3.sol\":305:423  function arrayExplain2() public pure returns(uint256){\r... */\n      swap1\n      jump\t// out\n        /* \"contracts/Lab3.sol\":945:990  uint256[] public members2 = new uint256[](10) */\n    tag_44:\n      0x0a\n      dup2\n      dup2\n      sload\n      dup2\n      lt\n      tag_116\n      jumpi\n      0x00\n      dup1\n      revert\n    tag_116:\n      swap1\n      0x00\n      mstore\n      keccak256(0x00, 0x20)\n      add\n      0x00\n      swap2\n      pop\n      swap1\n      pop\n      sload\n      dup2\n      jump\t// out\n        /* \"contracts/Lab3.sol\":690:904  function arrayExplain4(uint8 idx) public pure returns(uint256){\r... */\n    tag_47:\n        /* \"contracts/Lab3.sol\":744:751  uint256 */\n      0x00\n        /* \"contracts/Lab3.sol\":763:783  uint256[10] memory b */\n      tag_119\n      tag_50\n      jump\t// in\n    tag_119:\n        /* \"contracts/Lab3.sol\":799:800  5 */\n      0x05\n        /* \"contracts/Lab3.sol\":794:795  b */\n      dup2\n        /* \"contracts/Lab3.sol\":796:797  5 */\n      0x05\n        /* \"contracts/Lab3.sol\":794:798  b[5] */\n      0x0a\n      dup2\n      lt\n      tag_120\n      jumpi\n      invalid\n    tag_120:\n      0x20\n      mul\n      add\n        /* \"contracts/Lab3.sol\":794:800  b[5]=5 */\n      dup2\n      dup2\n      mstore\n      pop\n      pop\n        /* \"contracts/Lab3.sol\":816:818  10 */\n      0x0a\n        /* \"contracts/Lab3.sol\":811:812  b */\n      dup2\n        /* \"contracts/Lab3.sol\":813:814  6 */\n      0x06\n        /* \"contracts/Lab3.sol\":811:815  b[6] */\n      0x0a\n      dup2\n      lt\n      tag_121\n      jumpi\n      invalid\n    tag_121:\n      0x20\n      mul\n      add\n        /* \"contracts/Lab3.sol\":811:818  b[6]=10 */\n      dup2\n      dup2\n      mstore\n      pop\n      pop\n        /* \"contracts/Lab3.sol\":834:836  15 */\n      0x0f\n        /* \"contracts/Lab3.sol\":829:830  b */\n      dup2\n        /* \"contracts/Lab3.sol\":831:832  7 */\n      0x07\n        /* \"contracts/Lab3.sol\":829:833  b[7] */\n      0x0a\n      dup2\n      lt\n      tag_122\n      jumpi\n      invalid\n    tag_122:\n      0x20\n      mul\n      add\n        /* \"contracts/Lab3.sol\":829:836  b[7]=15 */\n      dup2\n      dup2\n      mstore\n      pop\n      pop\n        /* \"contracts/Lab3.sol\":852:854  20 */\n      0x14\n        /* \"contracts/Lab3.sol\":847:848  b */\n      dup2\n        /* \"contracts/Lab3.sol\":849:850  8 */\n      0x08\n        /* \"contracts/Lab3.sol\":847:851  b[8] */\n      0x0a\n      dup2\n      lt\n      tag_123\n      jumpi\n      invalid\n    tag_123:\n      0x20\n      mul\n      add\n        /* \"contracts/Lab3.sol\":847:854  b[8]=20 */\n      dup2\n      dup2\n      mstore\n      pop\n      pop\n        /* \"contracts/Lab3.sol\":870:872  25 */\n      0x19\n        /* \"contracts/Lab3.sol\":865:866  b */\n      dup2\n        /* \"contracts/Lab3.sol\":867:868  9 */\n      0x09\n        /* \"contracts/Lab3.sol\":865:869  b[9] */\n      0x0a\n      dup2\n      lt\n      tag_124\n      jumpi\n      invalid\n    tag_124:\n      0x20\n      mul\n      add\n        /* \"contracts/Lab3.sol\":865:872  b[9]=25 */\n      dup2\n      dup2\n      mstore\n      pop\n      pop\n        /* \"contracts/Lab3.sol\":890:891  b */\n      dup1\n        /* \"contracts/Lab3.sol\":892:895  idx */\n      dup4\n        /* \"contracts/Lab3.sol\":890:896  b[idx] */\n      0xff\n      and\n      0x0a\n      dup2\n      lt\n      tag_125\n      jumpi\n      invalid\n    tag_125:\n      0x20\n      mul\n      add\n      mload\n        /* \"contracts/Lab3.sol\":883:896  return b[idx] */\n      swap2\n      pop\n      pop\n        /* \"contracts/Lab3.sol\":690:904  function arrayExplain4(uint8 idx) public pure returns(uint256){\r... */\n      swap2\n      swap1\n      pop\n      jump\t// out\n    tag_50:\n      mload(0x40)\n      dup1\n      0x0140\n      add\n      0x40\n      mstore\n      dup1\n      0x0a\n      swap1\n      0x20\n      dup3\n      mul\n      dup1\n      calldatasize\n      dup4\n      calldatacopy\n      dup1\n      dup3\n      add\n      swap2\n      pop\n      pop\n      swap1\n      pop\n      pop\n      swap1\n      jump\t// out\n\n    auxdata: 0xa2646970667358221220a7c177bb7c05007858cd801753face767a3788f2d77dc7fce76eeb910b8db27b64736f6c63430007060033\n}\n",
				"bytecode": {
					"linkReferences": {},
					"object": "6080604052600a67ffffffffffffffff8111801561001c57600080fd5b5060405190808252806020026020018201604052801561004b5781602001602082028036833780820191505090505b50600a9080519060200190610061929190610074565b5034801561006e57600080fd5b506100de565b8280548282559060005260206000209081019282156100b0579160200282015b828111156100af578251825591602001919060010190610094565b5b5090506100bd91906100c1565b5090565b5b808211156100da5760008160009055506001016100c2565b5090565b61084a806100ed6000396000f3fe608060405234801561001057600080fd5b50600436106100a85760003560e01c806358b9c8c71161007157806358b9c8c7146101a85780635daf08ca146101b25780635f861f21146101f45780638b21d2ef14610239578063a8bcab2014610257578063fda2378914610299576100a8565b8062b7f604146100ad57806304f40427146100b7578063132b86bd146100fd5780631841fd4f1461015c5780634ff894be1461017a575b600080fd5b6100b56102de565b005b6100bf6102e0565b6040518082600a60200280838360005b838110156100ea5780820151818401526020810190506100cf565b5050505090500191505060405180910390f35b61010561032b565b6040518080602001828103825283818151815260200191508051906020019060200280838360005b8381101561014857808201518184015260208101905061012d565b505050509050019250505060405180910390f35b610164610383565b6040518082815260200191505060405180910390f35b6101a66004803603602081101561019057600080fd5b81019080803590602001909291905050506103de565b005b6101b061040a565b005b6101de600480360360208110156101c857600080fd5b8101908080359060200190929190505050610609565b6040518082815260200191505060405180910390f35b6102236004803603602081101561020a57600080fd5b81019080803560ff169060200190929190505050610624565b6040518082815260200191505060405180910390f35b61024161071d565b6040518082815260200191505060405180910390f35b6102836004803603602081101561026d57600080fd5b810190808035906020019092919050505061072f565b6040518082815260200191505060405180910390f35b6102c8600480360360208110156102af57600080fd5b81019080803560ff169060200190929190505050610753565b6040518082815260200191505060405180910390f35b565b6102e86107f1565b6000600a806020026040519081016040528092919082600a8015610321576020028201915b81548152602001906001019080831161030d575b5050505050905090565b6060600a80548060200260200160405190810160405280929190818152602001828054801561037957602002820191906000526020600020905b815481526020019060010190808311610365575b5050505050905090565b6000806007905060008167ffffffffffffffff811180156103a357600080fd5b506040519080825280602002602001820160405280156103d25781602001602082028036833780820191505090505b50905080519250505090565b600a81908060018154018082558091505060019003906000526020600020016000909190919091505550565b6064600080600a811061041957fe5b0181905550606360006001600a811061042e57fe5b0181905550606260006002600a811061044357fe5b0181905550606160006003600a811061045857fe5b0181905550606060006004600a811061046d57fe5b0181905550605f60006005600a811061048257fe5b0181905550605e60006006600a811061049757fe5b0181905550605d60006007600a81106104ac57fe5b0181905550605c60006008600a81106104c157fe5b0181905550605b60006009600a81106104d657fe5b01819055506065600a6000815481106104eb57fe5b90600052602060002001819055506066600a60018154811061050957fe5b90600052602060002001819055506067600a60028154811061052757fe5b90600052602060002001819055506068600a60038154811061054557fe5b90600052602060002001819055506069600a60048154811061056357fe5b9060005260206000200181905550606a600a60058154811061058157fe5b9060005260206000200181905550606b600a60068154811061059f57fe5b9060005260206000200181905550606c600a6007815481106105bd57fe5b9060005260206000200181905550606d600a6008815481106105db57fe5b9060005260206000200181905550606e600a6009815481106105f957fe5b9060005260206000200181905550565b600081600a811061061957600080fd5b016000915090505481565b600080600a905060008167ffffffffffffffff8111801561064457600080fd5b506040519080825280602002602001820160405280156106735781602001602082028036833780820191505090505b50905060028160008151811061068557fe5b6020026020010181815250506004816001815181106106a057fe5b6020026020010181815250506006816002815181106106bb57fe5b6020026020010181815250506008816003815181106106d657fe5b602002602001018181525050600a816004815181106106f157fe5b602002602001018181525050808460ff168151811061070c57fe5b602002602001015192505050919050565b60006107276107f1565b600a91505090565b600a818154811061073f57600080fd5b906000526020600020016000915090505481565b600061075d6107f1565b6005816005600a811061076c57fe5b602002018181525050600a816006600a811061078457fe5b602002018181525050600f816007600a811061079c57fe5b6020020181815250506014816008600a81106107b457fe5b6020020181815250506019816009600a81106107cc57fe5b602002018181525050808360ff16600a81106107e457fe5b6020020151915050919050565b604051806101400160405280600a9060208202803683378082019150509050509056fea2646970667358221220a7c177bb7c05007858cd801753face767a3788f2d77dc7fce76eeb910b8db27b64736f6c63430007060033",
					"opcodes": "PUSH1 0x80 PUSH1 0x40 MSTORE PUSH1 0xA PUSH8 0xFFFFFFFFFFFFFFFF DUP2 GT DUP1 ISZERO PUSH2 0x1C JUMPI PUSH1 0x0 DUP1 REVERT JUMPDEST POP PUSH1 0x40 MLOAD SWAP1 DUP1 DUP3 MSTORE DUP1 PUSH1 0x20 MUL PUSH1 0x20 ADD DUP3 ADD PUSH1 0x40 MSTORE DUP1 ISZERO PUSH2 0x4B JUMPI DUP2 PUSH1 0x20 ADD PUSH1 0x20 DUP3 MUL DUP1 CALLDATASIZE DUP4 CALLDATACOPY DUP1 DUP3 ADD SWAP2 POP POP SWAP1 POP JUMPDEST POP PUSH1 0xA SWAP1 DUP1 MLOAD SWAP1 PUSH1 0x20 ADD SWAP1 PUSH2 0x61 SWAP3 SWAP2 SWAP1 PUSH2 0x74 JUMP JUMPDEST POP CALLVALUE DUP1 ISZERO PUSH2 0x6E JUMPI PUSH1 0x0 DUP1 REVERT JUMPDEST POP PUSH2 0xDE JUMP JUMPDEST DUP3 DUP1 SLOAD DUP3 DUP3 SSTORE SWAP1 PUSH1 0x0 MSTORE PUSH1 0x20 PUSH1 0x0 KECCAK256 SWAP1 DUP2 ADD SWAP3 DUP3 ISZERO PUSH2 0xB0 JUMPI SWAP2 PUSH1 0x20 MUL DUP3 ADD JUMPDEST DUP3 DUP2 GT ISZERO PUSH2 0xAF JUMPI DUP3 MLOAD DUP3 SSTORE SWAP2 PUSH1 0x20 ADD SWAP2 SWAP1 PUSH1 0x1 ADD SWAP1 PUSH2 0x94 JUMP JUMPDEST JUMPDEST POP SWAP1 POP PUSH2 0xBD SWAP2 SWAP1 PUSH2 0xC1 JUMP JUMPDEST POP SWAP1 JUMP JUMPDEST JUMPDEST DUP1 DUP3 GT ISZERO PUSH2 0xDA JUMPI PUSH1 0x0 DUP2 PUSH1 0x0 SWAP1 SSTORE POP PUSH1 0x1 ADD PUSH2 0xC2 JUMP JUMPDEST POP SWAP1 JUMP JUMPDEST PUSH2 0x84A DUP1 PUSH2 0xED PUSH1 0x0 CODECOPY PUSH1 0x0 RETURN INVALID PUSH1 0x80 PUSH1 0x40 MSTORE CALLVALUE DUP1 ISZERO PUSH2 0x10 JUMPI PUSH1 0x0 DUP1 REVERT JUMPDEST POP PUSH1 0x4 CALLDATASIZE LT PUSH2 0xA8 JUMPI PUSH1 0x0 CALLDATALOAD PUSH1 0xE0 SHR DUP1 PUSH4 0x58B9C8C7 GT PUSH2 0x71 JUMPI DUP1 PUSH4 0x58B9C8C7 EQ PUSH2 0x1A8 JUMPI DUP1 PUSH4 0x5DAF08CA EQ PUSH2 0x1B2 JUMPI DUP1 PUSH4 0x5F861F21 EQ PUSH2 0x1F4 JUMPI DUP1 PUSH4 0x8B21D2EF EQ PUSH2 0x239 JUMPI DUP1 PUSH4 0xA8BCAB20 EQ PUSH2 0x257 JUMPI DUP1 PUSH4 0xFDA23789 EQ PUSH2 0x299 JUMPI PUSH2 0xA8 JUMP JUMPDEST DUP1 PUSH3 0xB7F604 EQ PUSH2 0xAD JUMPI DUP1 PUSH4 0x4F40427 EQ PUSH2 0xB7 JUMPI DUP1 PUSH4 0x132B86BD EQ PUSH2 0xFD JUMPI DUP1 PUSH4 0x1841FD4F EQ PUSH2 0x15C JUMPI DUP1 PUSH4 0x4FF894BE EQ PUSH2 0x17A JUMPI JUMPDEST PUSH1 0x0 DUP1 REVERT JUMPDEST PUSH2 0xB5 PUSH2 0x2DE JUMP JUMPDEST STOP JUMPDEST PUSH2 0xBF PUSH2 0x2E0 JUMP JUMPDEST PUSH1 0x40 MLOAD DUP1 DUP3 PUSH1 0xA PUSH1 0x20 MUL DUP1 DUP4 DUP4 PUSH1 0x0 JUMPDEST DUP4 DUP2 LT ISZERO PUSH2 0xEA JUMPI DUP1 DUP3 ADD MLOAD DUP2 DUP5 ADD MSTORE PUSH1 0x20 DUP2 ADD SWAP1 POP PUSH2 0xCF JUMP JUMPDEST POP POP POP POP SWAP1 POP ADD SWAP2 POP POP PUSH1 0x40 MLOAD DUP1 SWAP2 SUB SWAP1 RETURN JUMPDEST PUSH2 0x105 PUSH2 0x32B JUMP JUMPDEST PUSH1 0x40 MLOAD DUP1 DUP1 PUSH1 0x20 ADD DUP3 DUP2 SUB DUP3 MSTORE DUP4 DUP2 DUP2 MLOAD DUP2 MSTORE PUSH1 0x20 ADD SWAP2 POP DUP1 MLOAD SWAP1 PUSH1 0x20 ADD SWAP1 PUSH1 0x20 MUL DUP1 DUP4 DUP4 PUSH1 0x0 JUMPDEST DUP4 DUP2 LT ISZERO PUSH2 0x148 JUMPI DUP1 DUP3 ADD MLOAD DUP2 DUP5 ADD MSTORE PUSH1 0x20 DUP2 ADD SWAP1 POP PUSH2 0x12D JUMP JUMPDEST POP POP POP POP SWAP1 POP ADD SWAP3 POP POP POP PUSH1 0x40 MLOAD DUP1 SWAP2 SUB SWAP1 RETURN JUMPDEST PUSH2 0x164 PUSH2 0x383 JUMP JUMPDEST PUSH1 0x40 MLOAD DUP1 DUP3 DUP2 MSTORE PUSH1 0x20 ADD SWAP2 POP POP PUSH1 0x40 MLOAD DUP1 SWAP2 SUB SWAP1 RETURN JUMPDEST PUSH2 0x1A6 PUSH1 0x4 DUP1 CALLDATASIZE SUB PUSH1 0x20 DUP2 LT ISZERO PUSH2 0x190 JUMPI PUSH1 0x0 DUP1 REVERT JUMPDEST DUP2 ADD SWAP1 DUP1 DUP1 CALLDATALOAD SWAP1 PUSH1 0x20 ADD SWAP1 SWAP3 SWAP2 SWAP1 POP POP POP PUSH2 0x3DE JUMP JUMPDEST STOP JUMPDEST PUSH2 0x1B0 PUSH2 0x40A JUMP JUMPDEST STOP JUMPDEST PUSH2 0x1DE PUSH1 0x4 DUP1 CALLDATASIZE SUB PUSH1 0x20 DUP2 LT ISZERO PUSH2 0x1C8 JUMPI PUSH1 0x0 DUP1 REVERT JUMPDEST DUP2 ADD SWAP1 DUP1 DUP1 CALLDATALOAD SWAP1 PUSH1 0x20 ADD SWAP1 SWAP3 SWAP2 SWAP1 POP POP POP PUSH2 0x609 JUMP JUMPDEST PUSH1 0x40 MLOAD DUP1 DUP3 DUP2 MSTORE PUSH1 0x20 ADD SWAP2 POP POP PUSH1 0x40 MLOAD DUP1 SWAP2 SUB SWAP1 RETURN JUMPDEST PUSH2 0x223 PUSH1 0x4 DUP1 CALLDATASIZE SUB PUSH1 0x20 DUP2 LT ISZERO PUSH2 0x20A JUMPI PUSH1 0x0 DUP1 REVERT JUMPDEST DUP2 ADD SWAP1 DUP1 DUP1 CALLDATALOAD PUSH1 0xFF AND SWAP1 PUSH1 0x20 ADD SWAP1 SWAP3 SWAP2 SWAP1 POP POP POP PUSH2 0x624 JUMP JUMPDEST PUSH1 0x40 MLOAD DUP1 DUP3 DUP2 MSTORE PUSH1 0x20 ADD SWAP2 POP POP PUSH1 0x40 MLOAD DUP1 SWAP2 SUB SWAP1 RETURN JUMPDEST PUSH2 0x241 PUSH2 0x71D JUMP JUMPDEST PUSH1 0x40 MLOAD DUP1 DUP3 DUP2 MSTORE PUSH1 0x20 ADD SWAP2 POP POP PUSH1 0x40 MLOAD DUP1 SWAP2 SUB SWAP1 RETURN JUMPDEST PUSH2 0x283 PUSH1 0x4 DUP1 CALLDATASIZE SUB PUSH1 0x20 DUP2 LT ISZERO PUSH2 0x26D JUMPI PUSH1 0x0 DUP1 REVERT JUMPDEST DUP2 ADD SWAP1 DUP1 DUP1 CALLDATALOAD SWAP1 PUSH1 0x20 ADD SWAP1 SWAP3 SWAP2 SWAP1 POP POP POP PUSH2 0x72F JUMP JUMPDEST PUSH1 0x40 MLOAD DUP1 DUP3 DUP2 MSTORE PUSH1 0x20 ADD SWAP2 POP POP PUSH1 0x40 MLOAD DUP1 SWAP2 SUB SWAP1 RETURN JUMPDEST PUSH2 0x2C8 PUSH1 0x4 DUP1 CALLDATASIZE SUB PUSH1 0x20 DUP2 LT ISZERO PUSH2 0x2AF JUMPI PUSH1 0x0 DUP1 REVERT JUMPDEST DUP2 ADD SWAP1 DUP1 DUP1 CALLDATALOAD PUSH1 0xFF AND SWAP1 PUSH1 0x20 ADD SWAP1 SWAP3 SWAP2 SWAP1 POP POP POP PUSH2 0x753 JUMP JUMPDEST PUSH1 0x40 MLOAD DUP1 DUP3 DUP2 MSTORE PUSH1 0x20 ADD SWAP2 POP POP PUSH1 0x40 MLOAD DUP1 SWAP2 SUB SWAP1 RETURN JUMPDEST JUMP JUMPDEST PUSH2 0x2E8 PUSH2 0x7F1 JUMP JUMPDEST PUSH1 0x0 PUSH1 0xA DUP1 PUSH1 0x20 MUL PUSH1 0x40 MLOAD SWAP1 DUP2 ADD PUSH1 0x40 MSTORE DUP1 SWAP3 SWAP2 SWAP1 DUP3 PUSH1 0xA DUP1 ISZERO PUSH2 0x321 JUMPI PUSH1 0x20 MUL DUP3 ADD SWAP2 JUMPDEST DUP2 SLOAD DUP2 MSTORE PUSH1 0x20 ADD SWAP1 PUSH1 0x1 ADD SWAP1 DUP1 DUP4 GT PUSH2 0x30D JUMPI JUMPDEST POP POP POP POP POP SWAP1 POP SWAP1 JUMP JUMPDEST PUSH1 0x60 PUSH1 0xA DUP1 SLOAD DUP1 PUSH1 0x20 MUL PUSH1 0x20 ADD PUSH1 0x40 MLOAD SWAP1 DUP2 ADD PUSH1 0x40 MSTORE DUP1 SWAP3 SWAP2 SWAP1 DUP2 DUP2 MSTORE PUSH1 0x20 ADD DUP3 DUP1 SLOAD DUP1 ISZERO PUSH2 0x379 JUMPI PUSH1 0x20 MUL DUP3 ADD SWAP2 SWAP1 PUSH1 0x0 MSTORE PUSH1 0x20 PUSH1 0x0 KECCAK256 SWAP1 JUMPDEST DUP2 SLOAD DUP2 MSTORE PUSH1 0x20 ADD SWAP1 PUSH1 0x1 ADD SWAP1 DUP1 DUP4 GT PUSH2 0x365 JUMPI JUMPDEST POP POP POP POP POP SWAP1 POP SWAP1 JUMP JUMPDEST PUSH1 0x0 DUP1 PUSH1 0x7 SWAP1 POP PUSH1 0x0 DUP2 PUSH8 0xFFFFFFFFFFFFFFFF DUP2 GT DUP1 ISZERO PUSH2 0x3A3 JUMPI PUSH1 0x0 DUP1 REVERT JUMPDEST POP PUSH1 0x40 MLOAD SWAP1 DUP1 DUP3 MSTORE DUP1 PUSH1 0x20 MUL PUSH1 0x20 ADD DUP3 ADD PUSH1 0x40 MSTORE DUP1 ISZERO PUSH2 0x3D2 JUMPI DUP2 PUSH1 0x20 ADD PUSH1 0x20 DUP3 MUL DUP1 CALLDATASIZE DUP4 CALLDATACOPY DUP1 DUP3 ADD SWAP2 POP POP SWAP1 POP JUMPDEST POP SWAP1 POP DUP1 MLOAD SWAP3 POP POP POP SWAP1 JUMP JUMPDEST PUSH1 0xA DUP2 SWAP1 DUP1 PUSH1 0x1 DUP2 SLOAD ADD DUP1 DUP3 SSTORE DUP1 SWAP2 POP POP PUSH1 0x1 SWAP1 SUB SWAP1 PUSH1 0x0 MSTORE PUSH1 0x20 PUSH1 0x0 KECCAK256 ADD PUSH1 0x0 SWAP1 SWAP2 SWAP1 SWAP2 SWAP1 SWAP2 POP SSTORE POP JUMP JUMPDEST PUSH1 0x64 PUSH1 0x0 DUP1 PUSH1 0xA DUP2 LT PUSH2 0x419 JUMPI INVALID JUMPDEST ADD DUP2 SWAP1 SSTORE POP PUSH1 0x63 PUSH1 0x0 PUSH1 0x1 PUSH1 0xA DUP2 LT PUSH2 0x42E JUMPI INVALID JUMPDEST ADD DUP2 SWAP1 SSTORE POP PUSH1 0x62 PUSH1 0x0 PUSH1 0x2 PUSH1 0xA DUP2 LT PUSH2 0x443 JUMPI INVALID JUMPDEST ADD DUP2 SWAP1 SSTORE POP PUSH1 0x61 PUSH1 0x0 PUSH1 0x3 PUSH1 0xA DUP2 LT PUSH2 0x458 JUMPI INVALID JUMPDEST ADD DUP2 SWAP1 SSTORE POP PUSH1 0x60 PUSH1 0x0 PUSH1 0x4 PUSH1 0xA DUP2 LT PUSH2 0x46D JUMPI INVALID JUMPDEST ADD DUP2 SWAP1 SSTORE POP PUSH1 0x5F PUSH1 0x0 PUSH1 0x5 PUSH1 0xA DUP2 LT PUSH2 0x482 JUMPI INVALID JUMPDEST ADD DUP2 SWAP1 SSTORE POP PUSH1 0x5E PUSH1 0x0 PUSH1 0x6 PUSH1 0xA DUP2 LT PUSH2 0x497 JUMPI INVALID JUMPDEST ADD DUP2 SWAP1 SSTORE POP PUSH1 0x5D PUSH1 0x0 PUSH1 0x7 PUSH1 0xA DUP2 LT PUSH2 0x4AC JUMPI INVALID JUMPDEST ADD DUP2 SWAP1 SSTORE POP PUSH1 0x5C PUSH1 0x0 PUSH1 0x8 PUSH1 0xA DUP2 LT PUSH2 0x4C1 JUMPI INVALID JUMPDEST ADD DUP2 SWAP1 SSTORE POP PUSH1 0x5B PUSH1 0x0 PUSH1 0x9 PUSH1 0xA DUP2 LT PUSH2 0x4D6 JUMPI INVALID JUMPDEST ADD DUP2 SWAP1 SSTORE POP PUSH1 0x65 PUSH1 0xA PUSH1 0x0 DUP2 SLOAD DUP2 LT PUSH2 0x4EB JUMPI INVALID JUMPDEST SWAP1 PUSH1 0x0 MSTORE PUSH1 0x20 PUSH1 0x0 KECCAK256 ADD DUP2 SWAP1 SSTORE POP PUSH1 0x66 PUSH1 0xA PUSH1 0x1 DUP2 SLOAD DUP2 LT PUSH2 0x509 JUMPI INVALID JUMPDEST SWAP1 PUSH1 0x0 MSTORE PUSH1 0x20 PUSH1 0x0 KECCAK256 ADD DUP2 SWAP1 SSTORE POP PUSH1 0x67 PUSH1 0xA PUSH1 0x2 DUP2 SLOAD DUP2 LT PUSH2 0x527 JUMPI INVALID JUMPDEST SWAP1 PUSH1 0x0 MSTORE PUSH1 0x20 PUSH1 0x0 KECCAK256 ADD DUP2 SWAP1 SSTORE POP PUSH1 0x68 PUSH1 0xA PUSH1 0x3 DUP2 SLOAD DUP2 LT PUSH2 0x545 JUMPI INVALID JUMPDEST SWAP1 PUSH1 0x0 MSTORE PUSH1 0x20 PUSH1 0x0 KECCAK256 ADD DUP2 SWAP1 SSTORE POP PUSH1 0x69 PUSH1 0xA PUSH1 0x4 DUP2 SLOAD DUP2 LT PUSH2 0x563 JUMPI INVALID JUMPDEST SWAP1 PUSH1 0x0 MSTORE PUSH1 0x20 PUSH1 0x0 KECCAK256 ADD DUP2 SWAP1 SSTORE POP PUSH1 0x6A PUSH1 0xA PUSH1 0x5 DUP2 SLOAD DUP2 LT PUSH2 0x581 JUMPI INVALID JUMPDEST SWAP1 PUSH1 0x0 MSTORE PUSH1 0x20 PUSH1 0x0 KECCAK256 ADD DUP2 SWAP1 SSTORE POP PUSH1 0x6B PUSH1 0xA PUSH1 0x6 DUP2 SLOAD DUP2 LT PUSH2 0x59F JUMPI INVALID JUMPDEST SWAP1 PUSH1 0x0 MSTORE PUSH1 0x20 PUSH1 0x0 KECCAK256 ADD DUP2 SWAP1 SSTORE POP PUSH1 0x6C PUSH1 0xA PUSH1 0x7 DUP2 SLOAD DUP2 LT PUSH2 0x5BD JUMPI INVALID JUMPDEST SWAP1 PUSH1 0x0 MSTORE PUSH1 0x20 PUSH1 0x0 KECCAK256 ADD DUP2 SWAP1 SSTORE POP PUSH1 0x6D PUSH1 0xA PUSH1 0x8 DUP2 SLOAD DUP2 LT PUSH2 0x5DB JUMPI INVALID JUMPDEST SWAP1 PUSH1 0x0 MSTORE PUSH1 0x20 PUSH1 0x0 KECCAK256 ADD DUP2 SWAP1 SSTORE POP PUSH1 0x6E PUSH1 0xA PUSH1 0x9 DUP2 SLOAD DUP2 LT PUSH2 0x5F9 JUMPI INVALID JUMPDEST SWAP1 PUSH1 0x0 MSTORE PUSH1 0x20 PUSH1 0x0 KECCAK256 ADD DUP2 SWAP1 SSTORE POP JUMP JUMPDEST PUSH1 0x0 DUP2 PUSH1 0xA DUP2 LT PUSH2 0x619 JUMPI PUSH1 0x0 DUP1 REVERT JUMPDEST ADD PUSH1 0x0 SWAP2 POP SWAP1 POP SLOAD DUP2 JUMP JUMPDEST PUSH1 0x0 DUP1 PUSH1 0xA SWAP1 POP PUSH1 0x0 DUP2 PUSH8 0xFFFFFFFFFFFFFFFF DUP2 GT DUP1 ISZERO PUSH2 0x644 JUMPI PUSH1 0x0 DUP1 REVERT JUMPDEST POP PUSH1 0x40 MLOAD SWAP1 DUP1 DUP3 MSTORE DUP1 PUSH1 0x20 MUL PUSH1 0x20 ADD DUP3 ADD PUSH1 0x40 MSTORE DUP1 ISZERO PUSH2 0x673 JUMPI DUP2 PUSH1 0x20 ADD PUSH1 0x20 DUP3 MUL DUP1 CALLDATASIZE DUP4 CALLDATACOPY DUP1 DUP3 ADD SWAP2 POP POP SWAP1 POP JUMPDEST POP SWAP1 POP PUSH1 0x2 DUP2 PUSH1 0x0 DUP2 MLOAD DUP2 LT PUSH2 0x685 JUMPI INVALID JUMPDEST PUSH1 0x20 MUL PUSH1 0x20 ADD ADD DUP2 DUP2 MSTORE POP POP PUSH1 0x4 DUP2 PUSH1 0x1 DUP2 MLOAD DUP2 LT PUSH2 0x6A0 JUMPI INVALID JUMPDEST PUSH1 0x20 MUL PUSH1 0x20 ADD ADD DUP2 DUP2 MSTORE POP POP PUSH1 0x6 DUP2 PUSH1 0x2 DUP2 MLOAD DUP2 LT PUSH2 0x6BB JUMPI INVALID JUMPDEST PUSH1 0x20 MUL PUSH1 0x20 ADD ADD DUP2 DUP2 MSTORE POP POP PUSH1 0x8 DUP2 PUSH1 0x3 DUP2 MLOAD DUP2 LT PUSH2 0x6D6 JUMPI INVALID JUMPDEST PUSH1 0x20 MUL PUSH1 0x20 ADD ADD DUP2 DUP2 MSTORE POP POP PUSH1 0xA DUP2 PUSH1 0x4 DUP2 MLOAD DUP2 LT PUSH2 0x6F1 JUMPI INVALID JUMPDEST PUSH1 0x20 MUL PUSH1 0x20 ADD ADD DUP2 DUP2 MSTORE POP POP DUP1 DUP5 PUSH1 0xFF AND DUP2 MLOAD DUP2 LT PUSH2 0x70C JUMPI INVALID JUMPDEST PUSH1 0x20 MUL PUSH1 0x20 ADD ADD MLOAD SWAP3 POP POP POP SWAP2 SWAP1 POP JUMP JUMPDEST PUSH1 0x0 PUSH2 0x727 PUSH2 0x7F1 JUMP JUMPDEST PUSH1 0xA SWAP2 POP POP SWAP1 JUMP JUMPDEST PUSH1 0xA DUP2 DUP2 SLOAD DUP2 LT PUSH2 0x73F JUMPI PUSH1 0x0 DUP1 REVERT JUMPDEST SWAP1 PUSH1 0x0 MSTORE PUSH1 0x20 PUSH1 0x0 KECCAK256 ADD PUSH1 0x0 SWAP2 POP SWAP1 POP SLOAD DUP2 JUMP JUMPDEST PUSH1 0x0 PUSH2 0x75D PUSH2 0x7F1 JUMP JUMPDEST PUSH1 0x5 DUP2 PUSH1 0x5 PUSH1 0xA DUP2 LT PUSH2 0x76C JUMPI INVALID JUMPDEST PUSH1 0x20 MUL ADD DUP2 DUP2 MSTORE POP POP PUSH1 0xA DUP2 PUSH1 0x6 PUSH1 0xA DUP2 LT PUSH2 0x784 JUMPI INVALID JUMPDEST PUSH1 0x20 MUL ADD DUP2 DUP2 MSTORE POP POP PUSH1 0xF DUP2 PUSH1 0x7 PUSH1 0xA DUP2 LT PUSH2 0x79C JUMPI INVALID JUMPDEST PUSH1 0x20 MUL ADD DUP2 DUP2 MSTORE POP POP PUSH1 0x14 DUP2 PUSH1 0x8 PUSH1 0xA DUP2 LT PUSH2 0x7B4 JUMPI INVALID JUMPDEST PUSH1 0x20 MUL ADD DUP2 DUP2 MSTORE POP POP PUSH1 0x19 DUP2 PUSH1 0x9 PUSH1 0xA DUP2 LT PUSH2 0x7CC JUMPI INVALID JUMPDEST PUSH1 0x20 MUL ADD DUP2 DUP2 MSTORE POP POP DUP1 DUP4 PUSH1 0xFF AND PUSH1 0xA DUP2 LT PUSH2 0x7E4 JUMPI INVALID JUMPDEST PUSH1 0x20 MUL ADD MLOAD SWAP2 POP POP SWAP2 SWAP1 POP JUMP JUMPDEST PUSH1 0x40 MLOAD DUP1 PUSH2 0x140 ADD PUSH1 0x40 MSTORE DUP1 PUSH1 0xA SWAP1 PUSH1 0x20 DUP3 MUL DUP1 CALLDATASIZE DUP4 CALLDATACOPY DUP1 DUP3 ADD SWAP2 POP POP SWAP1 POP POP SWAP1 JUMP INVALID LOG2 PUSH5 0x6970667358 0x22 SLT KECCAK256 0xA7 0xC1 PUSH24 0xBB7C05007858CD801753FACE767A3788F2D77DC7FCE76EEB SWAP2 SIGNEXTEND DUP14 0xB2 PUSH28 0x64736F6C634300070600330000000000000000000000000000000000 "
				},
				"gasEstimates": {
					"creation": {
						"codeDepositCost": "424400",
						"executionCost": "infinite",
						"totalCost": "infinite"
					},
					"external": {
						"arrayExplain1()": "infinite",
						"arrayExplain2()": "infinite",
						"arrayExplain3(uint8)": "infinite",
						"arrayExplain4(uint8)": "infinite",
						"arrayExplain5()": "409514",
						"arrayExplain6()": "infinite",
						"arrayExplain7()": "infinite",
						"arrayExplain8(uint256)": "41240",
						"arrayExplain9()": "145",
						"members(uint256)": "1151",
						"members2(uint256)": "2068"
					}
				},
				"methodIdentifiers": {
					"arrayExplain1()": "1841fd4f",
					"arrayExplain2()": "8b21d2ef",
					"arrayExplain3(uint8)": "5f861f21",
					"arrayExplain4(uint8)": "fda23789",
					"arrayExplain5()": "58b9c8c7",
					"arrayExplain6()": "04f40427",
					"arrayExplain7()": "132b86bd",
					"arrayExplain8(uint256)": "4ff894be",
					"arrayExplain9()": "00b7f604",
					"members(uint256)": "5daf08ca",
					"members2(uint256)": "a8bcab20"
				}
			},
			"storageLayout": {
				"storage": [
					{
						"astId": 151,
						"contract": "contracts/Lab3.sol:Demo3",
						"label": "members",
						"offset": 0,
						"slot": "0",
						"type": "t_array(t_uint256)10_storage"
					},
					{
						"astId": 159,
						"contract": "contracts/Lab3.sol:Demo3",
						"label": "members2",
						"offset": 0,
						"slot": "10",
						"type": "t_array(t_uint256)dyn_storage"
					}
				],
				"types": {
					"t_array(t_uint256)10_storage": {
						"base": "t_uint256",
						"encoding": "inplace",
						"label": "uint256[10]",
						"numberOfBytes": "320"
					},
					"t_array(t_uint256)dyn_storage": {
						"base": "t_uint256",
						"encoding": "dynamic_array",
						"label": "uint256[]",
						"numberOfBytes": "32"
					},
					"t_uint256": {
						"encoding": "inplace",
						"label": "uint256",
						"numberOfBytes": "32"
					}
				}
			},
			"userdoc": {
				"kind": "user",
				"methods": {},
				"version": 1
			}
		}
	}
}