{
	"data": {
		"bytecode": {
			"linkReferences": {},
			"object": "6080604052600a67ffffffffffffffff8111801561001c57600080fd5b5060405190808252806020026020018201604052801561004b5781602001602082028036833780820191505090505b50600a9080519060200190610061929190610074565b5034801561006e57600080fd5b506100de565b8280548282559060005260206000209081019282156100b0579160200282015b828111156100af578251825591602001919060010190610094565b5b5090506100bd91906100c1565b5090565b5b808211156100da5760008160009055506001016100c2565b5090565b61084a806100ed6000396000f3fe608060405234801561001057600080fd5b50600436106100a85760003560e01c806358b9c8c71161007157806358b9c8c7146101a85780635daf08ca146101b25780635f861f21146101f45780638b21d2ef14610239578063a8bcab2014610257578063fda2378914610299576100a8565b8062b7f604146100ad57806304f40427146100b7578063132b86bd146100fd5780631841fd4f1461015c5780634ff894be1461017a575b600080fd5b6100b56102de565b005b6100bf6102e0565b6040518082600a60200280838360005b838110156100ea5780820151818401526020810190506100cf565b5050505090500191505060405180910390f35b61010561032b565b6040518080602001828103825283818151815260200191508051906020019060200280838360005b8381101561014857808201518184015260208101905061012d565b505050509050019250505060405180910390f35b610164610383565b6040518082815260200191505060405180910390f35b6101a66004803603602081101561019057600080fd5b81019080803590602001909291905050506103de565b005b6101b061040a565b005b6101de600480360360208110156101c857600080fd5b8101908080359060200190929190505050610609565b6040518082815260200191505060405180910390f35b6102236004803603602081101561020a57600080fd5b81019080803560ff169060200190929190505050610624565b6040518082815260200191505060405180910390f35b61024161071d565b6040518082815260200191505060405180910390f35b6102836004803603602081101561026d57600080fd5b810190808035906020019092919050505061072f565b6040518082815260200191505060405180910390f35b6102c8600480360360208110156102af57600080fd5b81019080803560ff169060200190929190505050610753565b6040518082815260200191505060405180910390f35b565b6102e86107f1565b6000600a806020026040519081016040528092919082600a8015610321576020028201915b81548152602001906001019080831161030d575b5050505050905090565b6060600a80548060200260200160405190810160405280929190818152602001828054801561037957602002820191906000526020600020905b815481526020019060010190808311610365575b5050505050905090565b6000806007905060008167ffffffffffffffff811180156103a357600080fd5b506040519080825280602002602001820160405280156103d25781602001602082028036833780820191505090505b50905080519250505090565b600a81908060018154018082558091505060019003906000526020600020016000909190919091505550565b6064600080600a811061041957fe5b0181905550606360006001600a811061042e57fe5b0181905550606260006002600a811061044357fe5b0181905550606160006003600a811061045857fe5b0181905550606060006004600a811061046d57fe5b0181905550605f60006005600a811061048257fe5b0181905550605e60006006600a811061049757fe5b0181905550605d60006007600a81106104ac57fe5b0181905550605c60006008600a81106104c157fe5b0181905550605b60006009600a81106104d657fe5b01819055506065600a6000815481106104eb57fe5b90600052602060002001819055506066600a60018154811061050957fe5b90600052602060002001819055506067600a60028154811061052757fe5b90600052602060002001819055506068600a60038154811061054557fe5b90600052602060002001819055506069600a60048154811061056357fe5b9060005260206000200181905550606a600a60058154811061058157fe5b9060005260206000200181905550606b600a60068154811061059f57fe5b9060005260206000200181905550606c600a6007815481106105bd57fe5b9060005260206000200181905550606d600a6008815481106105db57fe5b9060005260206000200181905550606e600a6009815481106105f957fe5b9060005260206000200181905550565b600081600a811061061957600080fd5b016000915090505481565b600080600a905060008167ffffffffffffffff8111801561064457600080fd5b506040519080825280602002602001820160405280156106735781602001602082028036833780820191505090505b50905060028160008151811061068557fe5b6020026020010181815250506004816001815181106106a057fe5b6020026020010181815250506006816002815181106106bb57fe5b6020026020010181815250506008816003815181106106d657fe5b602002602001018181525050600a816004815181106106f157fe5b602002602001018181525050808460ff168151811061070c57fe5b602002602001015192505050919050565b60006107276107f1565b600a91505090565b600a818154811061073f57600080fd5b906000526020600020016000915090505481565b600061075d6107f1565b6005816005600a811061076c57fe5b602002018181525050600a816006600a811061078457fe5b602002018181525050600f816007600a811061079c57fe5b6020020181815250506014816008600a81106107b457fe5b6020020181815250506019816009600a81106107cc57fe5b602002018181525050808360ff16600a81106107e457fe5b6020020151915050919050565b604051806101400160405280600a9060208202803683378082019150509050509056fea2646970667358221220a7c177bb7c05007858cd801753face767a3788f2d77dc7fce76eeb910b8db27b64736f6c63430007060033",
			"opcodes": "PUSH1 0x80 PUSH1 0x40 MSTORE PUSH1 0xA PUSH8 0xFFFFFFFFFFFFFFFF DUP2 GT DUP1 ISZERO PUSH2 0x1C JUMPI PUSH1 0x0 DUP1 REVERT JUMPDEST POP PUSH1 0x40 MLOAD SWAP1 DUP1 DUP3 MSTORE DUP1 PUSH1 0x20 MUL PUSH1 0x20 ADD DUP3 ADD PUSH1 0x40 MSTORE DUP1 ISZERO PUSH2 0x4B JUMPI DUP2 PUSH1 0x20 ADD PUSH1 0x20 DUP3 MUL DUP1 CALLDATASIZE DUP4 CALLDATACOPY DUP1 DUP3 ADD SWAP2 POP POP SWAP1 POP JUMPDEST POP PUSH1 0xA SWAP1 DUP1 MLOAD SWAP1 PUSH1 0x20 ADD SWAP1 PUSH2 0x61 SWAP3 SWAP2 SWAP1 PUSH2 0x74 JUMP JUMPDEST POP CALLVALUE DUP1 ISZERO PUSH2 0x6E JUMPI PUSH1 0x0 DUP1 REVERT JUMPDEST POP PUSH2 0xDE JUMP JUMPDEST DUP3 DUP1 SLOAD DUP3 DUP3 SSTORE SWAP1 PUSH1 0x0 MSTORE PUSH1 0x20 PUSH1 0x0 KECCAK256 SWAP1 DUP2 ADD SWAP3 DUP3 ISZERO PUSH2 0xB0 JUMPI SWAP2 PUSH1 0x20 MUL DUP3 ADD JUMPDEST DUP3 DUP2 GT ISZERO PUSH2 0xAF JUMPI DUP3 MLOAD DUP3 SSTORE SWAP2 PUSH1 0x20 ADD SWAP2 SWAP1 PUSH1 0x1 ADD SWAP1 PUSH2 0x94 JUMP JUMPDEST JUMPDEST POP SWAP1 POP PUSH2 0xBD SWAP2 SWAP1 PUSH2 0xC1 JUMP JUMPDEST POP SWAP1 JUMP JUMPDEST JUMPDEST DUP1 DUP3 GT ISZERO PUSH2 0xDA JUMPI PUSH1 0x0 DUP2 PUSH1 0x0 SWAP1 SSTORE POP PUSH1 0x1 ADD PUSH2 0xC2 JUMP JUMPDEST POP SWAP1 JUMP JUMPDEST PUSH2 0x84A DUP1 PUSH2 0xED PUSH1 0x0 CODECOPY PUSH1 0x0 RETURN INVALID PUSH1 0x80 PUSH1 0x40 MSTORE CALLVALUE DUP1 ISZERO PUSH2 0x10 JUMPI PUSH1 0x0 DUP1 REVERT JUMPDEST POP PUSH1 0x4 CALLDATASIZE LT PUSH2 0xA8 JUMPI PUSH1 0x0 CALLDATALOAD PUSH1 0xE0 SHR DUP1 PUSH4 0x58B9C8C7 GT PUSH2 0x71 JUMPI DUP1 PUSH4 0x58B9C8C7 EQ PUSH2 0x1A8 JUMPI DUP1 PUSH4 0x5DAF08CA EQ PUSH2 0x1B2 JUMPI DUP1 PUSH4 0x5F861F21 EQ PUSH2 0x1F4 JUMPI DUP1 PUSH4 0x8B21D2EF EQ PUSH2 0x239 JUMPI DUP1 PUSH4 0xA8BCAB20 EQ PUSH2 0x257 JUMPI DUP1 PUSH4 0xFDA23789 EQ PUSH2 0x299 JUMPI PUSH2 0xA8 JUMP JUMPDEST DUP1 PUSH3 0xB7F604 EQ PUSH2 0xAD JUMPI DUP1 PUSH4 0x4F40427 EQ PUSH2 0xB7 JUMPI DUP1 PUSH4 0x132B86BD EQ PUSH2 0xFD JUMPI DUP1 PUSH4 0x1841FD4F EQ PUSH2 0x15C JUMPI DUP1 PUSH4 0x4FF894BE EQ PUSH2 0x17A JUMPI JUMPDEST PUSH1 0x0 DUP1 REVERT JUMPDEST PUSH2 0xB5 PUSH2 0x2DE JUMP JUMPDEST STOP JUMPDEST PUSH2 0xBF PUSH2 0x2E0 JUMP JUMPDEST PUSH1 0x40 MLOAD DUP1 DUP3 PUSH1 0xA PUSH1 0x20 MUL DUP1 DUP4 DUP4 PUSH1 0x0 JUMPDEST DUP4 DUP2 LT ISZERO PUSH2 0xEA JUMPI DUP1 DUP3 ADD MLOAD DUP2 DUP5 ADD MSTORE PUSH1 0x20 DUP2 ADD SWAP1 POP PUSH2 0xCF JUMP JUMPDEST POP POP POP POP SWAP1 POP ADD SWAP2 POP POP PUSH1 0x40 MLOAD DUP1 SWAP2 SUB SWAP1 RETURN JUMPDEST PUSH2 0x105 PUSH2 0x32B JUMP JUMPDEST PUSH1 0x40 MLOAD DUP1 DUP1 PUSH1 0x20 ADD DUP3 DUP2 SUB DUP3 MSTORE DUP4 DUP2 DUP2 MLOAD DUP2 MSTORE PUSH1 0x20 ADD SWAP2 POP DUP1 MLOAD SWAP1 PUSH1 0x20 ADD SWAP1 PUSH1 0x20 MUL DUP1 DUP4 DUP4 PUSH1 0x0 JUMPDEST DUP4 DUP2 LT ISZERO PUSH2 0x148 JUMPI DUP1 DUP3 ADD MLOAD DUP2 DUP5 ADD MSTORE PUSH1 0x20 DUP2 ADD SWAP1 POP PUSH2 0x12D JUMP JUMPDEST POP POP POP POP SWAP1 POP ADD SWAP3 POP POP POP PUSH1 0x40 MLOAD DUP1 SWAP2 SUB SWAP1 RETURN JUMPDEST PUSH2 0x164 PUSH2 0x383 JUMP JUMPDEST PUSH1 0x40 MLOAD DUP1 DUP3 DUP2 MSTORE PUSH1 0x20 ADD SWAP2 POP POP PUSH1 0x40 MLOAD DUP1 SWAP2 SUB SWAP1 RETURN JUMPDEST PUSH2 0x1A6 PUSH1 0x4 DUP1 CALLDATASIZE SUB PUSH1 0x20 DUP2 LT ISZERO PUSH2 0x190 JUMPI PUSH1 0x0 DUP1 REVERT JUMPDEST DUP2 ADD SWAP1 DUP1 DUP1 CALLDATALOAD SWAP1 PUSH1 0x20 ADD SWAP1 SWAP3 SWAP2 SWAP1 POP POP POP PUSH2 0x3DE JUMP JUMPDEST STOP JUMPDEST PUSH2 0x1B0 PUSH2 0x40A JUMP JUMPDEST STOP JUMPDEST PUSH2 0x1DE PUSH1 0x4 DUP1 CALLDATASIZE SUB PUSH1 0x20 DUP2 LT ISZERO PUSH2 0x1C8 JUMPI PUSH1 0x0 DUP1 REVERT JUMPDEST DUP2 ADD SWAP1 DUP1 DUP1 CALLDATALOAD SWAP1 PUSH1 0x20 ADD SWAP1 SWAP3 SWAP2 SWAP1 POP POP POP PUSH2 0x609 JUMP JUMPDEST PUSH1 0x40 MLOAD DUP1 DUP3 DUP2 MSTORE PUSH1 0x20 ADD SWAP2 POP POP PUSH1 0x40 MLOAD DUP1 SWAP2 SUB SWAP1 RETURN JUMPDEST PUSH2 0x223 PUSH1 0x4 DUP1 CALLDATASIZE SUB PUSH1 0x20 DUP2 LT ISZERO PUSH2 0x20A JUMPI PUSH1 0x0 DUP1 REVERT JUMPDEST DUP2 ADD SWAP1 DUP1 DUP1 CALLDATALOAD PUSH1 0xFF AND SWAP1 PUSH1 0x20 ADD SWAP1 SWAP3 SWAP2 SWAP1 POP POP POP PUSH2 0x624 JUMP JUMPDEST PUSH1 0x40 MLOAD DUP1 DUP3 DUP2 MSTORE PUSH1 0x20 ADD SWAP2 POP POP PUSH1 0x40 MLOAD DUP1 SWAP2 SUB SWAP1 RETURN JUMPDEST PUSH2 0x241 PUSH2 0x71D JUMP JUMPDEST PUSH1 0x40 MLOAD DUP1 DUP3 DUP2 MSTORE PUSH1 0x20 ADD SWAP2 POP POP PUSH1 0x40 MLOAD DUP1 SWAP2 SUB SWAP1 RETURN JUMPDEST PUSH2 0x283 PUSH1 0x4 DUP1 CALLDATASIZE SUB PUSH1 0x20 DUP2 LT ISZERO PUSH2 0x26D JUMPI PUSH1 0x0 DUP1 REVERT JUMPDEST DUP2 ADD SWAP1 DUP1 DUP1 CALLDATALOAD SWAP1 PUSH1 0x20 ADD SWAP1 SWAP3 SWAP2 SWAP1 POP POP POP PUSH2 0x72F JUMP JUMPDEST PUSH1 0x40 MLOAD DUP1 DUP3 DUP2 MSTORE PUSH1 0x20 ADD SWAP2 POP POP PUSH1 0x40 MLOAD DUP1 SWAP2 SUB SWAP1 RETURN JUMPDEST PUSH2 0x2C8 PUSH1 0x4 DUP1 CALLDATASIZE SUB PUSH1 0x20 DUP2 LT ISZERO PUSH2 0x2AF JUMPI PUSH1 0x0 DUP1 REVERT JUMPDEST DUP2 ADD SWAP1 DUP1 DUP1 CALLDATALOAD PUSH1 0xFF AND SWAP1 PUSH1 0x20 ADD SWAP1 SWAP3 SWAP2 SWAP1 POP POP POP PUSH2 0x753 JUMP JUMPDEST PUSH1 0x40 MLOAD DUP1 DUP3 DUP2 MSTORE PUSH1 0x20 ADD SWAP2 POP POP PUSH1 0x40 MLOAD DUP1 SWAP2 SUB SWAP1 RETURN JUMPDEST JUMP JUMPDEST PUSH2 0x2E8 PUSH2 0x7F1 JUMP JUMPDEST PUSH1 0x0 PUSH1 0xA DUP1 PUSH1 0x20 MUL PUSH1 0x40 MLOAD SWAP1 DUP2 ADD PUSH1 0x40 MSTORE DUP1 SWAP3 SWAP2 SWAP1 DUP3 PUSH1 0xA DUP1 ISZERO PUSH2 0x321 JUMPI PUSH1 0x20 MUL DUP3 ADD SWAP2 JUMPDEST DUP2 SLOAD DUP2 MSTORE PUSH1 0x20 ADD SWAP1 PUSH1 0x1 ADD SWAP1 DUP1 DUP4 GT PUSH2 0x30D JUMPI JUMPDEST POP POP POP POP POP SWAP1 POP SWAP1 JUMP JUMPDEST PUSH1 0x60 PUSH1 0xA DUP1 SLOAD DUP1 PUSH1 0x20 MUL PUSH1 0x20 ADD PUSH1 0x40 MLOAD SWAP1 DUP2 ADD PUSH1 0x40 MSTORE DUP1 SWAP3 SWAP2 SWAP1 DUP2 DUP2 MSTORE PUSH1 0x20 ADD DUP3 DUP1 SLOAD DUP1 ISZERO PUSH2 0x379 JUMPI PUSH1 0x20 MUL DUP3 ADD SWAP2 SWAP1 PUSH1 0x0 MSTORE PUSH1 0x20 PUSH1 0x0 KECCAK256 SWAP1 JUMPDEST DUP2 SLOAD DUP2 MSTORE PUSH1 0x20 ADD SWAP1 PUSH1 0x1 ADD SWAP1 DUP1 DUP4 GT PUSH2 0x365 JUMPI JUMPDEST POP POP POP POP POP SWAP1 POP SWAP1 JUMP JUMPDEST PUSH1 0x0 DUP1 PUSH1 0x7 SWAP1 POP PUSH1 0x0 DUP2 PUSH8 0xFFFFFFFFFFFFFFFF DUP2 GT DUP1 ISZERO PUSH2 0x3A3 JUMPI PUSH1 0x0 DUP1 REVERT JUMPDEST POP PUSH1 0x40 MLOAD SWAP1 DUP1 DUP3 MSTORE DUP1 PUSH1 0x20 MUL PUSH1 0x20 ADD DUP3 ADD PUSH1 0x40 MSTORE DUP1 ISZERO PUSH2 0x3D2 JUMPI DUP2 PUSH1 0x20 ADD PUSH1 0x20 DUP3 MUL DUP1 CALLDATASIZE DUP4 CALLDATACOPY DUP1 DUP3 ADD SWAP2 POP POP SWAP1 POP JUMPDEST POP SWAP1 POP DUP1 MLOAD SWAP3 POP POP POP SWAP1 JUMP JUMPDEST PUSH1 0xA DUP2 SWAP1 DUP1 PUSH1 0x1 DUP2 SLOAD ADD DUP1 DUP3 SSTORE DUP1 SWAP2 POP POP PUSH1 0x1 SWAP1 SUB SWAP1 PUSH1 0x0 MSTORE PUSH1 0x20 PUSH1 0x0 KECCAK256 ADD PUSH1 0x0 SWAP1 SWAP2 SWAP1 SWAP2 SWAP1 SWAP2 POP SSTORE POP JUMP JUMPDEST PUSH1 0x64 PUSH1 0x0 DUP1 PUSH1 0xA DUP2 LT PUSH2 0x419 JUMPI INVALID JUMPDEST ADD DUP2 SWAP1 SSTORE POP PUSH1 0x63 PUSH1 0x0 PUSH1 0x1 PUSH1 0xA DUP2 LT PUSH2 0x42E JUMPI INVALID JUMPDEST ADD DUP2 SWAP1 SSTORE POP PUSH1 0x62 PUSH1 0x0 PUSH1 0x2 PUSH1 0xA DUP2 LT PUSH2 0x443 JUMPI INVALID JUMPDEST ADD DUP2 SWAP1 SSTORE POP PUSH1 0x61 PUSH1 0x0 PUSH1 0x3 PUSH1 0xA DUP2 LT PUSH2 0x458 JUMPI INVALID JUMPDEST ADD DUP2 SWAP1 SSTORE POP PUSH1 0x60 PUSH1 0x0 PUSH1 0x4 PUSH1 0xA DUP2 LT PUSH2 0x46D JUMPI INVALID JUMPDEST ADD DUP2 SWAP1 SSTORE POP PUSH1 0x5F PUSH1 0x0 PUSH1 0x5 PUSH1 0xA DUP2 LT PUSH2 0x482 JUMPI INVALID JUMPDEST ADD DUP2 SWAP1 SSTORE POP PUSH1 0x5E PUSH1 0x0 PUSH1 0x6 PUSH1 0xA DUP2 LT PUSH2 0x497 JUMPI INVALID JUMPDEST ADD DUP2 SWAP1 SSTORE POP PUSH1 0x5D PUSH1 0x0 PUSH1 0x7 PUSH1 0xA DUP2 LT PUSH2 0x4AC JUMPI INVALID JUMPDEST ADD DUP2 SWAP1 SSTORE POP PUSH1 0x5C PUSH1 0x0 PUSH1 0x8 PUSH1 0xA DUP2 LT PUSH2 0x4C1 JUMPI INVALID JUMPDEST ADD DUP2 SWAP1 SSTORE POP PUSH1 0x5B PUSH1 0x0 PUSH1 0x9 PUSH1 0xA DUP2 LT PUSH2 0x4D6 JUMPI INVALID JUMPDEST ADD DUP2 SWAP1 SSTORE POP PUSH1 0x65 PUSH1 0xA PUSH1 0x0 DUP2 SLOAD DUP2 LT PUSH2 0x4EB JUMPI INVALID JUMPDEST SWAP1 PUSH1 0x0 MSTORE PUSH1 0x20 PUSH1 0x0 KECCAK256 ADD DUP2 SWAP1 SSTORE POP PUSH1 0x66 PUSH1 0xA PUSH1 0x1 DUP2 SLOAD DUP2 LT PUSH2 0x509 JUMPI INVALID JUMPDEST SWAP1 PUSH1 0x0 MSTORE PUSH1 0x20 PUSH1 0x0 KECCAK256 ADD DUP2 SWAP1 SSTORE POP PUSH1 0x67 PUSH1 0xA PUSH1 0x2 DUP2 SLOAD DUP2 LT PUSH2 0x527 JUMPI INVALID JUMPDEST SWAP1 PUSH1 0x0 MSTORE PUSH1 0x20 PUSH1 0x0 KECCAK256 ADD DUP2 SWAP1 SSTORE POP PUSH1 0x68 PUSH1 0xA PUSH1 0x3 DUP2 SLOAD DUP2 LT PUSH2 0x545 JUMPI INVALID JUMPDEST SWAP1 PUSH1 0x0 MSTORE PUSH1 0x20 PUSH1 0x0 KECCAK256 ADD DUP2 SWAP1 SSTORE POP PUSH1 0x69 PUSH1 0xA PUSH1 0x4 DUP2 SLOAD DUP2 LT PUSH2 0x563 JUMPI INVALID JUMPDEST SWAP1 PUSH1 0x0 MSTORE PUSH1 0x20 PUSH1 0x0 KECCAK256 ADD DUP2 SWAP1 SSTORE POP PUSH1 0x6A PUSH1 0xA PUSH1 0x5 DUP2 SLOAD DUP2 LT PUSH2 0x581 JUMPI INVALID JUMPDEST SWAP1 PUSH1 0x0 MSTORE PUSH1 0x20 PUSH1 0x0 KECCAK256 ADD DUP2 SWAP1 SSTORE POP PUSH1 0x6B PUSH1 0xA PUSH1 0x6 DUP2 SLOAD DUP2 LT PUSH2 0x59F JUMPI INVALID JUMPDEST SWAP1 PUSH1 0x0 MSTORE PUSH1 0x20 PUSH1 0x0 KECCAK256 ADD DUP2 SWAP1 SSTORE POP PUSH1 0x6C PUSH1 0xA PUSH1 0x7 DUP2 SLOAD DUP2 LT PUSH2 0x5BD JUMPI INVALID JUMPDEST SWAP1 PUSH1 0x0 MSTORE PUSH1 0x20 PUSH1 0x0 KECCAK256 ADD DUP2 SWAP1 SSTORE POP PUSH1 0x6D PUSH1 0xA PUSH1 0x8 DUP2 SLOAD DUP2 LT PUSH2 0x5DB JUMPI INVALID JUMPDEST SWAP1 PUSH1 0x0 MSTORE PUSH1 0x20 PUSH1 0x0 KECCAK256 ADD DUP2 SWAP1 SSTORE POP PUSH1 0x6E PUSH1 0xA PUSH1 0x9 DUP2 SLOAD DUP2 LT PUSH2 0x5F9 JUMPI INVALID JUMPDEST SWAP1 PUSH1 0x0 MSTORE PUSH1 0x20 PUSH1 0x0 KECCAK256 ADD DUP2 SWAP1 SSTORE POP JUMP JUMPDEST PUSH1 0x0 DUP2 PUSH1 0xA DUP2 LT PUSH2 0x619 JUMPI PUSH1 0x0 DUP1 REVERT JUMPDEST ADD PUSH1 0x0 SWAP2 POP SWAP1 POP SLOAD DUP2 JUMP JUMPDEST PUSH1 0x0 DUP1 PUSH1 0xA SWAP1 POP PUSH1 0x0 DUP2 PUSH8 0xFFFFFFFFFFFFFFFF DUP2 GT DUP1 ISZERO PUSH2 0x644 JUMPI PUSH1 0x0 DUP1 REVERT JUMPDEST POP PUSH1 0x40 MLOAD SWAP1 DUP1 DUP3 MSTORE DUP1 PUSH1 0x20 MUL PUSH1 0x20 ADD DUP3 ADD PUSH1 0x40 MSTORE DUP1 ISZERO PUSH2 0x673 JUMPI DUP2 PUSH1 0x20 ADD PUSH1 0x20 DUP3 MUL DUP1 CALLDATASIZE DUP4 CALLDATACOPY DUP1 DUP3 ADD SWAP2 POP POP SWAP1 POP JUMPDEST POP SWAP1 POP PUSH1 0x2 DUP2 PUSH1 0x0 DUP2 MLOAD DUP2 LT PUSH2 0x685 JUMPI INVALID JUMPDEST PUSH1 0x20 MUL PUSH1 0x20 ADD ADD DUP2 DUP2 MSTORE POP POP PUSH1 0x4 DUP2 PUSH1 0x1 DUP2 MLOAD DUP2 LT PUSH2 0x6A0 JUMPI INVALID JUMPDEST PUSH1 0x20 MUL PUSH1 0x20 ADD ADD DUP2 DUP2 MSTORE POP POP PUSH1 0x6 DUP2 PUSH1 0x2 DUP2 MLOAD DUP2 LT PUSH2 0x6BB JUMPI INVALID JUMPDEST PUSH1 0x20 MUL PUSH1 0x20 ADD ADD DUP2 DUP2 MSTORE POP POP PUSH1 0x8 DUP2 PUSH1 0x3 DUP2 MLOAD DUP2 LT PUSH2 0x6D6 JUMPI INVALID JUMPDEST PUSH1 0x20 MUL PUSH1 0x20 ADD ADD DUP2 DUP2 MSTORE POP POP PUSH1 0xA DUP2 PUSH1 0x4 DUP2 MLOAD DUP2 LT PUSH2 0x6F1 JUMPI INVALID JUMPDEST PUSH1 0x20 MUL PUSH1 0x20 ADD ADD DUP2 DUP2 MSTORE POP POP DUP1 DUP5 PUSH1 0xFF AND DUP2 MLOAD DUP2 LT PUSH2 0x70C JUMPI INVALID JUMPDEST PUSH1 0x20 MUL PUSH1 0x20 ADD ADD MLOAD SWAP3 POP POP POP SWAP2 SWAP1 POP JUMP JUMPDEST PUSH1 0x0 PUSH2 0x727 PUSH2 0x7F1 JUMP JUMPDEST PUSH1 0xA SWAP2 POP POP SWAP1 JUMP JUMPDEST PUSH1 0xA DUP2 DUP2 SLOAD DUP2 LT PUSH2 0x73F JUMPI PUSH1 0x0 DUP1 REVERT JUMPDEST SWAP1 PUSH1 0x0 MSTORE PUSH1 0x20 PUSH1 0x0 KECCAK256 ADD PUSH1 0x0 SWAP2 POP SWAP1 POP SLOAD DUP2 JUMP JUMPDEST PUSH1 0x0 PUSH2 0x75D PUSH2 0x7F1 JUMP JUMPDEST PUSH1 0x5 DUP2 PUSH1 0x5 PUSH1 0xA DUP2 LT PUSH2 0x76C JUMPI INVALID JUMPDEST PUSH1 0x20 MUL ADD DUP2 DUP2 MSTORE POP POP PUSH1 0xA DUP2 PUSH1 0x6 PUSH1 0xA DUP2 LT PUSH2 0x784 JUMPI INVALID JUMPDEST PUSH1 0x20 MUL ADD DUP2 DUP2 MSTORE POP POP PUSH1 0xF DUP2 PUSH1 0x7 PUSH1 0xA DUP2 LT PUSH2 0x79C JUMPI INVALID JUMPDEST PUSH1 0x20 MUL ADD DUP2 DUP2 MSTORE POP POP PUSH1 0x14 DUP2 PUSH1 0x8 PUSH1 0xA DUP2 LT PUSH2 0x7B4 JUMPI INVALID JUMPDEST PUSH1 0x20 MUL ADD DUP2 DUP2 MSTORE POP POP PUSH1 0x19 DUP2 PUSH1 0x9 PUSH1 0xA DUP2 LT PUSH2 0x7CC JUMPI INVALID JUMPDEST PUSH1 0x20 MUL ADD DUP2 DUP2 MSTORE POP POP DUP1 DUP4 PUSH1 0xFF AND PUSH1 0xA DUP2 LT PUSH2 0x7E4 JUMPI INVALID JUMPDEST PUSH1 0x20 MUL ADD MLOAD SWAP2 POP POP SWAP2 SWAP1 POP JUMP JUMPDEST PUSH1 0x40 MLOAD DUP1 PUSH2 0x140 ADD PUSH1 0x40 MSTORE DUP1 PUSH1 0xA SWAP1 PUSH1 0x20 DUP3 MUL DUP1 CALLDATASIZE DUP4 CALLDATACOPY DUP1 DUP3 ADD SWAP2 POP POP SWAP1 POP POP SWAP1 JUMP INVALID LOG2 PUSH5 0x6970667358 0x22 SLT KECCAK256 0xA7 0xC1 PUSH24 0xBB7C05007858CD801753FACE767A3788F2D77DC7FCE76EEB SWAP2 SIGNEXTEND DUP14 0xB2 PUSH28 0x64736F6C634300070600330000000000000000000000000000000000 "
		},
		"gasEstimates": {
			"creation": {
				"codeDepositCost": "424400",
				"executionCost": "infinite",
				"totalCost": "infinite"
			},
			"external": {
				"arrayExplain1()": "infinite",
				"arrayExplain2()": "infinite",
				"arrayExplain3(uint8)": "infinite",
				"arrayExplain4(uint8)": "infinite",
				"arrayExplain5()": "409514",
				"arrayExplain6()": "infinite",
				"arrayExplain7()": "infinite",
				"arrayExplain8(uint256)": "41240",
				"arrayExplain9()": "145",
				"members(uint256)": "1151",
				"members2(uint256)": "2068"
			}
		},
		"methodIdentifiers": {
			"arrayExplain1()": "1841fd4f",
			"arrayExplain2()": "8b21d2ef",
			"arrayExplain3(uint8)": "5f861f21",
			"arrayExplain4(uint8)": "fda23789",
			"arrayExplain5()": "58b9c8c7",
			"arrayExplain6()": "04f40427",
			"arrayExplain7()": "132b86bd",
			"arrayExplain8(uint256)": "4ff894be",
			"arrayExplain9()": "00b7f604",
			"members(uint256)": "5daf08ca",
			"members2(uint256)": "a8bcab20"
		}
	},
	"abi": [
		{
			"inputs": [],
			"name": "arrayExplain1",
			"outputs": [
				{
					"internalType": "uint256",
					"name": "",
					"type": "uint256"
				}
			],
			"stateMutability": "pure",
			"type": "function"
		},
		{
			"inputs": [],
			"name": "arrayExplain2",
			"outputs": [
				{
					"internalType": "uint256",
					"name": "",
					"type": "uint256"
				}
			],
			"stateMutability": "pure",
			"type": "function"
		},
		{
			"inputs": [
				{
					"internalType": "uint8",
					"name": "idx",
					"type": "uint8"
				}
			],
			"name": "arrayExplain3",
			"outputs": [
				{
					"internalType": "uint256",
					"name": "",
					"type": "uint256"
				}
			],
			"stateMutability": "pure",
			"type": "function"
		},
		{
			"inputs": [
				{
					"internalType": "uint8",
					"name": "idx",
					"type": "uint8"
				}
			],
			"name": "arrayExplain4",
			"outputs": [
				{
					"internalType": "uint256",
					"name": "",
					"type": "uint256"
				}
			],
			"stateMutability": "pure",
			"type": "function"
		},
		{
			"inputs": [],
			"name": "arrayExplain5",
			"outputs": [],
			"stateMutability": "nonpayable",
			"type": "function"
		},
		{
			"inputs": [],
			"name": "arrayExplain6",
			"outputs": [
				{
					"internalType": "uint256[10]",
					"name": "",
					"type": "uint256[10]"
				}
			],
			"stateMutability": "view",
			"type": "function"
		},
		{
			"inputs": [],
			"name": "arrayExplain7",
			"outputs": [
				{
					"internalType": "uint256[]",
					"name": "",
					"type": "uint256[]"
				}
			],
			"stateMutability": "view",
			"type": "function"
		},
		{
			"inputs": [
				{
					"internalType": "uint256",
					"name": "x",
					"type": "uint256"
				}
			],
			"name": "arrayExplain8",
			"outputs": [],
			"stateMutability": "nonpayable",
			"type": "function"
		},
		{
			"inputs": [],
			"name": "arrayExplain9",
			"outputs": [],
			"stateMutability": "nonpayable",
			"type": "function"
		},
		{
			"inputs": [
				{
					"internalType": "uint256",
					"name": "",
					"type": "uint256"
				}
			],
			"name": "members",
			"outputs": [
				{
					"internalType": "uint256",
					"name": "",
					"type": "uint256"
				}
			],
			"stateMutability": "view",
			"type": "function"
		},
		{
			"inputs": [
				{
					"internalType": "uint256",
					"name": "",
					"type": "uint256"
				}
			],
			"name": "members2",
			"outputs": [
				{
					"internalType": "uint256",
					"name": "",
					"type": "uint256"
				}
			],
			"stateMutability": "view",
			"type": "function"
		}
	]
}